{"abi":[{"type":"function","name":"RELATIVE_BROADCAST_PATH","inputs":[],"outputs":[{"name":"","type":"string","internalType":"string"}],"stateMutability":"view"},{"type":"function","name":"get_most_recent_deployment","inputs":[{"name":"contractName","type":"string","internalType":"string"},{"name":"chainId","type":"uint256","internalType":"uint256"},{"name":"relativeBroadcastPath","type":"string","internalType":"string"}],"outputs":[{"name":"","type":"address","internalType":"address"}],"stateMutability":"view"},{"type":"function","name":"vm","inputs":[],"outputs":[{"name":"","type":"Vm","internalType":"contract Vm"}],"stateMutability":"view"}],"bytecode":{"object":"0x61108f61003a600b82828239805160001a60731461002d57634e487b7160e01b600052600060045260246000fd5b30600052607381538281f3fe730000000000000000000000000000000000000000301460806040526004361061004b5760003560e01c80632aa1c696146100505780633a768463146100905780633d363fe3146100cf575b600080fd5b61007a6040518060400160405280600b81526020016a0b8bd89c9bd85918d85cdd60aa1b81525081565b6040516100879190610a69565b60405180910390f35b6100b77f885cb69240a935d632d79c317109709ecfa91a80626ff3989d68f67f5b1dd12d81565b6040516001600160a01b039091168152602001610087565b6100b76100dd366004610b6a565b604051630525e1db60e21b81526000908190819081908190737109709ecfa91a80626ff3989d68f67f5b1dd12d90631497876c90610122908990600390600401610bd7565b600060405180830381865afa15801561013f573d6000803e3d6000fd5b505050506040513d6000823e601f3d908101601f191682016040526101679190810190610c65565b905060005b815181101561040157600082828151811061018957610189610dc2565b602090810291909101015160405163348051d760e11b8152600481018b905290915061023e90737109709ecfa91a80626ff3989d68f67f5b1dd12d90636900a3ae90602401600060405180830381865afa1580156101eb573d6000803e3d6000fd5b505050506040513d6000823e601f3d908101601f191682016040526102139190810190610dd8565b6040516020016102239190610e0d565b60408051601f198184030181529190526020830151906104d4565b8015610279575061027960405180604001604052806005815260200164173539b7b760d91b81525082602001516104d490919063ffffffff16565b80156102b857506102b66040518060400160405280600781526020016632393c96b93ab760c91b81525082602001516104d490919063ffffffff16565b155b156103ee5760208101516040516360f9bb1160e01b815260019550600091737109709ecfa91a80626ff3989d68f67f5b1dd12d916360f9bb11916102fe91600401610a69565b600060405180830381865afa15801561031b573d6000803e3d6000fd5b505050506040513d6000823e601f3d908101601f191682016040526103439190810190610dd8565b6040516356eef15b60e11b8152909150600090737109709ecfa91a80626ff3989d68f67f5b1dd12d9063addde2b690610380908590600401610e3b565b602060405180830381865afa15801561039d573d6000803e3d6000fd5b505050506040513d601f19601f820116820180604052508101906103c19190610e7a565b9050868111156103eb576103d6828d8a6105bf565b97506001600160a01b038816156103eb578096505b50505b50806103f981610ea9565b91505061016c565b50816104735760405162461bcd60e51b815260206004820152603660248201527f4e6f206465706c6f796d656e7420617274696661637473207765726520666f756044820152753732103337b91039b832b1b4b334b2b21031b430b4b760511b60648201526084015b60405180910390fd5b6001600160a01b0384161561048e57839450505050506104cd565b60405162461bcd60e51b8152602060048201526014602482015273139bc818dbdb9d1c9858dd0819195c1b1bde595960621b604482015260640161046a565b9392505050565b805182516000918491849111806104ea57508151155b156104fa576000925050506105b9565b60005b8151835161050b9190610ec2565b81116105b157600160005b835181101561058a5783818151811061053157610531610dc2565b01602001516001600160f81b0319168561054b8386610ed5565b8151811061055b5761055b610dc2565b01602001516001600160f81b03191614610578576000915061058a565b8061058281610ea9565b915050610516565b50801561059e5760019450505050506105b9565b50806105a981610ea9565b9150506104fd565b506000925050505b92915050565b6000805b60405163348051d760e11b815260048101829052737109709ecfa91a80626ff3989d68f67f5b1dd12d9063db4235f69087908390636900a3ae90602401600060405180830381865afa15801561061d573d6000803e3d6000fd5b505050506040513d6000823e601f3d908101601f191682016040526106459190810190610dd8565b6040516020016106559190610ee8565b6040516020818303038152906040526040518363ffffffff1660e01b8152600401610681929190610f2a565b602060405180830381865afa15801561069e573d6000803e3d6000fd5b505050506040513d601f19601f820116820180604052508101906106c29190610f58565b156108b95760405163348051d760e11b815260048101829052600090737109709ecfa91a80626ff3989d68f67f5b1dd12d90636900a3ae90602401600060405180830381865afa15801561071a573d6000803e3d6000fd5b505050506040513d6000823e601f3d908101601f191682016040526107429190810190610dd8565b6040516020016107529190610f73565b60408051601f1981840301815290829052636da11afb60e11b82529150737109709ecfa91a80626ff3989d68f67f5b1dd12d9063db4235f69061079b9089908590600401610f2a565b602060405180830381865afa1580156107b8573d6000803e3d6000fd5b505050506040513d601f19601f820116820180604052508101906107dc9190610f58565b156108a65760006107ed87836108c2565b90506107f98187610943565b156108a45760405163348051d760e11b8152600481018490526108a190737109709ecfa91a80626ff3989d68f67f5b1dd12d90636900a3ae90602401600060405180830381865afa158015610852573d6000803e3d6000fd5b505050506040513d6000823e601f3d908101601f1916820160405261087a9190810190610dd8565b60405160200161088a9190610fc2565b60408051601f19818403018152919052889061099c565b94505b505b50806108b181610ea9565b9150506105c3565b50909392505050565b6040516309389f5960e31b8152606090737109709ecfa91a80626ff3989d68f67f5b1dd12d906349c4fac8906108fe9086908690600401610f2a565b600060405180830381865afa15801561091b573d6000803e3d6000fd5b505050506040513d6000823e601f3d908101601f191682016040526104cd9190810190610dd8565b6000816040516020016109569190611014565b604051602081830303815290604052805190602001208360405160200161097d9190611014565b6040516020818303038152906040528051906020012014905092915050565b604051631e19e65760e01b8152600090737109709ecfa91a80626ff3989d68f67f5b1dd12d90631e19e657906109d89086908690600401610f2a565b602060405180830381865afa1580156109f5573d6000803e3d6000fd5b505050506040513d601f19601f820116820180604052508101906104cd9190611030565b60005b83811015610a34578181015183820152602001610a1c565b50506000910152565b60008151808452610a55816020860160208601610a19565b601f01601f19169290920160200192915050565b6020815260006104cd6020830184610a3d565b634e487b7160e01b600052604160045260246000fd5b60405160a0810167ffffffffffffffff81118282101715610ab557610ab5610a7c565b60405290565b604051601f8201601f1916810167ffffffffffffffff81118282101715610ae457610ae4610a7c565b604052919050565b600067ffffffffffffffff821115610b0657610b06610a7c565b50601f01601f191660200190565b600082601f830112610b2557600080fd5b8135610b38610b3382610aec565b610abb565b818152846020838601011115610b4d57600080fd5b816020850160208301376000918101602001919091529392505050565b600080600060608486031215610b7f57600080fd5b833567ffffffffffffffff80821115610b9757600080fd5b610ba387838801610b14565b9450602086013593506040860135915080821115610bc057600080fd5b50610bcd86828701610b14565b9150509250925092565b604081526000610bea6040830185610a3d565b905067ffffffffffffffff831660208301529392505050565b600082601f830112610c1457600080fd5b8151610c22610b3382610aec565b818152846020838601011115610c3757600080fd5b610c48826020830160208701610a19565b949350505050565b80518015158114610c6057600080fd5b919050565b60006020808385031215610c7857600080fd5b825167ffffffffffffffff80821115610c9057600080fd5b818501915085601f830112610ca457600080fd5b815181811115610cb657610cb6610a7c565b8060051b610cc5858201610abb565b9182528381018501918581019089841115610cdf57600080fd5b86860192505b83831015610db557825185811115610cfd5760008081fd5b860160a0818c03601f1901811315610d155760008081fd5b610d1d610a92565b8983015188811115610d2f5760008081fd5b610d3d8e8c83870101610c03565b82525060408084015189811115610d545760008081fd5b610d628f8d83880101610c03565b8c840152506060808501518a81168114610d7c5760008081fd5b80838501525060809150610d91828601610c50565b90830152610da0848401610c50565b90820152845250509186019190860190610ce5565b9998505050505050505050565b634e487b7160e01b600052603260045260246000fd5b600060208284031215610dea57600080fd5b815167ffffffffffffffff811115610e0157600080fd5b610c4884828501610c03565b6000602f60f81b8083528351610e2a816001860160208801610a19565b600193019283015250600201919050565b604081526000610e4e6040830184610a3d565b8281036020840152600a81526902e74696d657374616d760b41b60208201526040810191505092915050565b600060208284031215610e8c57600080fd5b5051919050565b634e487b7160e01b600052601160045260246000fd5b600060018201610ebb57610ebb610e93565b5060010190565b818103818111156105b9576105b9610e93565b808201808211156105b9576105b9610e93565b6e242e7472616e73616374696f6e735b60881b815260008251610f1281600f850160208701610a19565b605d60f81b600f939091019283015250601001919050565b604081526000610f3d6040830185610a3d565b8281036020840152610f4f8185610a3d565b95945050505050565b600060208284031215610f6a57600080fd5b6104cd82610c50565b6e242e7472616e73616374696f6e735b60881b815260008251610f9d81600f850160208701610a19565b6d5d2e636f6e74726163744e616d6560901b600f939091019283015250601d01919050565b6e242e7472616e73616374696f6e735b60881b815260008251610fec81600f850160208701610a19565b705d2e636f6e74726163744164647265737360781b600f939091019283015250602001919050565b60008251611026818460208701610a19565b9190910192915050565b60006020828403121561104257600080fd5b81516001600160a01b03811681146104cd57600080fdfea264697066735822122073ec10b4955c122e4cb64dee78b4c72933be65dd085b0571d785475c85f8d08a64736f6c63430008140033","linkReferences":{}},"methodIdentifiers":{"RELATIVE_BROADCAST_PATH()":"2aa1c696","get_most_recent_deployment(string,uint256,string)":"3d363fe3","vm()":"3a768463"},"id":19}