{"abi":[{"type":"constructor","inputs":[{"name":"_init_pre_sale_price","type":"uint256","internalType":"uint256"},{"name":"_startPreSaleDate","type":"uint256","internalType":"uint256"},{"name":"_startRevealDate","type":"uint256","internalType":"uint256"},{"name":"_startPublicSaleDate","type":"uint256","internalType":"uint256"},{"name":"_merkle_root","type":"bytes32","internalType":"bytes32"}],"stateMutability":"nonpayable"},{"type":"function","name":"COLLECTION_MAX_SUPPLY","inputs":[],"outputs":[{"name":"","type":"uint256","internalType":"uint256"}],"stateMutability":"view"},{"type":"function","name":"PUBLIC_SALE_MINT_PRICE","inputs":[],"outputs":[{"name":"","type":"uint256","internalType":"uint256"}],"stateMutability":"view"},{"type":"function","name":"approve","inputs":[{"name":"to","type":"address","internalType":"address"},{"name":"tokenId","type":"uint256","internalType":"uint256"}],"outputs":[],"stateMutability":"nonpayable"},{"type":"function","name":"balanceOf","inputs":[{"name":"owner","type":"address","internalType":"address"}],"outputs":[{"name":"","type":"uint256","internalType":"uint256"}],"stateMutability":"view"},{"type":"function","name":"changeMerkleRoot","inputs":[{"name":"_newMerkleRoot","type":"bytes32","internalType":"bytes32"}],"outputs":[],"stateMutability":"nonpayable"},{"type":"function","name":"changePhaseLock","inputs":[],"outputs":[],"stateMutability":"nonpayable"},{"type":"function","name":"changePreSaleDate","inputs":[{"name":"_newPreSaleDate","type":"uint256","internalType":"uint256"}],"outputs":[],"stateMutability":"nonpayable"},{"type":"function","name":"changePublicSaleDate","inputs":[{"name":"_newPublicSaleDate","type":"uint256","internalType":"uint256"}],"outputs":[],"stateMutability":"nonpayable"},{"type":"function","name":"changeRevealDate","inputs":[{"name":"_newRevealDate","type":"uint256","internalType":"uint256"}],"outputs":[],"stateMutability":"nonpayable"},{"type":"function","name":"getApproved","inputs":[{"name":"tokenId","type":"uint256","internalType":"uint256"}],"outputs":[{"name":"","type":"address","internalType":"address"}],"stateMutability":"view"},{"type":"function","name":"getCurrentPhase","inputs":[],"outputs":[{"name":"","type":"uint8","internalType":"enum IZeroDay.PHASE"}],"stateMutability":"view"},{"type":"function","name":"getMerkleRoot","inputs":[],"outputs":[{"name":"","type":"bytes32","internalType":"bytes32"}],"stateMutability":"view"},{"type":"function","name":"getPreSaled","inputs":[],"outputs":[{"name":"","type":"bool","internalType":"bool"}],"stateMutability":"view"},{"type":"function","name":"getPublicSaled","inputs":[],"outputs":[{"name":"","type":"bool","internalType":"bool"}],"stateMutability":"view"},{"type":"function","name":"getRevealed","inputs":[],"outputs":[{"name":"","type":"bool","internalType":"bool"}],"stateMutability":"view"},{"type":"function","name":"getStartPreSaleDate","inputs":[],"outputs":[{"name":"","type":"uint256","internalType":"uint256"}],"stateMutability":"view"},{"type":"function","name":"getStartPublicSaleDate","inputs":[],"outputs":[{"name":"","type":"uint256","internalType":"uint256"}],"stateMutability":"view"},{"type":"function","name":"getStartRevealDate","inputs":[],"outputs":[{"name":"","type":"uint256","internalType":"uint256"}],"stateMutability":"view"},{"type":"function","name":"getWhiteListMinterStatus","inputs":[{"name":"_minter","type":"address","internalType":"address"}],"outputs":[{"name":"","type":"bool","internalType":"bool"}],"stateMutability":"view"},{"type":"function","name":"init_pre_sale_price","inputs":[],"outputs":[{"name":"","type":"uint256","internalType":"uint256"}],"stateMutability":"view"},{"type":"function","name":"isApprovedForAll","inputs":[{"name":"owner","type":"address","internalType":"address"},{"name":"operator","type":"address","internalType":"address"}],"outputs":[{"name":"","type":"bool","internalType":"bool"}],"stateMutability":"view"},{"type":"function","name":"mintNFT","inputs":[],"outputs":[],"stateMutability":"payable"},{"type":"function","name":"name","inputs":[],"outputs":[{"name":"","type":"string","internalType":"string"}],"stateMutability":"view"},{"type":"function","name":"owner","inputs":[],"outputs":[{"name":"","type":"address","internalType":"address"}],"stateMutability":"view"},{"type":"function","name":"ownerOf","inputs":[{"name":"tokenId","type":"uint256","internalType":"uint256"}],"outputs":[{"name":"","type":"address","internalType":"address"}],"stateMutability":"view"},{"type":"function","name":"renounceOwnership","inputs":[],"outputs":[],"stateMutability":"nonpayable"},{"type":"function","name":"royaltyInfo","inputs":[{"name":"tokenId","type":"uint256","internalType":"uint256"},{"name":"salePrice","type":"uint256","internalType":"uint256"}],"outputs":[{"name":"","type":"address","internalType":"address"},{"name":"","type":"uint256","internalType":"uint256"}],"stateMutability":"view"},{"type":"function","name":"safeTransferFrom","inputs":[{"name":"from","type":"address","internalType":"address"},{"name":"to","type":"address","internalType":"address"},{"name":"tokenId","type":"uint256","internalType":"uint256"}],"outputs":[],"stateMutability":"nonpayable"},{"type":"function","name":"safeTransferFrom","inputs":[{"name":"from","type":"address","internalType":"address"},{"name":"to","type":"address","internalType":"address"},{"name":"tokenId","type":"uint256","internalType":"uint256"},{"name":"data","type":"bytes","internalType":"bytes"}],"outputs":[],"stateMutability":"nonpayable"},{"type":"function","name":"setApprovalForAll","inputs":[{"name":"operator","type":"address","internalType":"address"},{"name":"approved","type":"bool","internalType":"bool"}],"outputs":[],"stateMutability":"nonpayable"},{"type":"function","name":"startPreSale","inputs":[],"outputs":[],"stateMutability":"nonpayable"},{"type":"function","name":"startPublicSale","inputs":[],"outputs":[],"stateMutability":"nonpayable"},{"type":"function","name":"startReveal","inputs":[],"outputs":[],"stateMutability":"nonpayable"},{"type":"function","name":"supportsInterface","inputs":[{"name":"interfaceId","type":"bytes4","internalType":"bytes4"}],"outputs":[{"name":"","type":"bool","internalType":"bool"}],"stateMutability":"view"},{"type":"function","name":"symbol","inputs":[],"outputs":[{"name":"","type":"string","internalType":"string"}],"stateMutability":"view"},{"type":"function","name":"tokenIdMinted","inputs":[{"name":"_tokenId","type":"uint256","internalType":"uint256"}],"outputs":[{"name":"","type":"bool","internalType":"bool"}],"stateMutability":"view"},{"type":"function","name":"tokenURI","inputs":[{"name":"_tokenId","type":"uint256","internalType":"uint256"}],"outputs":[{"name":"","type":"string","internalType":"string"}],"stateMutability":"view"},{"type":"function","name":"totalSupply","inputs":[],"outputs":[{"name":"","type":"uint256","internalType":"uint256"}],"stateMutability":"view"},{"type":"function","name":"transferFrom","inputs":[{"name":"from","type":"address","internalType":"address"},{"name":"to","type":"address","internalType":"address"},{"name":"tokenId","type":"uint256","internalType":"uint256"}],"outputs":[],"stateMutability":"nonpayable"},{"type":"function","name":"transferOwnership","inputs":[{"name":"newOwner","type":"address","internalType":"address"}],"outputs":[],"stateMutability":"nonpayable"},{"type":"function","name":"whiteListMint","inputs":[{"name":"_merkleProof","type":"bytes32[]","internalType":"bytes32[]"}],"outputs":[],"stateMutability":"payable"},{"type":"event","name":"Approval","inputs":[{"name":"owner","type":"address","indexed":true,"internalType":"address"},{"name":"approved","type":"address","indexed":true,"internalType":"address"},{"name":"tokenId","type":"uint256","indexed":true,"internalType":"uint256"}],"anonymous":false},{"type":"event","name":"ApprovalForAll","inputs":[{"name":"owner","type":"address","indexed":true,"internalType":"address"},{"name":"operator","type":"address","indexed":true,"internalType":"address"},{"name":"approved","type":"bool","indexed":false,"internalType":"bool"}],"anonymous":false},{"type":"event","name":"CurrentPhaseLockedByOwner","inputs":[{"name":"phase","type":"uint8","indexed":false,"internalType":"enum IZeroDay.PHASE"}],"anonymous":false},{"type":"event","name":"MintedInWhiteList","inputs":[{"name":"minter","type":"address","indexed":false,"internalType":"address"}],"anonymous":false},{"type":"event","name":"OwnershipTransferred","inputs":[{"name":"previousOwner","type":"address","indexed":true,"internalType":"address"},{"name":"newOwner","type":"address","indexed":true,"internalType":"address"}],"anonymous":false},{"type":"event","name":"Transfer","inputs":[{"name":"from","type":"address","indexed":true,"internalType":"address"},{"name":"to","type":"address","indexed":true,"internalType":"address"},{"name":"tokenId","type":"uint256","indexed":true,"internalType":"uint256"}],"anonymous":false},{"type":"event","name":"merkleRootChanged","inputs":[{"name":"newMerkleRoot","type":"bytes32","indexed":false,"internalType":"bytes32"}],"anonymous":false},{"type":"event","name":"phaseChanged","inputs":[{"name":"phase","type":"uint8","indexed":false,"internalType":"enum IZeroDay.PHASE"}],"anonymous":false},{"type":"error","name":"ERC2981InvalidDefaultRoyalty","inputs":[{"name":"numerator","type":"uint256","internalType":"uint256"},{"name":"denominator","type":"uint256","internalType":"uint256"}]},{"type":"error","name":"ERC2981InvalidDefaultRoyaltyReceiver","inputs":[{"name":"receiver","type":"address","internalType":"address"}]},{"type":"error","name":"ERC2981InvalidTokenRoyalty","inputs":[{"name":"tokenId","type":"uint256","internalType":"uint256"},{"name":"numerator","type":"uint256","internalType":"uint256"},{"name":"denominator","type":"uint256","internalType":"uint256"}]},{"type":"error","name":"ERC2981InvalidTokenRoyaltyReceiver","inputs":[{"name":"tokenId","type":"uint256","internalType":"uint256"},{"name":"receiver","type":"address","internalType":"address"}]},{"type":"error","name":"ERC721IncorrectOwner","inputs":[{"name":"sender","type":"address","internalType":"address"},{"name":"tokenId","type":"uint256","internalType":"uint256"},{"name":"owner","type":"address","internalType":"address"}]},{"type":"error","name":"ERC721InsufficientApproval","inputs":[{"name":"operator","type":"address","internalType":"address"},{"name":"tokenId","type":"uint256","internalType":"uint256"}]},{"type":"error","name":"ERC721InvalidApprover","inputs":[{"name":"approver","type":"address","internalType":"address"}]},{"type":"error","name":"ERC721InvalidOperator","inputs":[{"name":"operator","type":"address","internalType":"address"}]},{"type":"error","name":"ERC721InvalidOwner","inputs":[{"name":"owner","type":"address","internalType":"address"}]},{"type":"error","name":"ERC721InvalidReceiver","inputs":[{"name":"receiver","type":"address","internalType":"address"}]},{"type":"error","name":"ERC721InvalidSender","inputs":[{"name":"sender","type":"address","internalType":"address"}]},{"type":"error","name":"ERC721NonexistentToken","inputs":[{"name":"tokenId","type":"uint256","internalType":"uint256"}]},{"type":"error","name":"OwnableInvalidOwner","inputs":[{"name":"owner","type":"address","internalType":"address"}]},{"type":"error","name":"OwnableUnauthorizedAccount","inputs":[{"name":"account","type":"address","internalType":"address"}]},{"type":"error","name":"ReentrancyGuardReentrantCall","inputs":[]},{"type":"error","name":"ZeroDay__AlreadyMintedInWhiteList","inputs":[]},{"type":"error","name":"ZeroDay__ExceedsMaxSupply","inputs":[]},{"type":"error","name":"ZeroDay__MerkleProofHashesAreEmpty","inputs":[]},{"type":"error","name":"ZeroDay__NewMerkleRootHasSameNameWithOldMerkleRoot","inputs":[]},{"type":"error","name":"ZeroDay__NotSufficientBalanceToMint","inputs":[]},{"type":"error","name":"ZeroDay__PreSaleDateNotReached","inputs":[]},{"type":"error","name":"ZeroDay__PublicSaleDateNotReached","inputs":[]},{"type":"error","name":"ZeroDay__RevealDateNotReached","inputs":[]},{"type":"error","name":"ZeroDay__UserNotIncludedInWhiteList","inputs":[{"name":"user","type":"address","internalType":"address"}]},{"type":"error","name":"ZeroDay__WeAreNotInThisPhase","inputs":[]},{"type":"error","name":"ZeroDay__newDateIsAsSameAsOldOne","inputs":[]},{"type":"error","name":"ZeroDay__thisPhaseLockedByTheOwner","inputs":[]},{"type":"error","name":"ZeroDay__thisTokenIdHasNotMinted","inputs":[]}],"bytecode":{"object":"0x60a06040523480156200001157600080fd5b506040516200249f3803806200249f833981016040819052620000349162000164565b33604051806040016040528060078152602001665a65726f44617960c81b815250604051806040016040528060048152602001635a45524f60e01b81525081600290816200008391906200024a565b5060036200009282826200024a565b50506001600855506001600160a01b038116620000c957604051631e4fbdf760e01b81526000600482015260240160405180910390fd5b620000d48162000112565b50608094909452600a92909255600c91909155600b55600f55600d805460ff191660011790556010805463ff000000191690556000600e5562000316565b600980546001600160a01b038381166001600160a01b0319831681179093556040519116919082907f8be0079c531659141344cd1fd0a4f28419497f9722a3daafe3b4186f6b6457e090600090a35050565b600080600080600060a086880312156200017d57600080fd5b5050835160208501516040860151606087015160809097015192989197509594509092509050565b634e487b7160e01b600052604160045260246000fd5b600181811c90821680620001d057607f821691505b602082108103620001f157634e487b7160e01b600052602260045260246000fd5b50919050565b601f8211156200024557600081815260208120601f850160051c81016020861015620002205750805b601f850160051c820191505b8181101562000241578281556001016200022c565b5050505b505050565b81516001600160401b03811115620002665762000266620001a5565b6200027e81620002778454620001bb565b84620001f7565b602080601f831160018114620002b657600084156200029d5750858301515b600019600386901b1c1916600185901b17855562000241565b600085815260208120601f198616915b82811015620002e757888601518255948401946001909101908401620002c6565b5085821015620003065787850151600019600388901b60f8161c191681555b5050505050600190811b01905550565b608051612166620003396000396000818161037f0152610ebd01526121666000f3fe6080604052600436106102465760003560e01c8063715018a611610139578063b88d4fde116100b6578063d71f41be1161007a578063d71f41be14610695578063e93e73bb146106ad578063e985e9c5146106cb578063ebcea3db146106eb578063f2fde38b1461070b578063f843ae411461072b57600080fd5b8063b88d4fde146105f0578063be35057d14610610578063c1d4f2f914610630578063c87b56dd14610660578063d26a8b951461068057600080fd5b806397254e55116100fd57806397254e5514610572578063a22cb46514610585578063a3a40ea5146105a5578063ad72202b146105c5578063b1164e83146105da57600080fd5b8063715018a6146104ed5780638da5cb5b1461050257806394cc41401461052057806394d2717d1461053d57806395d89b411461055d57600080fd5b80632052d2e9116101c7578063495906571161018b578063495906571461044a57806355dd574c1461045f5780636352211e14610474578063692c4d721461049457806370a08231146104cd57600080fd5b80632052d2e9146103a157806323b872dd146103b65780632a55205a146103d65780633fd4f8a41461041557806342842e0e1461042a57600080fd5b80630c1c972a1161020e5780630c1c972a1461031157806314f710fe1461032657806318160ddd1461032e5780631c9738351461034d5780631d25d5831461036d57600080fd5b806301ffc9a71461024b57806306fdde0314610280578063081812fc146102a2578063095ea7b3146102da5780630b2cc5e4146102fc575b600080fd5b34801561025757600080fd5b5061026b610266366004611c16565b610747565b60405190151581526020015b60405180910390f35b34801561028c57600080fd5b50610295610758565b6040516102779190611c83565b3480156102ae57600080fd5b506102c26102bd366004611c96565b6107ea565b6040516001600160a01b039091168152602001610277565b3480156102e657600080fd5b506102fa6102f5366004611ccb565b610813565b005b34801561030857600080fd5b506102fa610822565b34801561031d57600080fd5b506102fa6108a3565b6102fa6109c5565b34801561033a57600080fd5b50600e545b604051908152602001610277565b34801561035957600080fd5b506102fa610368366004611c96565b610ae4565b34801561037957600080fd5b5061033f7f000000000000000000000000000000000000000000000000000000000000000081565b3480156103ad57600080fd5b50600b5461033f565b3480156103c257600080fd5b506102fa6103d1366004611cf5565b610b13565b3480156103e257600080fd5b506103f66103f1366004611d31565b610b9e565b604080516001600160a01b039093168352602083019190915201610277565b34801561042157600080fd5b50600a5461033f565b34801561043657600080fd5b506102fa610445366004611cf5565b610c4a565b34801561045657600080fd5b50600f5461033f565b34801561046b57600080fd5b506102fa610c6a565b34801561048057600080fd5b506102c261048f366004611c96565b610d77565b3480156104a057600080fd5b5061026b6104af366004611d53565b6001600160a01b031660009081526011602052604090205460ff1690565b3480156104d957600080fd5b5061033f6104e8366004611d53565b610d82565b3480156104f957600080fd5b506102fa610dca565b34801561050e57600080fd5b506009546001600160a01b03166102c2565b34801561052c57600080fd5b50601054610100900460ff1661026b565b34801561054957600080fd5b506102fa610558366004611c96565b610ddc565b34801561056957600080fd5b50610295610e0b565b6102fa610580366004611db5565b610e1a565b34801561059157600080fd5b506102fa6105a0366004611e5b565b610fb5565b3480156105b157600080fd5b50600d5460ff166040516102779190611ead565b3480156105d157600080fd5b506102fa610fc0565b3480156105e657600080fd5b5061033f6126ff81565b3480156105fc57600080fd5b506102fa61060b366004611ed5565b6110e2565b34801561061c57600080fd5b506102fa61062b366004611c96565b6110f9565b34801561063c57600080fd5b5061026b61064b366004611c96565b60009081526012602052604090205460ff1690565b34801561066c57600080fd5b5061029561067b366004611c96565b611128565b34801561068c57600080fd5b50600c5461033f565b3480156106a157600080fd5b5060105460ff1661026b565b3480156106b957600080fd5b5060105462010000900460ff1661026b565b3480156106d757600080fd5b5061026b6106e6366004611f95565b6111ff565b3480156106f757600080fd5b506102fa610706366004611c96565b61122d565b34801561071757600080fd5b506102fa610726366004611d53565b61128c565b34801561073757600080fd5b5061033f670de0b6b3a764000081565b6000610752826112e3565b92915050565b60606002805461076790611fc8565b80601f016020809104026020016040519081016040528092919081815260200182805461079390611fc8565b80156107e05780601f106107b5576101008083540402835291602001916107e0565b820191906000526020600020905b8154815290600101906020018083116107c357829003601f168201915b5050505050905090565b60006107f582611323565b506000828152600660205260409020546001600160a01b0316610752565b61081e82823361135c565b5050565b61082a611369565b6010546301000000900460ff16610842576001610845565b60005b6010805491151563010000000263ff00000019909216919091179055600d546040517f5a039f3ff6d01efc4c5722834c5878c0a1eaa1d6e28bb62e8146bf91f16ec335916108999160ff9190911690611ead565b60405180910390a1565b6108ab611369565b600280600d5460ff1660038111156108c5576108c5611e97565b146108e3576040516314f654af60e11b815260040160405180910390fd5b60105462010000900460ff16156109415760405162461bcd60e51b815260206004820152601a60248201527f5a65726f4461795f5f7075626c696353616c65644265666f726500000000000060448201526064015b60405180910390fd5b600c544263ffffffff16101561096a57604051632ed53c1b60e11b815260040160405180910390fd5b6010805462ff0000191662010000179055600d8054600360ff1990911681179091556040517f6e95ed764170cfef59dda5e1ac3807631b7a671104ce4df3bdc070de9cecf808916109ba91611ead565b60405180910390a150565b6109cd611396565b600380600d5460ff1660038111156109e7576109e7611e97565b14610a05576040516314f654af60e11b815260040160405180910390fd5b6010546301000000900460ff1615610a305760405163051c2e5f60e51b815260040160405180910390fd5b6126ff610a3c600e5490565b610a47906001612018565b1115610a665760405163610323c760e01b815260040160405180910390fd5b670de0b6b3a7640000341015610a8f5760405163a95ff08160e01b815260040160405180910390fd5b6000610a9a600e5490565b610aa5906001612018565b6000818152601260205260409020805460ff19166001908117909155600e805490910190559050610ad633826113c0565b5050610ae26001600855565b565b610aec611369565b80600a5403610b0e5760405163e408fb4960e01b815260040160405180910390fd5b600a55565b6001600160a01b038216610b3d57604051633250574960e11b815260006004820152602401610938565b6000610b4a8383336113da565b9050836001600160a01b0316816001600160a01b031614610b98576040516364283d7b60e01b81526001600160a01b0380861660048301526024820184905282166044820152606401610938565b50505050565b60008281526001602090815260408083208151808301909252546001600160a01b038116808352600160a01b9091046001600160601b0316928201929092528291610c135750604080518082019091526000546001600160a01b0381168252600160a01b90046001600160601b031660208201525b602081015160009061271090610c32906001600160601b03168761202b565b610c3c9190612042565b915196919550909350505050565b610c65838383604051806020016040528060008152506110e2565b505050565b610c72611369565b600180600d5460ff166003811115610c8c57610c8c611e97565b14610caa576040516314f654af60e11b815260040160405180910390fd5b60105460ff1615610cfd5760405162461bcd60e51b815260206004820152601760248201527f5a65726f4461795f5f70726553616c65644265666f72650000000000000000006044820152606401610938565b600a544263ffffffff1610158015610d1c5750600b544263ffffffff16105b610d3957604051635c700aa760e11b815260040160405180910390fd5b6010805460ff191660019081179091556040517f6e95ed764170cfef59dda5e1ac3807631b7a671104ce4df3bdc070de9cecf808916109ba91611ead565b600061075282611323565b60006001600160a01b038216610dae576040516322718ad960e21b815260006004820152602401610938565b506001600160a01b031660009081526005602052604090205490565b610dd2611369565b610ae260006114d3565b610de4611369565b80600b5403610e065760405163e408fb4960e01b815260040160405180910390fd5b600b55565b60606003805461076790611fc8565b610e22611396565b600180600d5460ff166003811115610e3c57610e3c611e97565b14610e5a576040516314f654af60e11b815260040160405180910390fd5b6010546301000000900460ff1615610e855760405163051c2e5f60e51b815260040160405180910390fd5b6126ff610e91600e5490565b610e9c906001612018565b1115610ebb5760405163610323c760e01b815260040160405180910390fd5b7f0000000000000000000000000000000000000000000000000000000000000000341015610efc5760405163a95ff08160e01b815260040160405180910390fd5b8151600003610f1e576040516301696f4160e11b815260040160405180910390fd5b3360009081526011602052604090205460ff1615610f4f5760405163269727ef60e01b815260040160405180910390fd5b336000818152601160205260409020805460ff19166001179055610f74908390611525565b6040513381527f0f07877447a50a723845caebf5eda4c73988d5d4cd4392e276160d5959d7f9c09060200160405180910390a150610fb26001600855565b50565b61081e3383836115ba565b610fc8611369565b600180600d5460ff166003811115610fe257610fe2611e97565b14611000576040516314f654af60e11b815260040160405180910390fd5b601054610100900460ff16156110585760405162461bcd60e51b815260206004820152601760248201527f5a65726f4461795f5f52656576616c65644265666f72650000000000000000006044820152606401610938565b600b544263ffffffff16101580156110775750600c544263ffffffff16105b611094576040516325a781f160e11b815260040160405180910390fd5b6010805461ff001916610100179055600d8054600260ff1990911681179091556040517f6e95ed764170cfef59dda5e1ac3807631b7a671104ce4df3bdc070de9cecf808916109ba91611ead565b6110ed848484610b13565b610b9884848484611659565b611101611369565b80600c54036111235760405163e408fb4960e01b815260040160405180910390fd5b600c55565b60008181526012602052604090205460609060ff1661115a576040516306009da560e01b815260040160405180910390fd5b604080518082019091526005815264173539b7b760d91b602082015260006111aa60408051808201909152601581527468747470733a2f2f697066732e696f2f697066732f60581b602082015290565b905060008151116111ca57604051806020016040528060008152506111f7565b806111d485611782565b836040516020016111e793929190612064565b6040516020818303038152906040525b949350505050565b6001600160a01b03918216600090815260076020908152604080832093909416825291909152205460ff1690565b611235611369565b600f54810361125757604051632546ab2360e21b815260040160405180910390fd5b600f8190556040518181527f72bc5e181bb490da5a7c279c8dbfb225cabd111f78ed2ffc2c1953ad9ce9875b906020016109ba565b611294611369565b6001600160a01b0381161580156112b957506009546001600160a01b03828116911614155b156112da57604051631e4fbdf760e01b815260006004820152602401610938565b610fb2816114d3565b60006001600160e01b031982166380ac58cd60e01b148061131457506001600160e01b03198216635b5e139f60e01b145b80610752575061075282611815565b6000818152600460205260408120546001600160a01b03168061075257604051637e27328960e01b815260048101849052602401610938565b610c65838383600161184a565b6009546001600160a01b03163314610ae25760405163118cdaa760e01b8152336004820152602401610938565b6002600854036113b957604051633ee5aeb560e01b815260040160405180910390fd5b6002600855565b61081e828260405180602001604052806000815250611950565b6000828152600460205260408120546001600160a01b039081169083161561140757611407818486611967565b6001600160a01b038116156114455761142460008560008061184a565b6001600160a01b038116600090815260056020526040902080546000190190555b6001600160a01b03851615611474576001600160a01b0385166000908152600560205260409020805460010190555b60008481526004602052604080822080546001600160a01b0319166001600160a01b0389811691821790925591518793918516917fddf252ad1be2c89b69c2b068fc378daa952ba7f163c4a11628f55a4df523b3ef91a4949350505050565b600980546001600160a01b038381166001600160a01b0319831681179093556040519116919082907f8be0079c531659141344cd1fd0a4f28419497f9722a3daafe3b4186f6b6457e090600090a35050565b6040516bffffffffffffffffffffffff19606083901b16602082015260009060340160405160208183030381529060405280519060200120905061156c83600f54836119cb565b61159457604051632ef744ed60e01b81526001600160a01b0383166004820152602401610938565b600e80546001019055610c65826115aa600e5490565b6115b5906001612018565b6113c0565b6001600160a01b0382166115ec57604051630b61174360e31b81526001600160a01b0383166004820152602401610938565b6001600160a01b03838116600081815260076020908152604080832094871680845294825291829020805460ff191686151590811790915591519182527f17307eab39ab6107e8899845ad3d59bd9653f200f220920489ca2b5937696c31910160405180910390a3505050565b6001600160a01b0383163b15610b9857604051630a85bd0160e11b81526001600160a01b0384169063150b7a029061169b9033908890879087906004016120a7565b6020604051808303816000875af19250505080156116d6575060408051601f3d908101601f191682019092526116d3918101906120e4565b60015b61173f573d808015611704576040519150601f19603f3d011682016040523d82523d6000602084013e611709565b606091505b50805160000361173757604051633250574960e11b81526001600160a01b0385166004820152602401610938565b805181602001fd5b6001600160e01b03198116630a85bd0160e11b1461177b57604051633250574960e11b81526001600160a01b0385166004820152602401610938565b5050505050565b6060600061178f836119e1565b600101905060008167ffffffffffffffff8111156117af576117af611d6e565b6040519080825280601f01601f1916602001820160405280156117d9576020820181803683370190505b5090508181016020015b600019016f181899199a1a9b1b9c1cb0b131b232b360811b600a86061a8153600a85049450846117e357509392505050565b60006001600160e01b0319821663152a902d60e11b148061075257506301ffc9a760e01b6001600160e01b0319831614610752565b808061185e57506001600160a01b03821615155b1561192057600061186e84611323565b90506001600160a01b0383161580159061189a5750826001600160a01b0316816001600160a01b031614155b80156118ad57506118ab81846111ff565b155b156118d65760405163a9fbf51f60e01b81526001600160a01b0384166004820152602401610938565b811561191e5783856001600160a01b0316826001600160a01b03167f8c5be1e5ebec7d5bd14f71427d1e84f3dd0314c0f7b2291e5b200ac8c7c3b92560405160405180910390a45b505b5050600090815260066020526040902080546001600160a01b0319166001600160a01b0392909216919091179055565b61195a8383611ab9565b610c656000848484611659565b611972838383611b1e565b610c65576001600160a01b0383166119a057604051637e27328960e01b815260048101829052602401610938565b60405163177e802f60e01b81526001600160a01b038316600482015260248101829052604401610938565b6000826119d88584611b81565b14949350505050565b60008072184f03e93ff9f4daa797ed6e38ed64bf6a1f0160401b8310611a205772184f03e93ff9f4daa797ed6e38ed64bf6a1f0160401b830492506040015b6d04ee2d6d415b85acef81000000008310611a4c576d04ee2d6d415b85acef8100000000830492506020015b662386f26fc100008310611a6a57662386f26fc10000830492506010015b6305f5e1008310611a82576305f5e100830492506008015b6127108310611a9657612710830492506004015b60648310611aa8576064830492506002015b600a83106107525760010192915050565b6001600160a01b038216611ae357604051633250574960e11b815260006004820152602401610938565b6000611af1838360006113da565b90506001600160a01b03811615610c65576040516339e3563760e11b815260006004820152602401610938565b60006001600160a01b038316158015906111f75750826001600160a01b0316846001600160a01b03161480611b585750611b5884846111ff565b806111f75750506000908152600660205260409020546001600160a01b03908116911614919050565b600081815b8451811015611bc657611bb282868381518110611ba557611ba5612101565b6020026020010151611bce565b915080611bbe81612117565b915050611b86565b509392505050565b6000818310611bea576000828152602084905260409020611bf9565b60008381526020839052604090205b9392505050565b6001600160e01b031981168114610fb257600080fd5b600060208284031215611c2857600080fd5b8135611bf981611c00565b60005b83811015611c4e578181015183820152602001611c36565b50506000910152565b60008151808452611c6f816020860160208601611c33565b601f01601f19169290920160200192915050565b602081526000611bf96020830184611c57565b600060208284031215611ca857600080fd5b5035919050565b80356001600160a01b0381168114611cc657600080fd5b919050565b60008060408385031215611cde57600080fd5b611ce783611caf565b946020939093013593505050565b600080600060608486031215611d0a57600080fd5b611d1384611caf565b9250611d2160208501611caf565b9150604084013590509250925092565b60008060408385031215611d4457600080fd5b50508035926020909101359150565b600060208284031215611d6557600080fd5b611bf982611caf565b634e487b7160e01b600052604160045260246000fd5b604051601f8201601f1916810167ffffffffffffffff81118282101715611dad57611dad611d6e565b604052919050565b60006020808385031215611dc857600080fd5b823567ffffffffffffffff80821115611de057600080fd5b818501915085601f830112611df457600080fd5b813581811115611e0657611e06611d6e565b8060051b9150611e17848301611d84565b8181529183018401918481019088841115611e3157600080fd5b938501935b83851015611e4f57843582529385019390850190611e36565b98975050505050505050565b60008060408385031215611e6e57600080fd5b611e7783611caf565b915060208301358015158114611e8c57600080fd5b809150509250929050565b634e487b7160e01b600052602160045260246000fd5b6020810160048310611ecf57634e487b7160e01b600052602160045260246000fd5b91905290565b60008060008060808587031215611eeb57600080fd5b611ef485611caf565b93506020611f03818701611caf565b935060408601359250606086013567ffffffffffffffff80821115611f2757600080fd5b818801915088601f830112611f3b57600080fd5b813581811115611f4d57611f4d611d6e565b611f5f601f8201601f19168501611d84565b91508082528984828501011115611f7557600080fd5b808484018584013760008482840101525080935050505092959194509250565b60008060408385031215611fa857600080fd5b611fb183611caf565b9150611fbf60208401611caf565b90509250929050565b600181811c90821680611fdc57607f821691505b602082108103611ffc57634e487b7160e01b600052602260045260246000fd5b50919050565b634e487b7160e01b600052601160045260246000fd5b8082018082111561075257610752612002565b808202811582820484141761075257610752612002565b60008261205f57634e487b7160e01b600052601260045260246000fd5b500490565b60008451612076818460208901611c33565b84519083019061208a818360208901611c33565b845191019061209d818360208801611c33565b0195945050505050565b6001600160a01b03858116825284166020820152604081018390526080606082018190526000906120da90830184611c57565b9695505050505050565b6000602082840312156120f657600080fd5b8151611bf981611c00565b634e487b7160e01b600052603260045260246000fd5b60006001820161212957612129612002565b506001019056fea2646970667358221220a6831e8035eb61b192d3da5ae3666c870e8b45ce3eaafac97225110011b0722464736f6c63430008140033","linkReferences":{}},"methodIdentifiers":{"COLLECTION_MAX_SUPPLY()":"b1164e83","PUBLIC_SALE_MINT_PRICE()":"f843ae41","approve(address,uint256)":"095ea7b3","balanceOf(address)":"70a08231","changeMerkleRoot(bytes32)":"ebcea3db","changePhaseLock()":"0b2cc5e4","changePreSaleDate(uint256)":"1c973835","changePublicSaleDate(uint256)":"be35057d","changeRevealDate(uint256)":"94d2717d","getApproved(uint256)":"081812fc","getCurrentPhase()":"a3a40ea5","getMerkleRoot()":"49590657","getPreSaled()":"d71f41be","getPublicSaled()":"e93e73bb","getRevealed()":"94cc4140","getStartPreSaleDate()":"3fd4f8a4","getStartPublicSaleDate()":"d26a8b95","getStartRevealDate()":"2052d2e9","getWhiteListMinterStatus(address)":"692c4d72","init_pre_sale_price()":"1d25d583","isApprovedForAll(address,address)":"e985e9c5","mintNFT()":"14f710fe","name()":"06fdde03","owner()":"8da5cb5b","ownerOf(uint256)":"6352211e","renounceOwnership()":"715018a6","royaltyInfo(uint256,uint256)":"2a55205a","safeTransferFrom(address,address,uint256)":"42842e0e","safeTransferFrom(address,address,uint256,bytes)":"b88d4fde","setApprovalForAll(address,bool)":"a22cb465","startPreSale()":"55dd574c","startPublicSale()":"0c1c972a","startReveal()":"ad72202b","supportsInterface(bytes4)":"01ffc9a7","symbol()":"95d89b41","tokenIdMinted(uint256)":"c1d4f2f9","tokenURI(uint256)":"c87b56dd","totalSupply()":"18160ddd","transferFrom(address,address,uint256)":"23b872dd","transferOwnership(address)":"f2fde38b","whiteListMint(bytes32[])":"97254e55"},"id":46}