{"abi":[{"type":"constructor","inputs":[{"name":"_init_pre_sale_price","type":"uint256","internalType":"uint256"},{"name":"_startPreSaleDate","type":"uint256","internalType":"uint256"},{"name":"_startRevealDate","type":"uint256","internalType":"uint256"},{"name":"_startPublicSaleDate","type":"uint256","internalType":"uint256"},{"name":"_merkle_root","type":"bytes32","internalType":"bytes32"}],"stateMutability":"nonpayable"},{"type":"function","name":"COLLECTION_MAX_SUPPLY","inputs":[],"outputs":[{"name":"","type":"uint256","internalType":"uint256"}],"stateMutability":"view"},{"type":"function","name":"PUBLIC_SALE_PRICE","inputs":[],"outputs":[{"name":"","type":"uint256","internalType":"uint256"}],"stateMutability":"view"},{"type":"function","name":"WHITELIST_PRICE","inputs":[],"outputs":[{"name":"","type":"uint256","internalType":"uint256"}],"stateMutability":"view"},{"type":"function","name":"approve","inputs":[{"name":"to","type":"address","internalType":"address"},{"name":"tokenId","type":"uint256","internalType":"uint256"}],"outputs":[],"stateMutability":"nonpayable"},{"type":"function","name":"balanceOf","inputs":[{"name":"owner","type":"address","internalType":"address"}],"outputs":[{"name":"","type":"uint256","internalType":"uint256"}],"stateMutability":"view"},{"type":"function","name":"changeMerkleRoot","inputs":[{"name":"_newMerkleRoot","type":"bytes32","internalType":"bytes32"}],"outputs":[],"stateMutability":"nonpayable"},{"type":"function","name":"getApproved","inputs":[{"name":"tokenId","type":"uint256","internalType":"uint256"}],"outputs":[{"name":"","type":"address","internalType":"address"}],"stateMutability":"view"},{"type":"function","name":"getCurrentPhase","inputs":[],"outputs":[{"name":"","type":"uint8","internalType":"enum IZeroDay.PHASE"}],"stateMutability":"view"},{"type":"function","name":"getMerkleRoot","inputs":[],"outputs":[{"name":"","type":"bytes32","internalType":"bytes32"}],"stateMutability":"view"},{"type":"function","name":"getPreSaled","inputs":[],"outputs":[{"name":"","type":"bool","internalType":"bool"}],"stateMutability":"view"},{"type":"function","name":"getPublicSaled","inputs":[],"outputs":[{"name":"","type":"bool","internalType":"bool"}],"stateMutability":"view"},{"type":"function","name":"getRevealed","inputs":[],"outputs":[{"name":"","type":"bool","internalType":"bool"}],"stateMutability":"view"},{"type":"function","name":"getTokenURI","inputs":[{"name":"_tokenId","type":"uint256","internalType":"uint256"}],"outputs":[{"name":"","type":"string","internalType":"string"}],"stateMutability":"view"},{"type":"function","name":"getWhiteListMinterStatus","inputs":[{"name":"_minter","type":"address","internalType":"address"}],"outputs":[{"name":"","type":"bool","internalType":"bool"}],"stateMutability":"view"},{"type":"function","name":"i_init_pre_sale_price","inputs":[],"outputs":[{"name":"","type":"uint256","internalType":"uint256"}],"stateMutability":"view"},{"type":"function","name":"i_startPreSaleDate","inputs":[],"outputs":[{"name":"","type":"uint256","internalType":"uint256"}],"stateMutability":"view"},{"type":"function","name":"i_startPublicSaleDate","inputs":[],"outputs":[{"name":"","type":"uint256","internalType":"uint256"}],"stateMutability":"view"},{"type":"function","name":"i_startRevealDate","inputs":[],"outputs":[{"name":"","type":"uint256","internalType":"uint256"}],"stateMutability":"view"},{"type":"function","name":"isApprovedForAll","inputs":[{"name":"owner","type":"address","internalType":"address"},{"name":"operator","type":"address","internalType":"address"}],"outputs":[{"name":"","type":"bool","internalType":"bool"}],"stateMutability":"view"},{"type":"function","name":"mintNFT","inputs":[{"name":"_tokenURI","type":"string","internalType":"string"}],"outputs":[],"stateMutability":"nonpayable"},{"type":"function","name":"name","inputs":[],"outputs":[{"name":"","type":"string","internalType":"string"}],"stateMutability":"view"},{"type":"function","name":"owner","inputs":[],"outputs":[{"name":"","type":"address","internalType":"address"}],"stateMutability":"view"},{"type":"function","name":"ownerOf","inputs":[{"name":"tokenId","type":"uint256","internalType":"uint256"}],"outputs":[{"name":"","type":"address","internalType":"address"}],"stateMutability":"view"},{"type":"function","name":"renounceOwnership","inputs":[],"outputs":[],"stateMutability":"nonpayable"},{"type":"function","name":"royaltyInfo","inputs":[{"name":"tokenId","type":"uint256","internalType":"uint256"},{"name":"salePrice","type":"uint256","internalType":"uint256"}],"outputs":[{"name":"","type":"address","internalType":"address"},{"name":"","type":"uint256","internalType":"uint256"}],"stateMutability":"view"},{"type":"function","name":"safeTransferFrom","inputs":[{"name":"from","type":"address","internalType":"address"},{"name":"to","type":"address","internalType":"address"},{"name":"tokenId","type":"uint256","internalType":"uint256"}],"outputs":[],"stateMutability":"nonpayable"},{"type":"function","name":"safeTransferFrom","inputs":[{"name":"from","type":"address","internalType":"address"},{"name":"to","type":"address","internalType":"address"},{"name":"tokenId","type":"uint256","internalType":"uint256"},{"name":"data","type":"bytes","internalType":"bytes"}],"outputs":[],"stateMutability":"nonpayable"},{"type":"function","name":"setApprovalForAll","inputs":[{"name":"operator","type":"address","internalType":"address"},{"name":"approved","type":"bool","internalType":"bool"}],"outputs":[],"stateMutability":"nonpayable"},{"type":"function","name":"startPreSale","inputs":[],"outputs":[],"stateMutability":"nonpayable"},{"type":"function","name":"startPublicSale","inputs":[],"outputs":[],"stateMutability":"nonpayable"},{"type":"function","name":"startReveal","inputs":[],"outputs":[],"stateMutability":"nonpayable"},{"type":"function","name":"supportsInterface","inputs":[{"name":"interfaceId","type":"bytes4","internalType":"bytes4"}],"outputs":[{"name":"","type":"bool","internalType":"bool"}],"stateMutability":"view"},{"type":"function","name":"symbol","inputs":[],"outputs":[{"name":"","type":"string","internalType":"string"}],"stateMutability":"view"},{"type":"function","name":"tokenURI","inputs":[{"name":"_tokenId","type":"uint256","internalType":"uint256"}],"outputs":[{"name":"","type":"string","internalType":"string"}],"stateMutability":"view"},{"type":"function","name":"totalSupply","inputs":[],"outputs":[{"name":"","type":"uint256","internalType":"uint256"}],"stateMutability":"view"},{"type":"function","name":"transferFrom","inputs":[{"name":"from","type":"address","internalType":"address"},{"name":"to","type":"address","internalType":"address"},{"name":"tokenId","type":"uint256","internalType":"uint256"}],"outputs":[],"stateMutability":"nonpayable"},{"type":"function","name":"transferOwnership","inputs":[{"name":"newOwner","type":"address","internalType":"address"}],"outputs":[],"stateMutability":"nonpayable"},{"type":"function","name":"whiteListMint","inputs":[{"name":"_merkleProof","type":"bytes32[]","internalType":"bytes32[]"}],"outputs":[],"stateMutability":"nonpayable"},{"type":"event","name":"Approval","inputs":[{"name":"owner","type":"address","indexed":true,"internalType":"address"},{"name":"approved","type":"address","indexed":true,"internalType":"address"},{"name":"tokenId","type":"uint256","indexed":true,"internalType":"uint256"}],"anonymous":false},{"type":"event","name":"ApprovalForAll","inputs":[{"name":"owner","type":"address","indexed":true,"internalType":"address"},{"name":"operator","type":"address","indexed":true,"internalType":"address"},{"name":"approved","type":"bool","indexed":false,"internalType":"bool"}],"anonymous":false},{"type":"event","name":"MintedInWhiteList","inputs":[{"name":"minter","type":"address","indexed":false,"internalType":"address"}],"anonymous":false},{"type":"event","name":"OwnershipTransferred","inputs":[{"name":"previousOwner","type":"address","indexed":true,"internalType":"address"},{"name":"newOwner","type":"address","indexed":true,"internalType":"address"}],"anonymous":false},{"type":"event","name":"Transfer","inputs":[{"name":"from","type":"address","indexed":true,"internalType":"address"},{"name":"to","type":"address","indexed":true,"internalType":"address"},{"name":"tokenId","type":"uint256","indexed":true,"internalType":"uint256"}],"anonymous":false},{"type":"event","name":"merkleRootChanged","inputs":[{"name":"newMerkleRoot","type":"bytes32","indexed":false,"internalType":"bytes32"}],"anonymous":false},{"type":"event","name":"phaseChanged","inputs":[{"name":"phase","type":"uint8","indexed":false,"internalType":"enum IZeroDay.PHASE"}],"anonymous":false},{"type":"error","name":"ERC2981InvalidDefaultRoyalty","inputs":[{"name":"numerator","type":"uint256","internalType":"uint256"},{"name":"denominator","type":"uint256","internalType":"uint256"}]},{"type":"error","name":"ERC2981InvalidDefaultRoyaltyReceiver","inputs":[{"name":"receiver","type":"address","internalType":"address"}]},{"type":"error","name":"ERC2981InvalidTokenRoyalty","inputs":[{"name":"tokenId","type":"uint256","internalType":"uint256"},{"name":"numerator","type":"uint256","internalType":"uint256"},{"name":"denominator","type":"uint256","internalType":"uint256"}]},{"type":"error","name":"ERC2981InvalidTokenRoyaltyReceiver","inputs":[{"name":"tokenId","type":"uint256","internalType":"uint256"},{"name":"receiver","type":"address","internalType":"address"}]},{"type":"error","name":"ERC721IncorrectOwner","inputs":[{"name":"sender","type":"address","internalType":"address"},{"name":"tokenId","type":"uint256","internalType":"uint256"},{"name":"owner","type":"address","internalType":"address"}]},{"type":"error","name":"ERC721InsufficientApproval","inputs":[{"name":"operator","type":"address","internalType":"address"},{"name":"tokenId","type":"uint256","internalType":"uint256"}]},{"type":"error","name":"ERC721InvalidApprover","inputs":[{"name":"approver","type":"address","internalType":"address"}]},{"type":"error","name":"ERC721InvalidOperator","inputs":[{"name":"operator","type":"address","internalType":"address"}]},{"type":"error","name":"ERC721InvalidOwner","inputs":[{"name":"owner","type":"address","internalType":"address"}]},{"type":"error","name":"ERC721InvalidReceiver","inputs":[{"name":"receiver","type":"address","internalType":"address"}]},{"type":"error","name":"ERC721InvalidSender","inputs":[{"name":"sender","type":"address","internalType":"address"}]},{"type":"error","name":"ERC721NonexistentToken","inputs":[{"name":"tokenId","type":"uint256","internalType":"uint256"}]},{"type":"error","name":"OwnableInvalidOwner","inputs":[{"name":"owner","type":"address","internalType":"address"}]},{"type":"error","name":"OwnableUnauthorizedAccount","inputs":[{"name":"account","type":"address","internalType":"address"}]},{"type":"error","name":"ReentrancyGuardReentrantCall","inputs":[]},{"type":"error","name":"ZeroDay__AlreadyMintedInWhiteList","inputs":[]},{"type":"error","name":"ZeroDay__ExceedsMaxSupply","inputs":[]},{"type":"error","name":"ZeroDay__MerkleProofHashesAreEmpty","inputs":[]},{"type":"error","name":"ZeroDay__NewMerkleRootHasSameNameWithOldMerkleRoot","inputs":[]},{"type":"error","name":"ZeroDay__PreSaleDateNotReached","inputs":[]},{"type":"error","name":"ZeroDay__PublicSaleDateNotReached","inputs":[]},{"type":"error","name":"ZeroDay__RevealDateNotReached","inputs":[]},{"type":"error","name":"ZeroDay__UserNotIncludedInWhiteList","inputs":[{"name":"user","type":"address","internalType":"address"}]},{"type":"error","name":"ZeroDay__WeAreNotInThisPhase","inputs":[]},{"type":"error","name":"ZeroDay__tokenIdHasNotMinted","inputs":[{"name":"tokenId","type":"uint256","internalType":"uint256"}]}],"bytecode":{"object":"0x6101006040523480156200001257600080fd5b50604051620024833803806200248383398101604081905262000035916200015e565b33604051806040016040528060078152602001665a65726f44617960c81b815250604051806040016040528060048152602001635a45524f60e01b815250816002908162000084919062000244565b50600362000093828262000244565b50506001600855506001600160a01b038116620000ca57604051631e4fbdf760e01b81526000600482015260240160405180910390fd5b620000d5816200010c565b5060809490945260a09290925260e09190915260c052600b556009805460ff60a01b1916600160a01b1790556000600a5562000310565b600980546001600160a01b038381166001600160a01b0319831681179093556040519116919082907f8be0079c531659141344cd1fd0a4f28419497f9722a3daafe3b4186f6b6457e090600090a35050565b600080600080600060a086880312156200017757600080fd5b5050835160208501516040860151606087015160809097015192989197509594509092509050565b634e487b7160e01b600052604160045260246000fd5b600181811c90821680620001ca57607f821691505b602082108103620001eb57634e487b7160e01b600052602260045260246000fd5b50919050565b601f8211156200023f57600081815260208120601f850160051c810160208610156200021a5750805b601f850160051c820191505b818110156200023b5782815560010162000226565b5050505b505050565b81516001600160401b038111156200026057620002606200019f565b6200027881620002718454620001b5565b84620001f1565b602080601f831160018114620002b05760008415620002975750858301515b600019600386901b1c1916600185901b1785556200023b565b600085815260208120601f198616915b82811015620002e157888601518255948401946001909101908401620002c0565b5085821015620003005787850151600019600388901b60f8161c191681555b5050505050600190811b01905550565b60805160a05160c05160e0516121166200036d600039600081816102de015281816106eb0152610d6001526000818161054701528181610a560152610d2f0152600081816103be0152610a250152600061038701526121166000f3fe608060405234801561001057600080fd5b50600436106102325760003560e01c806370a0823111610130578063b1164e83116100b8578063e985e9c51161007c578063e985e9c5146104f6578063ebcea3db14610509578063f2fde38b1461051c578063fb37e8831461052f578063fc3602f11461054257600080fd5b8063b1164e83146104ab578063b88d4fde146104b4578063c87b56dd146104c7578063d71f41be146104da578063e93e73bb146104e557600080fd5b806395d89b41116100ff57806395d89b411461045b57806397254e5514610463578063a22cb46514610476578063a3a40ea514610489578063ad72202b146104a357600080fd5b806370a082311461041f578063715018a6146104325780638da5cb5b1461043a57806394cc41401461044b57600080fd5b806323b872dd116101be578063495906571161018257806349590657146103a957806355dd574c146103b15780635f6266de146103b95780636352211e146103e0578063692c4d72146103f357600080fd5b806323b872dd146103175780632a55205a1461032a5780633bb3a24d1461035c57806342842e0e1461036f57806345dce0bd1461038257600080fd5b8063095ea7b311610205578063095ea7b3146102bc5780630c1c972a146102d1578063104d41c0146102d957806317e7f2951461030057806318160ddd1461030f57600080fd5b806301ffc9a71461023757806306fdde031461025f57806307e89ec014610274578063081812fc14610291575b600080fd5b61024a610245366004611a4e565b610569565b60405190151581526020015b60405180910390f35b61026761057a565b6040516102569190611abb565b610283670de0b6b3a764000081565b604051908152602001610256565b6102a461029f366004611ace565b61060c565b6040516001600160a01b039091168152602001610256565b6102cf6102ca366004611b03565b610635565b005b6102cf610644565b6102837f000000000000000000000000000000000000000000000000000000000000000081565b6102836706f05b59d3b2000081565b600a54610283565b6102cf610325366004611b2d565b610790565b61033d610338366004611b69565b61081b565b604080516001600160a01b039093168352602083019190915201610256565b61026761036a366004611ace565b6108c7565b6102cf61037d366004611b2d565b610969565b6102837f000000000000000000000000000000000000000000000000000000000000000081565b600b54610283565b6102cf610989565b6102837f000000000000000000000000000000000000000000000000000000000000000081565b6102a46103ee366004611ace565b610ad9565b61024a610401366004611b8b565b6001600160a01b03166000908152600d602052604090205460ff1690565b61028361042d366004611b8b565b610ae4565b6102cf610b2c565b6009546001600160a01b03166102a4565b600c54610100900460ff1661024a565b610267610b40565b6102cf610471366004611bed565b610b4f565b6102cf610484366004611c93565b610c83565b600954600160a01b900460ff166040516102569190611ce5565b6102cf610c8e565b6102836126ff81565b6102cf6104c2366004611d65565b610df8565b6102676104d5366004611ace565b610e0f565b600c5460ff1661024a565b600c5462010000900460ff1661024a565b61024a610504366004611de1565b610f31565b6102cf610517366004611ace565b610f5f565b6102cf61052a366004611b8b565b610fbe565b6102cf61053d366004611e14565b610ff9565b6102837f000000000000000000000000000000000000000000000000000000000000000081565b600061057482611118565b92915050565b60606002805461058990611e5d565b80601f01602080910402602001604051908101604052809291908181526020018280546105b590611e5d565b80156106025780601f106105d757610100808354040283529160200191610602565b820191906000526020600020905b8154815290600101906020018083116105e557829003601f168201915b5050505050905090565b600061061782611158565b506000828152600660205260409020546001600160a01b0316610574565b610640828233611191565b5050565b61064c61119e565b600280600954600160a01b900460ff16600381111561066d5761066d611ccf565b1461068b576040516314f654af60e11b815260040160405180910390fd5b600c5462010000900460ff16156106e95760405162461bcd60e51b815260206004820152601a60248201527f5a65726f4461795f5f7075626c696353616c65644265666f726500000000000060448201526064015b60405180910390fd5b7f00000000000000000000000000000000000000000000000000000000000000004263ffffffff16101561073057604051632ed53c1b60e11b815260040160405180910390fd5b600c805462ff00001916620100001790556009805460ff60a01b1916600360a01b1790556040517f6e95ed764170cfef59dda5e1ac3807631b7a671104ce4df3bdc070de9cecf8089061078590600390611ce5565b60405180910390a150565b6001600160a01b0382166107ba57604051633250574960e11b8152600060048201526024016106e0565b60006107c78383336111cb565b9050836001600160a01b0316816001600160a01b031614610815576040516364283d7b60e01b81526001600160a01b03808616600483015260248201849052821660448201526064016106e0565b50505050565b60008281526001602090815260408083208151808301909252546001600160a01b038116808352600160a01b9091046001600160601b03169282019290925282916108905750604080518082019091526000546001600160a01b0381168252600160a01b90046001600160601b031660208201525b6020810151600090612710906108af906001600160601b031687611ead565b6108b99190611ec4565b915196919550909350505050565b6000818152600e602052604090208054606091906108e490611e5d565b80601f016020809104026020016040519081016040528092919081815260200182805461091090611e5d565b801561095d5780601f106109325761010080835404028352916020019161095d565b820191906000526020600020905b81548152906001019060200180831161094057829003601f168201915b50505050509050919050565b61098483838360405180602001604052806000815250610df8565b505050565b61099161119e565b600180600954600160a01b900460ff1660038111156109b2576109b2611ccf565b146109d0576040516314f654af60e11b815260040160405180910390fd5b600c5460ff1615610a235760405162461bcd60e51b815260206004820152601760248201527f5a65726f4461795f5f70726553616c65644265666f726500000000000000000060448201526064016106e0565b7f00000000000000000000000000000000000000000000000000000000000000004263ffffffff1610158015610a7e57507f00000000000000000000000000000000000000000000000000000000000000004263ffffffff16105b610a9b57604051635c700aa760e11b815260040160405180910390fd5b600c805460ff191660019081179091556040517f6e95ed764170cfef59dda5e1ac3807631b7a671104ce4df3bdc070de9cecf8089161078591611ce5565b600061057482611158565b60006001600160a01b038216610b10576040516322718ad960e21b8152600060048201526024016106e0565b506001600160a01b031660009081526005602052604090205490565b610b3461119e565b610b3e60006112c4565b565b60606003805461058990611e5d565b610b57611316565b600180600954600160a01b900460ff166003811115610b7857610b78611ccf565b14610b96576040516314f654af60e11b815260040160405180910390fd5b6126ff610ba2600a5490565b610bad906001611ee6565b1115610bcc5760405163610323c760e01b815260040160405180910390fd5b815115610bec576040516301696f4160e11b815260040160405180910390fd5b336000908152600d602052604090205460ff1615610c1d5760405163269727ef60e01b815260040160405180910390fd5b336000818152600d60205260409020805460ff19166001179055610c42908390611340565b6040513381527f0f07877447a50a723845caebf5eda4c73988d5d4cd4392e276160d5959d7f9c09060200160405180910390a150610c806001600855565b50565b6106403383836113d5565b610c9661119e565b600180600954600160a01b900460ff166003811115610cb757610cb7611ccf565b14610cd5576040516314f654af60e11b815260040160405180910390fd5b600c54610100900460ff1615610d2d5760405162461bcd60e51b815260206004820152601760248201527f5a65726f4461795f5f52656576616c65644265666f726500000000000000000060448201526064016106e0565b7f00000000000000000000000000000000000000000000000000000000000000004263ffffffff1610158015610d8857507f00000000000000000000000000000000000000000000000000000000000000004263ffffffff16105b610da5576040516325a781f160e11b815260040160405180910390fd5b600c805461ff0019166101001790556009805460ff60a01b1916600160a11b1790556040517f6e95ed764170cfef59dda5e1ac3807631b7a671104ce4df3bdc070de9cecf8089061078590600290611ce5565b610e03848484610790565b61081584848484611474565b6000818152600e6020526040812080546060929190610e2d90611e5d565b80601f0160208091040260200160405190810160405280929190818152602001828054610e5990611e5d565b8015610ea65780601f10610e7b57610100808354040283529160200191610ea6565b820191906000526020600020905b815481529060010190602001808311610e8957829003601f168201915b505050505090508051600003610ed2576040516336b0abc560e01b8152600481018490526024016106e0565b60408051808201909152601581527468747470733a2f2f697066732e696f2f697066732f60581b602082015281610f088561159d565b604051602001610f1a93929190611ef9565b604051602081830303815290604052915050919050565b6001600160a01b03918216600090815260076020908152604080832093909416825291909152205460ff1690565b610f6761119e565b600b548103610f8957604051632546ab2360e21b815260040160405180910390fd5b600b8190556040518181527f72bc5e181bb490da5a7c279c8dbfb225cabd111f78ed2ffc2c1953ad9ce9875b90602001610785565b610fc661119e565b6001600160a01b038116610ff057604051631e4fbdf760e01b8152600060048201526024016106e0565b610c80816112c4565b611001611316565b600380600954600160a01b900460ff16600381111561102257611022611ccf565b14611040576040516314f654af60e11b815260040160405180910390fd5b6126ff61104c600a5490565b611057906001611ee6565b11156110765760405163610323c760e01b815260040160405180910390fd5b81516000036110c75760405162461bcd60e51b815260206004820152601860248201527f5a65726f4461795f5f496e76616c6964546f6b656e555249000000000000000060448201526064016106e0565b60006110d2600a5490565b6110dd906001611ee6565b6000818152600e602052604090209091506110f88482611f97565b50600a8054600101905561110c3382611630565b5050610c806001600855565b60006001600160e01b031982166380ac58cd60e01b148061114957506001600160e01b03198216635b5e139f60e01b145b8061057457506105748261164a565b6000818152600460205260408120546001600160a01b03168061057457604051637e27328960e01b8152600481018490526024016106e0565b610984838383600161167f565b6009546001600160a01b03163314610b3e5760405163118cdaa760e01b81523360048201526024016106e0565b6000828152600460205260408120546001600160a01b03908116908316156111f8576111f8818486611785565b6001600160a01b038116156112365761121560008560008061167f565b6001600160a01b038116600090815260056020526040902080546000190190555b6001600160a01b03851615611265576001600160a01b0385166000908152600560205260409020805460010190555b60008481526004602052604080822080546001600160a01b0319166001600160a01b0389811691821790925591518793918516917fddf252ad1be2c89b69c2b068fc378daa952ba7f163c4a11628f55a4df523b3ef91a4949350505050565b600980546001600160a01b038381166001600160a01b0319831681179093556040519116919082907f8be0079c531659141344cd1fd0a4f28419497f9722a3daafe3b4186f6b6457e090600090a35050565b60026008540361133957604051633ee5aeb560e01b815260040160405180910390fd5b6002600855565b6040516bffffffffffffffffffffffff19606083901b16602082015260009060340160405160208183030381529060405280519060200120905061138783600b54836117e9565b6113af57604051632ef744ed60e01b81526001600160a01b03831660048201526024016106e0565b600a80546001019055610984826113c5600a5490565b6113d0906001611ee6565b611630565b6001600160a01b03821661140757604051630b61174360e31b81526001600160a01b03831660048201526024016106e0565b6001600160a01b03838116600081815260076020908152604080832094871680845294825291829020805460ff191686151590811790915591519182527f17307eab39ab6107e8899845ad3d59bd9653f200f220920489ca2b5937696c31910160405180910390a3505050565b6001600160a01b0383163b1561081557604051630a85bd0160e11b81526001600160a01b0384169063150b7a02906114b6903390889087908790600401612057565b6020604051808303816000875af19250505080156114f1575060408051601f3d908101601f191682019092526114ee91810190612094565b60015b61155a573d80801561151f576040519150601f19603f3d011682016040523d82523d6000602084013e611524565b606091505b50805160000361155257604051633250574960e11b81526001600160a01b03851660048201526024016106e0565b805181602001fd5b6001600160e01b03198116630a85bd0160e11b1461159657604051633250574960e11b81526001600160a01b03851660048201526024016106e0565b5050505050565b606060006115aa836117ff565b600101905060008167ffffffffffffffff8111156115ca576115ca611ba6565b6040519080825280601f01601f1916602001820160405280156115f4576020820181803683370190505b5090508181016020015b600019016f181899199a1a9b1b9c1cb0b131b232b360811b600a86061a8153600a85049450846115fe57509392505050565b6106408282604051806020016040528060008152506118d7565b60006001600160e01b0319821663152a902d60e11b148061057457506301ffc9a760e01b6001600160e01b0319831614610574565b808061169357506001600160a01b03821615155b156117555760006116a384611158565b90506001600160a01b038316158015906116cf5750826001600160a01b0316816001600160a01b031614155b80156116e257506116e08184610f31565b155b1561170b5760405163a9fbf51f60e01b81526001600160a01b03841660048201526024016106e0565b81156117535783856001600160a01b0316826001600160a01b03167f8c5be1e5ebec7d5bd14f71427d1e84f3dd0314c0f7b2291e5b200ac8c7c3b92560405160405180910390a45b505b5050600090815260066020526040902080546001600160a01b0319166001600160a01b0392909216919091179055565b6117908383836118ee565b610984576001600160a01b0383166117be57604051637e27328960e01b8152600481018290526024016106e0565b60405163177e802f60e01b81526001600160a01b0383166004820152602481018290526044016106e0565b6000826117f68584611954565b14949350505050565b60008072184f03e93ff9f4daa797ed6e38ed64bf6a1f0160401b831061183e5772184f03e93ff9f4daa797ed6e38ed64bf6a1f0160401b830492506040015b6d04ee2d6d415b85acef8100000000831061186a576d04ee2d6d415b85acef8100000000830492506020015b662386f26fc10000831061188857662386f26fc10000830492506010015b6305f5e10083106118a0576305f5e100830492506008015b61271083106118b457612710830492506004015b606483106118c6576064830492506002015b600a83106105745760010192915050565b6118e183836119a1565b6109846000848484611474565b60006001600160a01b0383161580159061194c5750826001600160a01b0316846001600160a01b0316148061192857506119288484610f31565b8061194c57506000828152600660205260409020546001600160a01b038481169116145b949350505050565b600081815b84518110156119995761198582868381518110611978576119786120b1565b6020026020010151611a06565b915080611991816120c7565b915050611959565b509392505050565b6001600160a01b0382166119cb57604051633250574960e11b8152600060048201526024016106e0565b60006119d9838360006111cb565b90506001600160a01b03811615610984576040516339e3563760e11b8152600060048201526024016106e0565b6000818310611a22576000828152602084905260409020611a31565b60008381526020839052604090205b9392505050565b6001600160e01b031981168114610c8057600080fd5b600060208284031215611a6057600080fd5b8135611a3181611a38565b60005b83811015611a86578181015183820152602001611a6e565b50506000910152565b60008151808452611aa7816020860160208601611a6b565b601f01601f19169290920160200192915050565b602081526000611a316020830184611a8f565b600060208284031215611ae057600080fd5b5035919050565b80356001600160a01b0381168114611afe57600080fd5b919050565b60008060408385031215611b1657600080fd5b611b1f83611ae7565b946020939093013593505050565b600080600060608486031215611b4257600080fd5b611b4b84611ae7565b9250611b5960208501611ae7565b9150604084013590509250925092565b60008060408385031215611b7c57600080fd5b50508035926020909101359150565b600060208284031215611b9d57600080fd5b611a3182611ae7565b634e487b7160e01b600052604160045260246000fd5b604051601f8201601f1916810167ffffffffffffffff81118282101715611be557611be5611ba6565b604052919050565b60006020808385031215611c0057600080fd5b823567ffffffffffffffff80821115611c1857600080fd5b818501915085601f830112611c2c57600080fd5b813581811115611c3e57611c3e611ba6565b8060051b9150611c4f848301611bbc565b8181529183018401918481019088841115611c6957600080fd5b938501935b83851015611c8757843582529385019390850190611c6e565b98975050505050505050565b60008060408385031215611ca657600080fd5b611caf83611ae7565b915060208301358015158114611cc457600080fd5b809150509250929050565b634e487b7160e01b600052602160045260246000fd5b6020810160048310611d0757634e487b7160e01b600052602160045260246000fd5b91905290565b600067ffffffffffffffff831115611d2757611d27611ba6565b611d3a601f8401601f1916602001611bbc565b9050828152838383011115611d4e57600080fd5b828260208301376000602084830101529392505050565b60008060008060808587031215611d7b57600080fd5b611d8485611ae7565b9350611d9260208601611ae7565b925060408501359150606085013567ffffffffffffffff811115611db557600080fd5b8501601f81018713611dc657600080fd5b611dd587823560208401611d0d565b91505092959194509250565b60008060408385031215611df457600080fd5b611dfd83611ae7565b9150611e0b60208401611ae7565b90509250929050565b600060208284031215611e2657600080fd5b813567ffffffffffffffff811115611e3d57600080fd5b8201601f81018413611e4e57600080fd5b61194c84823560208401611d0d565b600181811c90821680611e7157607f821691505b602082108103611e9157634e487b7160e01b600052602260045260246000fd5b50919050565b634e487b7160e01b600052601160045260246000fd5b808202811582820484141761057457610574611e97565b600082611ee157634e487b7160e01b600052601260045260246000fd5b500490565b8082018082111561057457610574611e97565b60008451611f0b818460208901611a6b565b845190830190611f1f818360208901611a6b565b602f60f81b91019081528351611f3c816001840160208801611a6b565b0160010195945050505050565b601f82111561098457600081815260208120601f850160051c81016020861015611f705750805b601f850160051c820191505b81811015611f8f57828155600101611f7c565b505050505050565b815167ffffffffffffffff811115611fb157611fb1611ba6565b611fc581611fbf8454611e5d565b84611f49565b602080601f831160018114611ffa5760008415611fe25750858301515b600019600386901b1c1916600185901b178555611f8f565b600085815260208120601f198616915b828110156120295788860151825594840194600190910190840161200a565b50858210156120475787850151600019600388901b60f8161c191681555b5050505050600190811b01905550565b6001600160a01b038581168252841660208201526040810183905260806060820181905260009061208a90830184611a8f565b9695505050505050565b6000602082840312156120a657600080fd5b8151611a3181611a38565b634e487b7160e01b600052603260045260246000fd5b6000600182016120d9576120d9611e97565b506001019056fea264697066735822122096dcb57371e16ddc38b110a3402980996531285b29bc0091a01f25f6f66160d064736f6c63430008140033","linkReferences":{}},"methodIdentifiers":{"COLLECTION_MAX_SUPPLY()":"b1164e83","PUBLIC_SALE_PRICE()":"07e89ec0","WHITELIST_PRICE()":"17e7f295","approve(address,uint256)":"095ea7b3","balanceOf(address)":"70a08231","changeMerkleRoot(bytes32)":"ebcea3db","getApproved(uint256)":"081812fc","getCurrentPhase()":"a3a40ea5","getMerkleRoot()":"49590657","getPreSaled()":"d71f41be","getPublicSaled()":"e93e73bb","getRevealed()":"94cc4140","getTokenURI(uint256)":"3bb3a24d","getWhiteListMinterStatus(address)":"692c4d72","i_init_pre_sale_price()":"45dce0bd","i_startPreSaleDate()":"5f6266de","i_startPublicSaleDate()":"104d41c0","i_startRevealDate()":"fc3602f1","isApprovedForAll(address,address)":"e985e9c5","mintNFT(string)":"fb37e883","name()":"06fdde03","owner()":"8da5cb5b","ownerOf(uint256)":"6352211e","renounceOwnership()":"715018a6","royaltyInfo(uint256,uint256)":"2a55205a","safeTransferFrom(address,address,uint256)":"42842e0e","safeTransferFrom(address,address,uint256,bytes)":"b88d4fde","setApprovalForAll(address,bool)":"a22cb465","startPreSale()":"55dd574c","startPublicSale()":"0c1c972a","startReveal()":"ad72202b","supportsInterface(bytes4)":"01ffc9a7","symbol()":"95d89b41","tokenURI(uint256)":"c87b56dd","totalSupply()":"18160ddd","transferFrom(address,address,uint256)":"23b872dd","transferOwnership(address)":"f2fde38b","whiteListMint(bytes32[])":"97254e55"},"id":44}