{"abi":[{"type":"constructor","inputs":[{"name":"_init_pre_sale_price","type":"uint256","internalType":"uint256"},{"name":"_startPreSaleDate","type":"uint256","internalType":"uint256"},{"name":"_startRevealDate","type":"uint256","internalType":"uint256"},{"name":"_startPublicSaleDate","type":"uint256","internalType":"uint256"},{"name":"_merkle_root","type":"bytes32","internalType":"bytes32"}],"stateMutability":"nonpayable"},{"type":"function","name":"COLLECTION_MAX_SUPPLY","inputs":[],"outputs":[{"name":"","type":"uint256","internalType":"uint256"}],"stateMutability":"view"},{"type":"function","name":"PUBLIC_SALE_MINT_PRICE","inputs":[],"outputs":[{"name":"","type":"uint256","internalType":"uint256"}],"stateMutability":"view"},{"type":"function","name":"approve","inputs":[{"name":"to","type":"address","internalType":"address"},{"name":"tokenId","type":"uint256","internalType":"uint256"}],"outputs":[],"stateMutability":"nonpayable"},{"type":"function","name":"balanceOf","inputs":[{"name":"owner","type":"address","internalType":"address"}],"outputs":[{"name":"","type":"uint256","internalType":"uint256"}],"stateMutability":"view"},{"type":"function","name":"changeMerkleRoot","inputs":[{"name":"_newMerkleRoot","type":"bytes32","internalType":"bytes32"}],"outputs":[],"stateMutability":"nonpayable"},{"type":"function","name":"changePreSaleDate","inputs":[{"name":"_newPreSaleDate","type":"uint256","internalType":"uint256"}],"outputs":[],"stateMutability":"nonpayable"},{"type":"function","name":"changePublicSaleDate","inputs":[{"name":"_newPublicSaleDate","type":"uint256","internalType":"uint256"}],"outputs":[],"stateMutability":"nonpayable"},{"type":"function","name":"changeRevealDate","inputs":[{"name":"_newRevealDate","type":"uint256","internalType":"uint256"}],"outputs":[],"stateMutability":"nonpayable"},{"type":"function","name":"getApproved","inputs":[{"name":"tokenId","type":"uint256","internalType":"uint256"}],"outputs":[{"name":"","type":"address","internalType":"address"}],"stateMutability":"view"},{"type":"function","name":"getCurrentPhase","inputs":[],"outputs":[{"name":"","type":"uint8","internalType":"enum IZeroDay.PHASE"}],"stateMutability":"view"},{"type":"function","name":"getMerkleRoot","inputs":[],"outputs":[{"name":"","type":"bytes32","internalType":"bytes32"}],"stateMutability":"view"},{"type":"function","name":"getPreSaled","inputs":[],"outputs":[{"name":"","type":"bool","internalType":"bool"}],"stateMutability":"view"},{"type":"function","name":"getPublicSaled","inputs":[],"outputs":[{"name":"","type":"bool","internalType":"bool"}],"stateMutability":"view"},{"type":"function","name":"getRevealed","inputs":[],"outputs":[{"name":"","type":"bool","internalType":"bool"}],"stateMutability":"view"},{"type":"function","name":"getStartPreSaleDate","inputs":[],"outputs":[{"name":"","type":"uint256","internalType":"uint256"}],"stateMutability":"view"},{"type":"function","name":"getStartPublicSaleDate","inputs":[],"outputs":[{"name":"","type":"uint256","internalType":"uint256"}],"stateMutability":"view"},{"type":"function","name":"getStartRevealDate","inputs":[],"outputs":[{"name":"","type":"uint256","internalType":"uint256"}],"stateMutability":"view"},{"type":"function","name":"getTokenURI","inputs":[{"name":"_tokenId","type":"uint256","internalType":"uint256"}],"outputs":[{"name":"","type":"string","internalType":"string"}],"stateMutability":"view"},{"type":"function","name":"getWhiteListMinterStatus","inputs":[{"name":"_minter","type":"address","internalType":"address"}],"outputs":[{"name":"","type":"bool","internalType":"bool"}],"stateMutability":"view"},{"type":"function","name":"init_pre_sale_price","inputs":[],"outputs":[{"name":"","type":"uint256","internalType":"uint256"}],"stateMutability":"view"},{"type":"function","name":"isApprovedForAll","inputs":[{"name":"owner","type":"address","internalType":"address"},{"name":"operator","type":"address","internalType":"address"}],"outputs":[{"name":"","type":"bool","internalType":"bool"}],"stateMutability":"view"},{"type":"function","name":"mintNFT","inputs":[{"name":"_tokenURI","type":"string","internalType":"string"}],"outputs":[],"stateMutability":"payable"},{"type":"function","name":"name","inputs":[],"outputs":[{"name":"","type":"string","internalType":"string"}],"stateMutability":"view"},{"type":"function","name":"owner","inputs":[],"outputs":[{"name":"","type":"address","internalType":"address"}],"stateMutability":"view"},{"type":"function","name":"ownerOf","inputs":[{"name":"tokenId","type":"uint256","internalType":"uint256"}],"outputs":[{"name":"","type":"address","internalType":"address"}],"stateMutability":"view"},{"type":"function","name":"renounceOwnership","inputs":[],"outputs":[],"stateMutability":"nonpayable"},{"type":"function","name":"royaltyInfo","inputs":[{"name":"tokenId","type":"uint256","internalType":"uint256"},{"name":"salePrice","type":"uint256","internalType":"uint256"}],"outputs":[{"name":"","type":"address","internalType":"address"},{"name":"","type":"uint256","internalType":"uint256"}],"stateMutability":"view"},{"type":"function","name":"safeTransferFrom","inputs":[{"name":"from","type":"address","internalType":"address"},{"name":"to","type":"address","internalType":"address"},{"name":"tokenId","type":"uint256","internalType":"uint256"}],"outputs":[],"stateMutability":"nonpayable"},{"type":"function","name":"safeTransferFrom","inputs":[{"name":"from","type":"address","internalType":"address"},{"name":"to","type":"address","internalType":"address"},{"name":"tokenId","type":"uint256","internalType":"uint256"},{"name":"data","type":"bytes","internalType":"bytes"}],"outputs":[],"stateMutability":"nonpayable"},{"type":"function","name":"setApprovalForAll","inputs":[{"name":"operator","type":"address","internalType":"address"},{"name":"approved","type":"bool","internalType":"bool"}],"outputs":[],"stateMutability":"nonpayable"},{"type":"function","name":"startPreSale","inputs":[],"outputs":[],"stateMutability":"nonpayable"},{"type":"function","name":"startPublicSale","inputs":[],"outputs":[],"stateMutability":"nonpayable"},{"type":"function","name":"startReveal","inputs":[],"outputs":[],"stateMutability":"nonpayable"},{"type":"function","name":"supportsInterface","inputs":[{"name":"interfaceId","type":"bytes4","internalType":"bytes4"}],"outputs":[{"name":"","type":"bool","internalType":"bool"}],"stateMutability":"view"},{"type":"function","name":"symbol","inputs":[],"outputs":[{"name":"","type":"string","internalType":"string"}],"stateMutability":"view"},{"type":"function","name":"tokenURI","inputs":[{"name":"_tokenId","type":"uint256","internalType":"uint256"}],"outputs":[{"name":"","type":"string","internalType":"string"}],"stateMutability":"view"},{"type":"function","name":"totalSupply","inputs":[],"outputs":[{"name":"","type":"uint256","internalType":"uint256"}],"stateMutability":"view"},{"type":"function","name":"transferFrom","inputs":[{"name":"from","type":"address","internalType":"address"},{"name":"to","type":"address","internalType":"address"},{"name":"tokenId","type":"uint256","internalType":"uint256"}],"outputs":[],"stateMutability":"nonpayable"},{"type":"function","name":"transferOwnership","inputs":[{"name":"newOwner","type":"address","internalType":"address"}],"outputs":[],"stateMutability":"nonpayable"},{"type":"function","name":"whiteListMint","inputs":[{"name":"_merkleProof","type":"bytes32[]","internalType":"bytes32[]"}],"outputs":[],"stateMutability":"payable"},{"type":"event","name":"Approval","inputs":[{"name":"owner","type":"address","indexed":true,"internalType":"address"},{"name":"approved","type":"address","indexed":true,"internalType":"address"},{"name":"tokenId","type":"uint256","indexed":true,"internalType":"uint256"}],"anonymous":false},{"type":"event","name":"ApprovalForAll","inputs":[{"name":"owner","type":"address","indexed":true,"internalType":"address"},{"name":"operator","type":"address","indexed":true,"internalType":"address"},{"name":"approved","type":"bool","indexed":false,"internalType":"bool"}],"anonymous":false},{"type":"event","name":"MintedInWhiteList","inputs":[{"name":"minter","type":"address","indexed":false,"internalType":"address"}],"anonymous":false},{"type":"event","name":"OwnershipTransferred","inputs":[{"name":"previousOwner","type":"address","indexed":true,"internalType":"address"},{"name":"newOwner","type":"address","indexed":true,"internalType":"address"}],"anonymous":false},{"type":"event","name":"Transfer","inputs":[{"name":"from","type":"address","indexed":true,"internalType":"address"},{"name":"to","type":"address","indexed":true,"internalType":"address"},{"name":"tokenId","type":"uint256","indexed":true,"internalType":"uint256"}],"anonymous":false},{"type":"event","name":"merkleRootChanged","inputs":[{"name":"newMerkleRoot","type":"bytes32","indexed":false,"internalType":"bytes32"}],"anonymous":false},{"type":"event","name":"phaseChanged","inputs":[{"name":"phase","type":"uint8","indexed":false,"internalType":"enum IZeroDay.PHASE"}],"anonymous":false},{"type":"error","name":"ERC2981InvalidDefaultRoyalty","inputs":[{"name":"numerator","type":"uint256","internalType":"uint256"},{"name":"denominator","type":"uint256","internalType":"uint256"}]},{"type":"error","name":"ERC2981InvalidDefaultRoyaltyReceiver","inputs":[{"name":"receiver","type":"address","internalType":"address"}]},{"type":"error","name":"ERC2981InvalidTokenRoyalty","inputs":[{"name":"tokenId","type":"uint256","internalType":"uint256"},{"name":"numerator","type":"uint256","internalType":"uint256"},{"name":"denominator","type":"uint256","internalType":"uint256"}]},{"type":"error","name":"ERC2981InvalidTokenRoyaltyReceiver","inputs":[{"name":"tokenId","type":"uint256","internalType":"uint256"},{"name":"receiver","type":"address","internalType":"address"}]},{"type":"error","name":"ERC721IncorrectOwner","inputs":[{"name":"sender","type":"address","internalType":"address"},{"name":"tokenId","type":"uint256","internalType":"uint256"},{"name":"owner","type":"address","internalType":"address"}]},{"type":"error","name":"ERC721InsufficientApproval","inputs":[{"name":"operator","type":"address","internalType":"address"},{"name":"tokenId","type":"uint256","internalType":"uint256"}]},{"type":"error","name":"ERC721InvalidApprover","inputs":[{"name":"approver","type":"address","internalType":"address"}]},{"type":"error","name":"ERC721InvalidOperator","inputs":[{"name":"operator","type":"address","internalType":"address"}]},{"type":"error","name":"ERC721InvalidOwner","inputs":[{"name":"owner","type":"address","internalType":"address"}]},{"type":"error","name":"ERC721InvalidReceiver","inputs":[{"name":"receiver","type":"address","internalType":"address"}]},{"type":"error","name":"ERC721InvalidSender","inputs":[{"name":"sender","type":"address","internalType":"address"}]},{"type":"error","name":"ERC721NonexistentToken","inputs":[{"name":"tokenId","type":"uint256","internalType":"uint256"}]},{"type":"error","name":"OwnableInvalidOwner","inputs":[{"name":"owner","type":"address","internalType":"address"}]},{"type":"error","name":"OwnableUnauthorizedAccount","inputs":[{"name":"account","type":"address","internalType":"address"}]},{"type":"error","name":"ReentrancyGuardReentrantCall","inputs":[]},{"type":"error","name":"ZeroDay__AlreadyMintedInWhiteList","inputs":[]},{"type":"error","name":"ZeroDay__ExceedsMaxSupply","inputs":[]},{"type":"error","name":"ZeroDay__MerkleProofHashesAreEmpty","inputs":[]},{"type":"error","name":"ZeroDay__NewMerkleRootHasSameNameWithOldMerkleRoot","inputs":[]},{"type":"error","name":"ZeroDay__NotSufficientBalanceToMint","inputs":[]},{"type":"error","name":"ZeroDay__PreSaleDateNotReached","inputs":[]},{"type":"error","name":"ZeroDay__PublicSaleDateNotReached","inputs":[]},{"type":"error","name":"ZeroDay__RevealDateNotReached","inputs":[]},{"type":"error","name":"ZeroDay__UserNotIncludedInWhiteList","inputs":[{"name":"user","type":"address","internalType":"address"}]},{"type":"error","name":"ZeroDay__WeAreNotInThisPhase","inputs":[]},{"type":"error","name":"ZeroDay__newDateIsAsSameAsOldOne","inputs":[]},{"type":"error","name":"ZeroDay__tokenIdHasNotMinted","inputs":[{"name":"tokenId","type":"uint256","internalType":"uint256"}]}],"bytecode":{"object":"0x60a06040523480156200001157600080fd5b506040516200262f3803806200262f833981016040819052620000349162000157565b33604051806040016040528060078152602001665a65726f44617960c81b815250604051806040016040528060048152602001635a45524f60e01b81525081600290816200008391906200023d565b5060036200009282826200023d565b50506001600855506001600160a01b038116620000c957604051631e4fbdf760e01b81526000600482015260240160405180910390fd5b620000d48162000105565b50608094909452600a92909255600c91909155600b55600f55600d805460ff191660011790556000600e5562000309565b600980546001600160a01b038381166001600160a01b0319831681179093556040519116919082907f8be0079c531659141344cd1fd0a4f28419497f9722a3daafe3b4186f6b6457e090600090a35050565b600080600080600060a086880312156200017057600080fd5b5050835160208501516040860151606087015160809097015192989197509594509092509050565b634e487b7160e01b600052604160045260246000fd5b600181811c90821680620001c357607f821691505b602082108103620001e457634e487b7160e01b600052602260045260246000fd5b50919050565b601f8211156200023857600081815260208120601f850160051c81016020861015620002135750805b601f850160051c820191505b8181101562000234578281556001016200021f565b5050505b505050565b81516001600160401b0381111562000259576200025962000198565b62000271816200026a8454620001ae565b84620001ea565b602080601f831160018114620002a95760008415620002905750858301515b600019600386901b1c1916600185901b17855562000234565b600085815260208120601f198616915b82811015620002da57888601518255948401946001909101908401620002b9565b5085821015620002f95787850151600019600388901b60f8161c191681555b5050505050600190811b01905550565b6080516123036200032c600039600081816103570152610d7101526123036000f3fe60806040526004361061023b5760003560e01c80638da5cb5b1161012e578063be35057d116100ab578063e985e9c51161006f578063e985e9c514610693578063ebcea3db146106b3578063f2fde38b146106d3578063f843ae41146106f3578063fb37e8831461070f57600080fd5b8063be35057d14610608578063c87b56dd14610628578063d26a8b9514610648578063d71f41be1461065d578063e93e73bb1461067557600080fd5b8063a22cb465116100f2578063a22cb4651461057d578063a3a40ea51461059d578063ad72202b146105bd578063b1164e83146105d2578063b88d4fde146105e857600080fd5b80638da5cb5b146104fa57806394cc41401461051857806394d2717d1461053557806395d89b411461055557806397254e551461056a57600080fd5b80632a55205a116101bc57806355dd574c1161018057806355dd574c146104575780636352211e1461046c578063692c4d721461048c57806370a08231146104c5578063715018a6146104e557600080fd5b80632a55205a146103ae5780633bb3a24d146103ed5780633fd4f8a41461040d57806342842e0e14610422578063495906571461044257600080fd5b806318160ddd1161020357806318160ddd146103065780631c973835146103255780631d25d583146103455780632052d2e91461037957806323b872dd1461038e57600080fd5b806301ffc9a71461024057806306fdde0314610275578063081812fc14610297578063095ea7b3146102cf5780630c1c972a146102f1575b600080fd5b34801561024c57600080fd5b5061026061025b366004611c3b565b610722565b60405190151581526020015b60405180910390f35b34801561028157600080fd5b5061028a610733565b60405161026c9190611ca8565b3480156102a357600080fd5b506102b76102b2366004611cbb565b6107c5565b6040516001600160a01b03909116815260200161026c565b3480156102db57600080fd5b506102ef6102ea366004611cf0565b6107ee565b005b3480156102fd57600080fd5b506102ef6107fd565b34801561031257600080fd5b50600e545b60405190815260200161026c565b34801561033157600080fd5b506102ef610340366004611cbb565b61091f565b34801561035157600080fd5b506103177f000000000000000000000000000000000000000000000000000000000000000081565b34801561038557600080fd5b50600b54610317565b34801561039a57600080fd5b506102ef6103a9366004611d1a565b61094e565b3480156103ba57600080fd5b506103ce6103c9366004611d56565b6109d9565b604080516001600160a01b03909316835260208301919091520161026c565b3480156103f957600080fd5b5061028a610408366004611cbb565b610a85565b34801561041957600080fd5b50600a54610317565b34801561042e57600080fd5b506102ef61043d366004611d1a565b610b27565b34801561044e57600080fd5b50600f54610317565b34801561046357600080fd5b506102ef610b47565b34801561047857600080fd5b506102b7610487366004611cbb565b610c54565b34801561049857600080fd5b506102606104a7366004611d78565b6001600160a01b031660009081526011602052604090205460ff1690565b3480156104d157600080fd5b506103176104e0366004611d78565b610c5f565b3480156104f157600080fd5b506102ef610ca7565b34801561050657600080fd5b506009546001600160a01b03166102b7565b34801561052457600080fd5b50601054610100900460ff16610260565b34801561054157600080fd5b506102ef610550366004611cbb565b610cbb565b34801561056157600080fd5b5061028a610cea565b6102ef610578366004611dda565b610cf9565b34801561058957600080fd5b506102ef610598366004611e80565b610e67565b3480156105a957600080fd5b50600d5460ff1660405161026c9190611ed2565b3480156105c957600080fd5b506102ef610e72565b3480156105de57600080fd5b506103176126ff81565b3480156105f457600080fd5b506102ef610603366004611f52565b610f94565b34801561061457600080fd5b506102ef610623366004611cbb565b610fab565b34801561063457600080fd5b5061028a610643366004611cbb565b610fda565b34801561065457600080fd5b50600c54610317565b34801561066957600080fd5b5060105460ff16610260565b34801561068157600080fd5b5060105462010000900460ff16610260565b34801561069f57600080fd5b506102606106ae366004611fce565b6110fc565b3480156106bf57600080fd5b506102ef6106ce366004611cbb565b61112a565b3480156106df57600080fd5b506102ef6106ee366004611d78565b611189565b3480156106ff57600080fd5b50610317670de0b6b3a764000081565b6102ef61071d366004612001565b6111c4565b600061072d82611305565b92915050565b6060600280546107429061204a565b80601f016020809104026020016040519081016040528092919081815260200182805461076e9061204a565b80156107bb5780601f10610790576101008083540402835291602001916107bb565b820191906000526020600020905b81548152906001019060200180831161079e57829003601f168201915b5050505050905090565b60006107d082611345565b506000828152600660205260409020546001600160a01b031661072d565b6107f982823361137e565b5050565b61080561138b565b600280600d5460ff16600381111561081f5761081f611ebc565b1461083d576040516314f654af60e11b815260040160405180910390fd5b60105462010000900460ff161561089b5760405162461bcd60e51b815260206004820152601a60248201527f5a65726f4461795f5f7075626c696353616c65644265666f726500000000000060448201526064015b60405180910390fd5b600c544263ffffffff1610156108c457604051632ed53c1b60e11b815260040160405180910390fd5b6010805462ff0000191662010000179055600d8054600360ff1990911681179091556040517f6e95ed764170cfef59dda5e1ac3807631b7a671104ce4df3bdc070de9cecf8089161091491611ed2565b60405180910390a150565b61092761138b565b80600a54036109495760405163e408fb4960e01b815260040160405180910390fd5b600a55565b6001600160a01b03821661097857604051633250574960e11b815260006004820152602401610892565b60006109858383336113b8565b9050836001600160a01b0316816001600160a01b0316146109d3576040516364283d7b60e01b81526001600160a01b0380861660048301526024820184905282166044820152606401610892565b50505050565b60008281526001602090815260408083208151808301909252546001600160a01b038116808352600160a01b9091046001600160601b0316928201929092528291610a4e5750604080518082019091526000546001600160a01b0381168252600160a01b90046001600160601b031660208201525b602081015160009061271090610a6d906001600160601b03168761209a565b610a7791906120b1565b915196919550909350505050565b6000818152601260205260409020805460609190610aa29061204a565b80601f0160208091040260200160405190810160405280929190818152602001828054610ace9061204a565b8015610b1b5780601f10610af057610100808354040283529160200191610b1b565b820191906000526020600020905b815481529060010190602001808311610afe57829003601f168201915b50505050509050919050565b610b4283838360405180602001604052806000815250610f94565b505050565b610b4f61138b565b600180600d5460ff166003811115610b6957610b69611ebc565b14610b87576040516314f654af60e11b815260040160405180910390fd5b60105460ff1615610bda5760405162461bcd60e51b815260206004820152601760248201527f5a65726f4461795f5f70726553616c65644265666f72650000000000000000006044820152606401610892565b600a544263ffffffff1610158015610bf95750600b544263ffffffff16105b610c1657604051635c700aa760e11b815260040160405180910390fd5b6010805460ff191660019081179091556040517f6e95ed764170cfef59dda5e1ac3807631b7a671104ce4df3bdc070de9cecf8089161091491611ed2565b600061072d82611345565b60006001600160a01b038216610c8b576040516322718ad960e21b815260006004820152602401610892565b506001600160a01b031660009081526005602052604090205490565b610caf61138b565b610cb960006114b1565b565b610cc361138b565b80600b5403610ce55760405163e408fb4960e01b815260040160405180910390fd5b600b55565b6060600380546107429061204a565b610d01611503565b600180600d5460ff166003811115610d1b57610d1b611ebc565b14610d39576040516314f654af60e11b815260040160405180910390fd5b6126ff610d45600e5490565b610d509060016120d3565b1115610d6f5760405163610323c760e01b815260040160405180910390fd5b7f0000000000000000000000000000000000000000000000000000000000000000341015610db05760405163a95ff08160e01b815260040160405180910390fd5b815115610dd0576040516301696f4160e11b815260040160405180910390fd5b3360009081526011602052604090205460ff1615610e015760405163269727ef60e01b815260040160405180910390fd5b336000818152601160205260409020805460ff19166001179055610e2690839061152d565b6040513381527f0f07877447a50a723845caebf5eda4c73988d5d4cd4392e276160d5959d7f9c09060200160405180910390a150610e646001600855565b50565b6107f93383836115c2565b610e7a61138b565b600180600d5460ff166003811115610e9457610e94611ebc565b14610eb2576040516314f654af60e11b815260040160405180910390fd5b601054610100900460ff1615610f0a5760405162461bcd60e51b815260206004820152601760248201527f5a65726f4461795f5f52656576616c65644265666f72650000000000000000006044820152606401610892565b600b544263ffffffff1610158015610f295750600c544263ffffffff16105b610f46576040516325a781f160e11b815260040160405180910390fd5b6010805461ff001916610100179055600d8054600260ff1990911681179091556040517f6e95ed764170cfef59dda5e1ac3807631b7a671104ce4df3bdc070de9cecf8089161091491611ed2565b610f9f84848461094e565b6109d384848484611661565b610fb361138b565b80600c5403610fd55760405163e408fb4960e01b815260040160405180910390fd5b600c55565b600081815260126020526040812080546060929190610ff89061204a565b80601f01602080910402602001604051908101604052809291908181526020018280546110249061204a565b80156110715780601f1061104657610100808354040283529160200191611071565b820191906000526020600020905b81548152906001019060200180831161105457829003601f168201915b50505050509050805160000361109d576040516336b0abc560e01b815260048101849052602401610892565b60408051808201909152601581527468747470733a2f2f697066732e696f2f697066732f60581b6020820152816110d38561178a565b6040516020016110e5939291906120e6565b604051602081830303815290604052915050919050565b6001600160a01b03918216600090815260076020908152604080832093909416825291909152205460ff1690565b61113261138b565b600f54810361115457604051632546ab2360e21b815260040160405180910390fd5b600f8190556040518181527f72bc5e181bb490da5a7c279c8dbfb225cabd111f78ed2ffc2c1953ad9ce9875b90602001610914565b61119161138b565b6001600160a01b0381166111bb57604051631e4fbdf760e01b815260006004820152602401610892565b610e64816114b1565b6111cc611503565b600380600d5460ff1660038111156111e6576111e6611ebc565b14611204576040516314f654af60e11b815260040160405180910390fd5b6126ff611210600e5490565b61121b9060016120d3565b111561123a5760405163610323c760e01b815260040160405180910390fd5b670de0b6b3a76400003410156112635760405163a95ff08160e01b815260040160405180910390fd5b81516000036112b45760405162461bcd60e51b815260206004820152601860248201527f5a65726f4461795f5f496e76616c6964546f6b656e55524900000000000000006044820152606401610892565b60006112bf600e5490565b6112ca9060016120d3565b60008181526012602052604090209091506112e58482612184565b50600e805460010190556112f9338261181d565b5050610e646001600855565b60006001600160e01b031982166380ac58cd60e01b148061133657506001600160e01b03198216635b5e139f60e01b145b8061072d575061072d82611837565b6000818152600460205260408120546001600160a01b03168061072d57604051637e27328960e01b815260048101849052602401610892565b610b42838383600161186c565b6009546001600160a01b03163314610cb95760405163118cdaa760e01b8152336004820152602401610892565b6000828152600460205260408120546001600160a01b03908116908316156113e5576113e5818486611972565b6001600160a01b038116156114235761140260008560008061186c565b6001600160a01b038116600090815260056020526040902080546000190190555b6001600160a01b03851615611452576001600160a01b0385166000908152600560205260409020805460010190555b60008481526004602052604080822080546001600160a01b0319166001600160a01b0389811691821790925591518793918516917fddf252ad1be2c89b69c2b068fc378daa952ba7f163c4a11628f55a4df523b3ef91a4949350505050565b600980546001600160a01b038381166001600160a01b0319831681179093556040519116919082907f8be0079c531659141344cd1fd0a4f28419497f9722a3daafe3b4186f6b6457e090600090a35050565b60026008540361152657604051633ee5aeb560e01b815260040160405180910390fd5b6002600855565b6040516bffffffffffffffffffffffff19606083901b16602082015260009060340160405160208183030381529060405280519060200120905061157483600f54836119d6565b61159c57604051632ef744ed60e01b81526001600160a01b0383166004820152602401610892565b600e80546001019055610b42826115b2600e5490565b6115bd9060016120d3565b61181d565b6001600160a01b0382166115f457604051630b61174360e31b81526001600160a01b0383166004820152602401610892565b6001600160a01b03838116600081815260076020908152604080832094871680845294825291829020805460ff191686151590811790915591519182527f17307eab39ab6107e8899845ad3d59bd9653f200f220920489ca2b5937696c31910160405180910390a3505050565b6001600160a01b0383163b156109d357604051630a85bd0160e11b81526001600160a01b0384169063150b7a02906116a3903390889087908790600401612244565b6020604051808303816000875af19250505080156116de575060408051601f3d908101601f191682019092526116db91810190612281565b60015b611747573d80801561170c576040519150601f19603f3d011682016040523d82523d6000602084013e611711565b606091505b50805160000361173f57604051633250574960e11b81526001600160a01b0385166004820152602401610892565b805181602001fd5b6001600160e01b03198116630a85bd0160e11b1461178357604051633250574960e11b81526001600160a01b0385166004820152602401610892565b5050505050565b60606000611797836119ec565b600101905060008167ffffffffffffffff8111156117b7576117b7611d93565b6040519080825280601f01601f1916602001820160405280156117e1576020820181803683370190505b5090508181016020015b600019016f181899199a1a9b1b9c1cb0b131b232b360811b600a86061a8153600a85049450846117eb57509392505050565b6107f9828260405180602001604052806000815250611ac4565b60006001600160e01b0319821663152a902d60e11b148061072d57506301ffc9a760e01b6001600160e01b031983161461072d565b808061188057506001600160a01b03821615155b1561194257600061189084611345565b90506001600160a01b038316158015906118bc5750826001600160a01b0316816001600160a01b031614155b80156118cf57506118cd81846110fc565b155b156118f85760405163a9fbf51f60e01b81526001600160a01b0384166004820152602401610892565b81156119405783856001600160a01b0316826001600160a01b03167f8c5be1e5ebec7d5bd14f71427d1e84f3dd0314c0f7b2291e5b200ac8c7c3b92560405160405180910390a45b505b5050600090815260066020526040902080546001600160a01b0319166001600160a01b0392909216919091179055565b61197d838383611adb565b610b42576001600160a01b0383166119ab57604051637e27328960e01b815260048101829052602401610892565b60405163177e802f60e01b81526001600160a01b038316600482015260248101829052604401610892565b6000826119e38584611b41565b14949350505050565b60008072184f03e93ff9f4daa797ed6e38ed64bf6a1f0160401b8310611a2b5772184f03e93ff9f4daa797ed6e38ed64bf6a1f0160401b830492506040015b6d04ee2d6d415b85acef81000000008310611a57576d04ee2d6d415b85acef8100000000830492506020015b662386f26fc100008310611a7557662386f26fc10000830492506010015b6305f5e1008310611a8d576305f5e100830492506008015b6127108310611aa157612710830492506004015b60648310611ab3576064830492506002015b600a831061072d5760010192915050565b611ace8383611b8e565b610b426000848484611661565b60006001600160a01b03831615801590611b395750826001600160a01b0316846001600160a01b03161480611b155750611b1584846110fc565b80611b3957506000828152600660205260409020546001600160a01b038481169116145b949350505050565b600081815b8451811015611b8657611b7282868381518110611b6557611b6561229e565b6020026020010151611bf3565b915080611b7e816122b4565b915050611b46565b509392505050565b6001600160a01b038216611bb857604051633250574960e11b815260006004820152602401610892565b6000611bc6838360006113b8565b90506001600160a01b03811615610b42576040516339e3563760e11b815260006004820152602401610892565b6000818310611c0f576000828152602084905260409020611c1e565b60008381526020839052604090205b9392505050565b6001600160e01b031981168114610e6457600080fd5b600060208284031215611c4d57600080fd5b8135611c1e81611c25565b60005b83811015611c73578181015183820152602001611c5b565b50506000910152565b60008151808452611c94816020860160208601611c58565b601f01601f19169290920160200192915050565b602081526000611c1e6020830184611c7c565b600060208284031215611ccd57600080fd5b5035919050565b80356001600160a01b0381168114611ceb57600080fd5b919050565b60008060408385031215611d0357600080fd5b611d0c83611cd4565b946020939093013593505050565b600080600060608486031215611d2f57600080fd5b611d3884611cd4565b9250611d4660208501611cd4565b9150604084013590509250925092565b60008060408385031215611d6957600080fd5b50508035926020909101359150565b600060208284031215611d8a57600080fd5b611c1e82611cd4565b634e487b7160e01b600052604160045260246000fd5b604051601f8201601f1916810167ffffffffffffffff81118282101715611dd257611dd2611d93565b604052919050565b60006020808385031215611ded57600080fd5b823567ffffffffffffffff80821115611e0557600080fd5b818501915085601f830112611e1957600080fd5b813581811115611e2b57611e2b611d93565b8060051b9150611e3c848301611da9565b8181529183018401918481019088841115611e5657600080fd5b938501935b83851015611e7457843582529385019390850190611e5b565b98975050505050505050565b60008060408385031215611e9357600080fd5b611e9c83611cd4565b915060208301358015158114611eb157600080fd5b809150509250929050565b634e487b7160e01b600052602160045260246000fd5b6020810160048310611ef457634e487b7160e01b600052602160045260246000fd5b91905290565b600067ffffffffffffffff831115611f1457611f14611d93565b611f27601f8401601f1916602001611da9565b9050828152838383011115611f3b57600080fd5b828260208301376000602084830101529392505050565b60008060008060808587031215611f6857600080fd5b611f7185611cd4565b9350611f7f60208601611cd4565b925060408501359150606085013567ffffffffffffffff811115611fa257600080fd5b8501601f81018713611fb357600080fd5b611fc287823560208401611efa565b91505092959194509250565b60008060408385031215611fe157600080fd5b611fea83611cd4565b9150611ff860208401611cd4565b90509250929050565b60006020828403121561201357600080fd5b813567ffffffffffffffff81111561202a57600080fd5b8201601f8101841361203b57600080fd5b611b3984823560208401611efa565b600181811c9082168061205e57607f821691505b60208210810361207e57634e487b7160e01b600052602260045260246000fd5b50919050565b634e487b7160e01b600052601160045260246000fd5b808202811582820484141761072d5761072d612084565b6000826120ce57634e487b7160e01b600052601260045260246000fd5b500490565b8082018082111561072d5761072d612084565b600084516120f8818460208901611c58565b84519083019061210c818360208901611c58565b602f60f81b91019081528351612129816001840160208801611c58565b0160010195945050505050565b601f821115610b4257600081815260208120601f850160051c8101602086101561215d5750805b601f850160051c820191505b8181101561217c57828155600101612169565b505050505050565b815167ffffffffffffffff81111561219e5761219e611d93565b6121b2816121ac845461204a565b84612136565b602080601f8311600181146121e757600084156121cf5750858301515b600019600386901b1c1916600185901b17855561217c565b600085815260208120601f198616915b82811015612216578886015182559484019460019091019084016121f7565b50858210156122345787850151600019600388901b60f8161c191681555b5050505050600190811b01905550565b6001600160a01b038581168252841660208201526040810183905260806060820181905260009061227790830184611c7c565b9695505050505050565b60006020828403121561229357600080fd5b8151611c1e81611c25565b634e487b7160e01b600052603260045260246000fd5b6000600182016122c6576122c6612084565b506001019056fea26469706673582212206d9b96246a249842f0191e74df68228010ac5b9d8afaca6dd4e6586d9e45dd0a64736f6c63430008140033","linkReferences":{}},"methodIdentifiers":{"COLLECTION_MAX_SUPPLY()":"b1164e83","PUBLIC_SALE_MINT_PRICE()":"f843ae41","approve(address,uint256)":"095ea7b3","balanceOf(address)":"70a08231","changeMerkleRoot(bytes32)":"ebcea3db","changePreSaleDate(uint256)":"1c973835","changePublicSaleDate(uint256)":"be35057d","changeRevealDate(uint256)":"94d2717d","getApproved(uint256)":"081812fc","getCurrentPhase()":"a3a40ea5","getMerkleRoot()":"49590657","getPreSaled()":"d71f41be","getPublicSaled()":"e93e73bb","getRevealed()":"94cc4140","getStartPreSaleDate()":"3fd4f8a4","getStartPublicSaleDate()":"d26a8b95","getStartRevealDate()":"2052d2e9","getTokenURI(uint256)":"3bb3a24d","getWhiteListMinterStatus(address)":"692c4d72","init_pre_sale_price()":"1d25d583","isApprovedForAll(address,address)":"e985e9c5","mintNFT(string)":"fb37e883","name()":"06fdde03","owner()":"8da5cb5b","ownerOf(uint256)":"6352211e","renounceOwnership()":"715018a6","royaltyInfo(uint256,uint256)":"2a55205a","safeTransferFrom(address,address,uint256)":"42842e0e","safeTransferFrom(address,address,uint256,bytes)":"b88d4fde","setApprovalForAll(address,bool)":"a22cb465","startPreSale()":"55dd574c","startPublicSale()":"0c1c972a","startReveal()":"ad72202b","supportsInterface(bytes4)":"01ffc9a7","symbol()":"95d89b41","tokenURI(uint256)":"c87b56dd","totalSupply()":"18160ddd","transferFrom(address,address,uint256)":"23b872dd","transferOwnership(address)":"f2fde38b","whiteListMint(bytes32[])":"97254e55"},"id":50}