{"abi":[{"type":"constructor","inputs":[{"name":"_init_pre_sale_price","type":"uint256","internalType":"uint256"},{"name":"_startPreSaleDate","type":"uint256","internalType":"uint256"},{"name":"_startRevealDate","type":"uint256","internalType":"uint256"},{"name":"_startPublicSaleDate","type":"uint256","internalType":"uint256"},{"name":"_merkle_root","type":"bytes32","internalType":"bytes32"}],"stateMutability":"nonpayable"},{"type":"function","name":"approve","inputs":[{"name":"to","type":"address","internalType":"address"},{"name":"tokenId","type":"uint256","internalType":"uint256"}],"outputs":[],"stateMutability":"nonpayable"},{"type":"function","name":"balanceOf","inputs":[{"name":"owner","type":"address","internalType":"address"}],"outputs":[{"name":"","type":"uint256","internalType":"uint256"}],"stateMutability":"view"},{"type":"function","name":"changeMerkleRoot","inputs":[{"name":"_newMerkleRoot","type":"bytes32","internalType":"bytes32"}],"outputs":[],"stateMutability":"nonpayable"},{"type":"function","name":"getApproved","inputs":[{"name":"tokenId","type":"uint256","internalType":"uint256"}],"outputs":[{"name":"","type":"address","internalType":"address"}],"stateMutability":"view"},{"type":"function","name":"getCurrentPhase","inputs":[],"outputs":[{"name":"","type":"uint8","internalType":"enum IZeroDay.PHASE"}],"stateMutability":"view"},{"type":"function","name":"getMerkleRoot","inputs":[],"outputs":[{"name":"","type":"bytes32","internalType":"bytes32"}],"stateMutability":"view"},{"type":"function","name":"getPreSaled","inputs":[],"outputs":[{"name":"","type":"bool","internalType":"bool"}],"stateMutability":"view"},{"type":"function","name":"getPublicSaled","inputs":[],"outputs":[{"name":"","type":"bool","internalType":"bool"}],"stateMutability":"view"},{"type":"function","name":"getRevealed","inputs":[],"outputs":[{"name":"","type":"bool","internalType":"bool"}],"stateMutability":"view"},{"type":"function","name":"getTokenURI","inputs":[{"name":"_tokenId","type":"uint256","internalType":"uint256"}],"outputs":[{"name":"","type":"string","internalType":"string"}],"stateMutability":"view"},{"type":"function","name":"getWhiteListMinterStatus","inputs":[{"name":"_minter","type":"address","internalType":"address"}],"outputs":[{"name":"","type":"bool","internalType":"bool"}],"stateMutability":"view"},{"type":"function","name":"i_init_pre_sale_price","inputs":[],"outputs":[{"name":"","type":"uint256","internalType":"uint256"}],"stateMutability":"view"},{"type":"function","name":"i_startPreSaleDate","inputs":[],"outputs":[{"name":"","type":"uint256","internalType":"uint256"}],"stateMutability":"view"},{"type":"function","name":"i_startPublicSaleDate","inputs":[],"outputs":[{"name":"","type":"uint256","internalType":"uint256"}],"stateMutability":"view"},{"type":"function","name":"i_startRevealDate","inputs":[],"outputs":[{"name":"","type":"uint256","internalType":"uint256"}],"stateMutability":"view"},{"type":"function","name":"isApprovedForAll","inputs":[{"name":"owner","type":"address","internalType":"address"},{"name":"operator","type":"address","internalType":"address"}],"outputs":[{"name":"","type":"bool","internalType":"bool"}],"stateMutability":"view"},{"type":"function","name":"mintNFT","inputs":[{"name":"_tokenURI","type":"string","internalType":"string"}],"outputs":[],"stateMutability":"payable"},{"type":"function","name":"name","inputs":[],"outputs":[{"name":"","type":"string","internalType":"string"}],"stateMutability":"view"},{"type":"function","name":"owner","inputs":[],"outputs":[{"name":"","type":"address","internalType":"address"}],"stateMutability":"view"},{"type":"function","name":"ownerOf","inputs":[{"name":"tokenId","type":"uint256","internalType":"uint256"}],"outputs":[{"name":"","type":"address","internalType":"address"}],"stateMutability":"view"},{"type":"function","name":"renounceOwnership","inputs":[],"outputs":[],"stateMutability":"nonpayable"},{"type":"function","name":"royaltyInfo","inputs":[{"name":"tokenId","type":"uint256","internalType":"uint256"},{"name":"salePrice","type":"uint256","internalType":"uint256"}],"outputs":[{"name":"","type":"address","internalType":"address"},{"name":"","type":"uint256","internalType":"uint256"}],"stateMutability":"view"},{"type":"function","name":"safeTransferFrom","inputs":[{"name":"from","type":"address","internalType":"address"},{"name":"to","type":"address","internalType":"address"},{"name":"tokenId","type":"uint256","internalType":"uint256"}],"outputs":[],"stateMutability":"nonpayable"},{"type":"function","name":"safeTransferFrom","inputs":[{"name":"from","type":"address","internalType":"address"},{"name":"to","type":"address","internalType":"address"},{"name":"tokenId","type":"uint256","internalType":"uint256"},{"name":"data","type":"bytes","internalType":"bytes"}],"outputs":[],"stateMutability":"nonpayable"},{"type":"function","name":"setApprovalForAll","inputs":[{"name":"operator","type":"address","internalType":"address"},{"name":"approved","type":"bool","internalType":"bool"}],"outputs":[],"stateMutability":"nonpayable"},{"type":"function","name":"startPreSale","inputs":[],"outputs":[],"stateMutability":"nonpayable"},{"type":"function","name":"startPublicSale","inputs":[],"outputs":[],"stateMutability":"nonpayable"},{"type":"function","name":"startReveal","inputs":[],"outputs":[],"stateMutability":"nonpayable"},{"type":"function","name":"supportsInterface","inputs":[{"name":"interfaceId","type":"bytes4","internalType":"bytes4"}],"outputs":[{"name":"","type":"bool","internalType":"bool"}],"stateMutability":"view"},{"type":"function","name":"symbol","inputs":[],"outputs":[{"name":"","type":"string","internalType":"string"}],"stateMutability":"view"},{"type":"function","name":"tokenURI","inputs":[{"name":"_tokenId","type":"uint256","internalType":"uint256"}],"outputs":[{"name":"","type":"string","internalType":"string"}],"stateMutability":"view"},{"type":"function","name":"totalSupply","inputs":[],"outputs":[{"name":"","type":"uint256","internalType":"uint256"}],"stateMutability":"view"},{"type":"function","name":"transferFrom","inputs":[{"name":"from","type":"address","internalType":"address"},{"name":"to","type":"address","internalType":"address"},{"name":"tokenId","type":"uint256","internalType":"uint256"}],"outputs":[],"stateMutability":"nonpayable"},{"type":"function","name":"transferOwnership","inputs":[{"name":"newOwner","type":"address","internalType":"address"}],"outputs":[],"stateMutability":"nonpayable"},{"type":"function","name":"whiteListMint","inputs":[{"name":"_merkleProof","type":"bytes32[]","internalType":"bytes32[]"}],"outputs":[],"stateMutability":"nonpayable"},{"type":"event","name":"Approval","inputs":[{"name":"owner","type":"address","indexed":true,"internalType":"address"},{"name":"approved","type":"address","indexed":true,"internalType":"address"},{"name":"tokenId","type":"uint256","indexed":true,"internalType":"uint256"}],"anonymous":false},{"type":"event","name":"ApprovalForAll","inputs":[{"name":"owner","type":"address","indexed":true,"internalType":"address"},{"name":"operator","type":"address","indexed":true,"internalType":"address"},{"name":"approved","type":"bool","indexed":false,"internalType":"bool"}],"anonymous":false},{"type":"event","name":"MintedInWhiteList","inputs":[{"name":"minter","type":"address","indexed":false,"internalType":"address"}],"anonymous":false},{"type":"event","name":"OwnershipTransferred","inputs":[{"name":"previousOwner","type":"address","indexed":true,"internalType":"address"},{"name":"newOwner","type":"address","indexed":true,"internalType":"address"}],"anonymous":false},{"type":"event","name":"Transfer","inputs":[{"name":"from","type":"address","indexed":true,"internalType":"address"},{"name":"to","type":"address","indexed":true,"internalType":"address"},{"name":"tokenId","type":"uint256","indexed":true,"internalType":"uint256"}],"anonymous":false},{"type":"event","name":"merkleRootChanged","inputs":[{"name":"newMerkleRoot","type":"bytes32","indexed":false,"internalType":"bytes32"}],"anonymous":false},{"type":"event","name":"phaseChanged","inputs":[{"name":"phase","type":"uint8","indexed":false,"internalType":"enum IZeroDay.PHASE"}],"anonymous":false},{"type":"error","name":"ERC2981InvalidDefaultRoyalty","inputs":[{"name":"numerator","type":"uint256","internalType":"uint256"},{"name":"denominator","type":"uint256","internalType":"uint256"}]},{"type":"error","name":"ERC2981InvalidDefaultRoyaltyReceiver","inputs":[{"name":"receiver","type":"address","internalType":"address"}]},{"type":"error","name":"ERC2981InvalidTokenRoyalty","inputs":[{"name":"tokenId","type":"uint256","internalType":"uint256"},{"name":"numerator","type":"uint256","internalType":"uint256"},{"name":"denominator","type":"uint256","internalType":"uint256"}]},{"type":"error","name":"ERC2981InvalidTokenRoyaltyReceiver","inputs":[{"name":"tokenId","type":"uint256","internalType":"uint256"},{"name":"receiver","type":"address","internalType":"address"}]},{"type":"error","name":"ERC721IncorrectOwner","inputs":[{"name":"sender","type":"address","internalType":"address"},{"name":"tokenId","type":"uint256","internalType":"uint256"},{"name":"owner","type":"address","internalType":"address"}]},{"type":"error","name":"ERC721InsufficientApproval","inputs":[{"name":"operator","type":"address","internalType":"address"},{"name":"tokenId","type":"uint256","internalType":"uint256"}]},{"type":"error","name":"ERC721InvalidApprover","inputs":[{"name":"approver","type":"address","internalType":"address"}]},{"type":"error","name":"ERC721InvalidOperator","inputs":[{"name":"operator","type":"address","internalType":"address"}]},{"type":"error","name":"ERC721InvalidOwner","inputs":[{"name":"owner","type":"address","internalType":"address"}]},{"type":"error","name":"ERC721InvalidReceiver","inputs":[{"name":"receiver","type":"address","internalType":"address"}]},{"type":"error","name":"ERC721InvalidSender","inputs":[{"name":"sender","type":"address","internalType":"address"}]},{"type":"error","name":"ERC721NonexistentToken","inputs":[{"name":"tokenId","type":"uint256","internalType":"uint256"}]},{"type":"error","name":"OwnableInvalidOwner","inputs":[{"name":"owner","type":"address","internalType":"address"}]},{"type":"error","name":"OwnableUnauthorizedAccount","inputs":[{"name":"account","type":"address","internalType":"address"}]},{"type":"error","name":"ReentrancyGuardReentrantCall","inputs":[]},{"type":"error","name":"ZeroDay__AlreadyMintedInWhiteList","inputs":[]},{"type":"error","name":"ZeroDay__ExceedsMaxSupply","inputs":[]},{"type":"error","name":"ZeroDay__MerkleProofHashesAreEmpty","inputs":[]},{"type":"error","name":"ZeroDay__NewMerkleRootHasSameNameWithOldMerkleRoot","inputs":[]},{"type":"error","name":"ZeroDay__PreSaleDateNotReached","inputs":[]},{"type":"error","name":"ZeroDay__PublicSaleDateNotReached","inputs":[]},{"type":"error","name":"ZeroDay__RevealDateNotReached","inputs":[]},{"type":"error","name":"ZeroDay__UserNotIncludedInWhiteList","inputs":[{"name":"user","type":"address","internalType":"address"}]},{"type":"error","name":"ZeroDay__WeAreNotInThisPhase","inputs":[]},{"type":"error","name":"ZeroDay__tokenIdHasNotMinted","inputs":[{"name":"tokenId","type":"uint256","internalType":"uint256"}]}],"bytecode":{"object":"0x6101006040523480156200001257600080fd5b50604051620025e8380380620025e883398101604081905262000035916200015e565b33604051806040016040528060078152602001665a65726f44617960c81b815250604051806040016040528060048152602001635a45524f60e01b815250816002908162000084919062000244565b50600362000093828262000244565b50506001600855506001600160a01b038116620000ca57604051631e4fbdf760e01b81526000600482015260240160405180910390fd5b620000d5816200010c565b5060809490945260a09290925260e09190915260c052600b556009805460ff60a01b1916600160a01b1790556000600a5562000310565b600980546001600160a01b038381166001600160a01b0319831681179093556040519116919082907f8be0079c531659141344cd1fd0a4f28419497f9722a3daafe3b4186f6b6457e090600090a35050565b600080600080600060a086880312156200017757600080fd5b5050835160208501516040860151606087015160809097015192989197509594509092509050565b634e487b7160e01b600052604160045260246000fd5b600181811c90821680620001ca57607f821691505b602082108103620001eb57634e487b7160e01b600052602260045260246000fd5b50919050565b601f8211156200023f57600081815260208120601f850160051c810160208610156200021a5750805b601f850160051c820191505b818110156200023b5782815560010162000226565b5050505b505050565b81516001600160401b038111156200026057620002606200019f565b6200027881620002718454620001b5565b84620001f1565b602080601f831160018114620002b05760008415620002975750858301515b600019600386901b1c1916600185901b1785556200023b565b600085815260208120601f198616915b82811015620002e157888601518255948401946001909101908401620002c0565b5085821015620003005787850151600019600388901b60f8161c191681555b5050505050600190811b01905550565b60805160a05160c05160e05161227b6200036d600039600081816102e1015281816108500152610ec50152600081816106ac01528181610bbb0152610e940152600081816104350152610b8a015260006103d7015261227b6000f3fe6080604052600436106102045760003560e01c806370a0823111610118578063b88d4fde116100a0578063e985e9c51161006f578063e985e9c514610627578063ebcea3db14610647578063f2fde38b14610667578063fb37e88314610687578063fc3602f11461069a57600080fd5b8063b88d4fde146105b1578063c87b56dd146105d1578063d71f41be146105f1578063e93e73bb1461060957600080fd5b806395d89b41116100e757806395d89b411461052057806397254e5514610535578063a22cb46514610555578063a3a40ea514610575578063ad72202b1461059c57600080fd5b806370a08231146104b0578063715018a6146104d05780638da5cb5b146104e557806394cc41401461050357600080fd5b80632a55205a1161019b578063495906571161016a57806349590657146103f957806355dd574c1461040e5780635f6266de146104235780636352211e14610457578063692c4d721461047757600080fd5b80632a55205a146103465780633bb3a24d1461038557806342842e0e146103a557806345dce0bd146103c557600080fd5b80630c1c972a116101d75780630c1c972a146102ba578063104d41c0146102cf57806318160ddd1461031157806323b872dd1461032657600080fd5b806301ffc9a71461020957806306fdde031461023e578063081812fc14610260578063095ea7b314610298575b600080fd5b34801561021557600080fd5b50610229610224366004611bb3565b6106ce565b60405190151581526020015b60405180910390f35b34801561024a57600080fd5b506102536106df565b6040516102359190611c20565b34801561026c57600080fd5b5061028061027b366004611c33565b610771565b6040516001600160a01b039091168152602001610235565b3480156102a457600080fd5b506102b86102b3366004611c68565b61079a565b005b3480156102c657600080fd5b506102b86107a9565b3480156102db57600080fd5b506103037f000000000000000000000000000000000000000000000000000000000000000081565b604051908152602001610235565b34801561031d57600080fd5b50600a54610303565b34801561033257600080fd5b506102b8610341366004611c92565b6108f5565b34801561035257600080fd5b50610366610361366004611cce565b610980565b604080516001600160a01b039093168352602083019190915201610235565b34801561039157600080fd5b506102536103a0366004611c33565b610a2c565b3480156103b157600080fd5b506102b86103c0366004611c92565b610ace565b3480156103d157600080fd5b506103037f000000000000000000000000000000000000000000000000000000000000000081565b34801561040557600080fd5b50600b54610303565b34801561041a57600080fd5b506102b8610aee565b34801561042f57600080fd5b506103037f000000000000000000000000000000000000000000000000000000000000000081565b34801561046357600080fd5b50610280610472366004611c33565b610c3e565b34801561048357600080fd5b50610229610492366004611cf0565b6001600160a01b03166000908152600d602052604090205460ff1690565b3480156104bc57600080fd5b506103036104cb366004611cf0565b610c49565b3480156104dc57600080fd5b506102b8610c91565b3480156104f157600080fd5b506009546001600160a01b0316610280565b34801561050f57600080fd5b50600c54610100900460ff16610229565b34801561052c57600080fd5b50610253610ca5565b34801561054157600080fd5b506102b8610550366004611d52565b610cb4565b34801561056157600080fd5b506102b8610570366004611df8565b610de8565b34801561058157600080fd5b50600954600160a01b900460ff166040516102359190611e4a565b3480156105a857600080fd5b506102b8610df3565b3480156105bd57600080fd5b506102b86105cc366004611eca565b610f5d565b3480156105dd57600080fd5b506102536105ec366004611c33565b610f74565b3480156105fd57600080fd5b50600c5460ff16610229565b34801561061557600080fd5b50600c5462010000900460ff16610229565b34801561063357600080fd5b50610229610642366004611f46565b611096565b34801561065357600080fd5b506102b8610662366004611c33565b6110c4565b34801561067357600080fd5b506102b8610682366004611cf0565b611123565b6102b8610695366004611f79565b61115e565b3480156106a657600080fd5b506103037f000000000000000000000000000000000000000000000000000000000000000081565b60006106d98261127d565b92915050565b6060600280546106ee90611fc2565b80601f016020809104026020016040519081016040528092919081815260200182805461071a90611fc2565b80156107675780601f1061073c57610100808354040283529160200191610767565b820191906000526020600020905b81548152906001019060200180831161074a57829003601f168201915b5050505050905090565b600061077c826112bd565b506000828152600660205260409020546001600160a01b03166106d9565b6107a58282336112f6565b5050565b6107b1611303565b600280600954600160a01b900460ff1660038111156107d2576107d2611e34565b146107f0576040516314f654af60e11b815260040160405180910390fd5b600c5462010000900460ff161561084e5760405162461bcd60e51b815260206004820152601a60248201527f5a65726f4461795f5f7075626c696353616c65644265666f726500000000000060448201526064015b60405180910390fd5b7f00000000000000000000000000000000000000000000000000000000000000004263ffffffff16101561089557604051632ed53c1b60e11b815260040160405180910390fd5b600c805462ff00001916620100001790556009805460ff60a01b1916600360a01b1790556040517f6e95ed764170cfef59dda5e1ac3807631b7a671104ce4df3bdc070de9cecf808906108ea90600390611e4a565b60405180910390a150565b6001600160a01b03821661091f57604051633250574960e11b815260006004820152602401610845565b600061092c838333611330565b9050836001600160a01b0316816001600160a01b03161461097a576040516364283d7b60e01b81526001600160a01b0380861660048301526024820184905282166044820152606401610845565b50505050565b60008281526001602090815260408083208151808301909252546001600160a01b038116808352600160a01b9091046001600160601b03169282019290925282916109f55750604080518082019091526000546001600160a01b0381168252600160a01b90046001600160601b031660208201525b602081015160009061271090610a14906001600160601b031687612012565b610a1e9190612029565b915196919550909350505050565b6000818152600e60205260409020805460609190610a4990611fc2565b80601f0160208091040260200160405190810160405280929190818152602001828054610a7590611fc2565b8015610ac25780601f10610a9757610100808354040283529160200191610ac2565b820191906000526020600020905b815481529060010190602001808311610aa557829003601f168201915b50505050509050919050565b610ae983838360405180602001604052806000815250610f5d565b505050565b610af6611303565b600180600954600160a01b900460ff166003811115610b1757610b17611e34565b14610b35576040516314f654af60e11b815260040160405180910390fd5b600c5460ff1615610b885760405162461bcd60e51b815260206004820152601760248201527f5a65726f4461795f5f70726553616c65644265666f72650000000000000000006044820152606401610845565b7f00000000000000000000000000000000000000000000000000000000000000004263ffffffff1610158015610be357507f00000000000000000000000000000000000000000000000000000000000000004263ffffffff16105b610c0057604051635c700aa760e11b815260040160405180910390fd5b600c805460ff191660019081179091556040517f6e95ed764170cfef59dda5e1ac3807631b7a671104ce4df3bdc070de9cecf808916108ea91611e4a565b60006106d9826112bd565b60006001600160a01b038216610c75576040516322718ad960e21b815260006004820152602401610845565b506001600160a01b031660009081526005602052604090205490565b610c99611303565b610ca36000611429565b565b6060600380546106ee90611fc2565b610cbc61147b565b600180600954600160a01b900460ff166003811115610cdd57610cdd611e34565b14610cfb576040516314f654af60e11b815260040160405180910390fd5b6126ff610d07600a5490565b610d1290600161204b565b1115610d315760405163610323c760e01b815260040160405180910390fd5b815115610d51576040516301696f4160e11b815260040160405180910390fd5b336000908152600d602052604090205460ff1615610d825760405163269727ef60e01b815260040160405180910390fd5b336000818152600d60205260409020805460ff19166001179055610da79083906114a5565b6040513381527f0f07877447a50a723845caebf5eda4c73988d5d4cd4392e276160d5959d7f9c09060200160405180910390a150610de56001600855565b50565b6107a533838361153a565b610dfb611303565b600180600954600160a01b900460ff166003811115610e1c57610e1c611e34565b14610e3a576040516314f654af60e11b815260040160405180910390fd5b600c54610100900460ff1615610e925760405162461bcd60e51b815260206004820152601760248201527f5a65726f4461795f5f52656576616c65644265666f72650000000000000000006044820152606401610845565b7f00000000000000000000000000000000000000000000000000000000000000004263ffffffff1610158015610eed57507f00000000000000000000000000000000000000000000000000000000000000004263ffffffff16105b610f0a576040516325a781f160e11b815260040160405180910390fd5b600c805461ff0019166101001790556009805460ff60a01b1916600160a11b1790556040517f6e95ed764170cfef59dda5e1ac3807631b7a671104ce4df3bdc070de9cecf808906108ea90600290611e4a565b610f688484846108f5565b61097a848484846115d9565b6000818152600e6020526040812080546060929190610f9290611fc2565b80601f0160208091040260200160405190810160405280929190818152602001828054610fbe90611fc2565b801561100b5780601f10610fe05761010080835404028352916020019161100b565b820191906000526020600020905b815481529060010190602001808311610fee57829003601f168201915b505050505090508051600003611037576040516336b0abc560e01b815260048101849052602401610845565b60408051808201909152601581527468747470733a2f2f697066732e696f2f697066732f60581b60208201528161106d85611702565b60405160200161107f9392919061205e565b604051602081830303815290604052915050919050565b6001600160a01b03918216600090815260076020908152604080832093909416825291909152205460ff1690565b6110cc611303565b600b5481036110ee57604051632546ab2360e21b815260040160405180910390fd5b600b8190556040518181527f72bc5e181bb490da5a7c279c8dbfb225cabd111f78ed2ffc2c1953ad9ce9875b906020016108ea565b61112b611303565b6001600160a01b03811661115557604051631e4fbdf760e01b815260006004820152602401610845565b610de581611429565b61116661147b565b600380600954600160a01b900460ff16600381111561118757611187611e34565b146111a5576040516314f654af60e11b815260040160405180910390fd5b6126ff6111b1600a5490565b6111bc90600161204b565b11156111db5760405163610323c760e01b815260040160405180910390fd5b815160000361122c5760405162461bcd60e51b815260206004820152601860248201527f5a65726f4461795f5f496e76616c6964546f6b656e55524900000000000000006044820152606401610845565b6000611237600a5490565b61124290600161204b565b6000818152600e6020526040902090915061125d84826120fc565b50600a805460010190556112713382611795565b5050610de56001600855565b60006001600160e01b031982166380ac58cd60e01b14806112ae57506001600160e01b03198216635b5e139f60e01b145b806106d957506106d9826117af565b6000818152600460205260408120546001600160a01b0316806106d957604051637e27328960e01b815260048101849052602401610845565b610ae983838360016117e4565b6009546001600160a01b03163314610ca35760405163118cdaa760e01b8152336004820152602401610845565b6000828152600460205260408120546001600160a01b039081169083161561135d5761135d8184866118ea565b6001600160a01b0381161561139b5761137a6000856000806117e4565b6001600160a01b038116600090815260056020526040902080546000190190555b6001600160a01b038516156113ca576001600160a01b0385166000908152600560205260409020805460010190555b60008481526004602052604080822080546001600160a01b0319166001600160a01b0389811691821790925591518793918516917fddf252ad1be2c89b69c2b068fc378daa952ba7f163c4a11628f55a4df523b3ef91a4949350505050565b600980546001600160a01b038381166001600160a01b0319831681179093556040519116919082907f8be0079c531659141344cd1fd0a4f28419497f9722a3daafe3b4186f6b6457e090600090a35050565b60026008540361149e57604051633ee5aeb560e01b815260040160405180910390fd5b6002600855565b6040516bffffffffffffffffffffffff19606083901b1660208201526000906034016040516020818303038152906040528051906020012090506114ec83600b548361194e565b61151457604051632ef744ed60e01b81526001600160a01b0383166004820152602401610845565b600a80546001019055610ae98261152a600a5490565b61153590600161204b565b611795565b6001600160a01b03821661156c57604051630b61174360e31b81526001600160a01b0383166004820152602401610845565b6001600160a01b03838116600081815260076020908152604080832094871680845294825291829020805460ff191686151590811790915591519182527f17307eab39ab6107e8899845ad3d59bd9653f200f220920489ca2b5937696c31910160405180910390a3505050565b6001600160a01b0383163b1561097a57604051630a85bd0160e11b81526001600160a01b0384169063150b7a029061161b9033908890879087906004016121bc565b6020604051808303816000875af1925050508015611656575060408051601f3d908101601f19168201909252611653918101906121f9565b60015b6116bf573d808015611684576040519150601f19603f3d011682016040523d82523d6000602084013e611689565b606091505b5080516000036116b757604051633250574960e11b81526001600160a01b0385166004820152602401610845565b805181602001fd5b6001600160e01b03198116630a85bd0160e11b146116fb57604051633250574960e11b81526001600160a01b0385166004820152602401610845565b5050505050565b6060600061170f83611964565b600101905060008167ffffffffffffffff81111561172f5761172f611d0b565b6040519080825280601f01601f191660200182016040528015611759576020820181803683370190505b5090508181016020015b600019016f181899199a1a9b1b9c1cb0b131b232b360811b600a86061a8153600a850494508461176357509392505050565b6107a5828260405180602001604052806000815250611a3c565b60006001600160e01b0319821663152a902d60e11b14806106d957506301ffc9a760e01b6001600160e01b03198316146106d9565b80806117f857506001600160a01b03821615155b156118ba576000611808846112bd565b90506001600160a01b038316158015906118345750826001600160a01b0316816001600160a01b031614155b801561184757506118458184611096565b155b156118705760405163a9fbf51f60e01b81526001600160a01b0384166004820152602401610845565b81156118b85783856001600160a01b0316826001600160a01b03167f8c5be1e5ebec7d5bd14f71427d1e84f3dd0314c0f7b2291e5b200ac8c7c3b92560405160405180910390a45b505b5050600090815260066020526040902080546001600160a01b0319166001600160a01b0392909216919091179055565b6118f5838383611a53565b610ae9576001600160a01b03831661192357604051637e27328960e01b815260048101829052602401610845565b60405163177e802f60e01b81526001600160a01b038316600482015260248101829052604401610845565b60008261195b8584611ab9565b14949350505050565b60008072184f03e93ff9f4daa797ed6e38ed64bf6a1f0160401b83106119a35772184f03e93ff9f4daa797ed6e38ed64bf6a1f0160401b830492506040015b6d04ee2d6d415b85acef810000000083106119cf576d04ee2d6d415b85acef8100000000830492506020015b662386f26fc1000083106119ed57662386f26fc10000830492506010015b6305f5e1008310611a05576305f5e100830492506008015b6127108310611a1957612710830492506004015b60648310611a2b576064830492506002015b600a83106106d95760010192915050565b611a468383611b06565b610ae960008484846115d9565b60006001600160a01b03831615801590611ab15750826001600160a01b0316846001600160a01b03161480611a8d5750611a8d8484611096565b80611ab157506000828152600660205260409020546001600160a01b038481169116145b949350505050565b600081815b8451811015611afe57611aea82868381518110611add57611add612216565b6020026020010151611b6b565b915080611af68161222c565b915050611abe565b509392505050565b6001600160a01b038216611b3057604051633250574960e11b815260006004820152602401610845565b6000611b3e83836000611330565b90506001600160a01b03811615610ae9576040516339e3563760e11b815260006004820152602401610845565b6000818310611b87576000828152602084905260409020611b96565b60008381526020839052604090205b9392505050565b6001600160e01b031981168114610de557600080fd5b600060208284031215611bc557600080fd5b8135611b9681611b9d565b60005b83811015611beb578181015183820152602001611bd3565b50506000910152565b60008151808452611c0c816020860160208601611bd0565b601f01601f19169290920160200192915050565b602081526000611b966020830184611bf4565b600060208284031215611c4557600080fd5b5035919050565b80356001600160a01b0381168114611c6357600080fd5b919050565b60008060408385031215611c7b57600080fd5b611c8483611c4c565b946020939093013593505050565b600080600060608486031215611ca757600080fd5b611cb084611c4c565b9250611cbe60208501611c4c565b9150604084013590509250925092565b60008060408385031215611ce157600080fd5b50508035926020909101359150565b600060208284031215611d0257600080fd5b611b9682611c4c565b634e487b7160e01b600052604160045260246000fd5b604051601f8201601f1916810167ffffffffffffffff81118282101715611d4a57611d4a611d0b565b604052919050565b60006020808385031215611d6557600080fd5b823567ffffffffffffffff80821115611d7d57600080fd5b818501915085601f830112611d9157600080fd5b813581811115611da357611da3611d0b565b8060051b9150611db4848301611d21565b8181529183018401918481019088841115611dce57600080fd5b938501935b83851015611dec57843582529385019390850190611dd3565b98975050505050505050565b60008060408385031215611e0b57600080fd5b611e1483611c4c565b915060208301358015158114611e2957600080fd5b809150509250929050565b634e487b7160e01b600052602160045260246000fd5b6020810160048310611e6c57634e487b7160e01b600052602160045260246000fd5b91905290565b600067ffffffffffffffff831115611e8c57611e8c611d0b565b611e9f601f8401601f1916602001611d21565b9050828152838383011115611eb357600080fd5b828260208301376000602084830101529392505050565b60008060008060808587031215611ee057600080fd5b611ee985611c4c565b9350611ef760208601611c4c565b925060408501359150606085013567ffffffffffffffff811115611f1a57600080fd5b8501601f81018713611f2b57600080fd5b611f3a87823560208401611e72565b91505092959194509250565b60008060408385031215611f5957600080fd5b611f6283611c4c565b9150611f7060208401611c4c565b90509250929050565b600060208284031215611f8b57600080fd5b813567ffffffffffffffff811115611fa257600080fd5b8201601f81018413611fb357600080fd5b611ab184823560208401611e72565b600181811c90821680611fd657607f821691505b602082108103611ff657634e487b7160e01b600052602260045260246000fd5b50919050565b634e487b7160e01b600052601160045260246000fd5b80820281158282048414176106d9576106d9611ffc565b60008261204657634e487b7160e01b600052601260045260246000fd5b500490565b808201808211156106d9576106d9611ffc565b60008451612070818460208901611bd0565b845190830190612084818360208901611bd0565b602f60f81b910190815283516120a1816001840160208801611bd0565b0160010195945050505050565b601f821115610ae957600081815260208120601f850160051c810160208610156120d55750805b601f850160051c820191505b818110156120f4578281556001016120e1565b505050505050565b815167ffffffffffffffff81111561211657612116611d0b565b61212a816121248454611fc2565b846120ae565b602080601f83116001811461215f57600084156121475750858301515b600019600386901b1c1916600185901b1785556120f4565b600085815260208120601f198616915b8281101561218e5788860151825594840194600190910190840161216f565b50858210156121ac5787850151600019600388901b60f8161c191681555b5050505050600190811b01905550565b6001600160a01b03858116825284166020820152604081018390526080606082018190526000906121ef90830184611bf4565b9695505050505050565b60006020828403121561220b57600080fd5b8151611b9681611b9d565b634e487b7160e01b600052603260045260246000fd5b60006001820161223e5761223e611ffc565b506001019056fea264697066735822122096e42552dbe545dfce07f0eec3a2338a191727e864e648d6218f82544a1d864364736f6c63430008140033","linkReferences":{}},"methodIdentifiers":{"approve(address,uint256)":"095ea7b3","balanceOf(address)":"70a08231","changeMerkleRoot(bytes32)":"ebcea3db","getApproved(uint256)":"081812fc","getCurrentPhase()":"a3a40ea5","getMerkleRoot()":"49590657","getPreSaled()":"d71f41be","getPublicSaled()":"e93e73bb","getRevealed()":"94cc4140","getTokenURI(uint256)":"3bb3a24d","getWhiteListMinterStatus(address)":"692c4d72","i_init_pre_sale_price()":"45dce0bd","i_startPreSaleDate()":"5f6266de","i_startPublicSaleDate()":"104d41c0","i_startRevealDate()":"fc3602f1","isApprovedForAll(address,address)":"e985e9c5","mintNFT(string)":"fb37e883","name()":"06fdde03","owner()":"8da5cb5b","ownerOf(uint256)":"6352211e","renounceOwnership()":"715018a6","royaltyInfo(uint256,uint256)":"2a55205a","safeTransferFrom(address,address,uint256)":"42842e0e","safeTransferFrom(address,address,uint256,bytes)":"b88d4fde","setApprovalForAll(address,bool)":"a22cb465","startPreSale()":"55dd574c","startPublicSale()":"0c1c972a","startReveal()":"ad72202b","supportsInterface(bytes4)":"01ffc9a7","symbol()":"95d89b41","tokenURI(uint256)":"c87b56dd","totalSupply()":"18160ddd","transferFrom(address,address,uint256)":"23b872dd","transferOwnership(address)":"f2fde38b","whiteListMint(bytes32[])":"97254e55"},"id":44}