{"abi":[{"type":"constructor","inputs":[{"name":"_init_pre_sale_price","type":"uint256","internalType":"uint256"},{"name":"_merkle_root","type":"bytes32","internalType":"bytes32"}],"stateMutability":"nonpayable"},{"type":"function","name":"approve","inputs":[{"name":"spender","type":"address","internalType":"address"},{"name":"id","type":"uint256","internalType":"uint256"}],"outputs":[],"stateMutability":"nonpayable"},{"type":"function","name":"balanceOf","inputs":[{"name":"owner","type":"address","internalType":"address"}],"outputs":[{"name":"","type":"uint256","internalType":"uint256"}],"stateMutability":"view"},{"type":"function","name":"getApproved","inputs":[{"name":"","type":"uint256","internalType":"uint256"}],"outputs":[{"name":"","type":"address","internalType":"address"}],"stateMutability":"view"},{"type":"function","name":"isApprovedForAll","inputs":[{"name":"","type":"address","internalType":"address"},{"name":"","type":"address","internalType":"address"}],"outputs":[{"name":"","type":"bool","internalType":"bool"}],"stateMutability":"view"},{"type":"function","name":"name","inputs":[],"outputs":[{"name":"","type":"string","internalType":"string"}],"stateMutability":"view"},{"type":"function","name":"owner","inputs":[],"outputs":[{"name":"","type":"address","internalType":"address"}],"stateMutability":"view"},{"type":"function","name":"ownerOf","inputs":[{"name":"id","type":"uint256","internalType":"uint256"}],"outputs":[{"name":"owner","type":"address","internalType":"address"}],"stateMutability":"view"},{"type":"function","name":"renounceOwnership","inputs":[],"outputs":[],"stateMutability":"nonpayable"},{"type":"function","name":"safeTransferFrom","inputs":[{"name":"from","type":"address","internalType":"address"},{"name":"to","type":"address","internalType":"address"},{"name":"id","type":"uint256","internalType":"uint256"}],"outputs":[],"stateMutability":"nonpayable"},{"type":"function","name":"safeTransferFrom","inputs":[{"name":"from","type":"address","internalType":"address"},{"name":"to","type":"address","internalType":"address"},{"name":"id","type":"uint256","internalType":"uint256"},{"name":"data","type":"bytes","internalType":"bytes"}],"outputs":[],"stateMutability":"nonpayable"},{"type":"function","name":"setApprovalForAll","inputs":[{"name":"operator","type":"address","internalType":"address"},{"name":"approved","type":"bool","internalType":"bool"}],"outputs":[],"stateMutability":"nonpayable"},{"type":"function","name":"supportsInterface","inputs":[{"name":"interfaceId","type":"bytes4","internalType":"bytes4"}],"outputs":[{"name":"","type":"bool","internalType":"bool"}],"stateMutability":"view"},{"type":"function","name":"symbol","inputs":[],"outputs":[{"name":"","type":"string","internalType":"string"}],"stateMutability":"view"},{"type":"function","name":"tokenURI","inputs":[{"name":"id","type":"uint256","internalType":"uint256"}],"outputs":[{"name":"","type":"string","internalType":"string"}],"stateMutability":"view"},{"type":"function","name":"transferFrom","inputs":[{"name":"from","type":"address","internalType":"address"},{"name":"to","type":"address","internalType":"address"},{"name":"id","type":"uint256","internalType":"uint256"}],"outputs":[],"stateMutability":"nonpayable"},{"type":"function","name":"transferOwnership","inputs":[{"name":"newOwner","type":"address","internalType":"address"}],"outputs":[],"stateMutability":"nonpayable"},{"type":"function","name":"whiteListMin","inputs":[{"name":"_merkleProof","type":"bytes32[]","internalType":"bytes32[]"}],"outputs":[],"stateMutability":"nonpayable"},{"type":"event","name":"Approval","inputs":[{"name":"owner","type":"address","indexed":true,"internalType":"address"},{"name":"spender","type":"address","indexed":true,"internalType":"address"},{"name":"id","type":"uint256","indexed":true,"internalType":"uint256"}],"anonymous":false},{"type":"event","name":"ApprovalForAll","inputs":[{"name":"owner","type":"address","indexed":true,"internalType":"address"},{"name":"operator","type":"address","indexed":true,"internalType":"address"},{"name":"approved","type":"bool","indexed":false,"internalType":"bool"}],"anonymous":false},{"type":"event","name":"OwnershipTransferred","inputs":[{"name":"previousOwner","type":"address","indexed":true,"internalType":"address"},{"name":"newOwner","type":"address","indexed":true,"internalType":"address"}],"anonymous":false},{"type":"event","name":"Transfer","inputs":[{"name":"from","type":"address","indexed":true,"internalType":"address"},{"name":"to","type":"address","indexed":true,"internalType":"address"},{"name":"id","type":"uint256","indexed":true,"internalType":"uint256"}],"anonymous":false},{"type":"error","name":"OwnableInvalidOwner","inputs":[{"name":"owner","type":"address","internalType":"address"}]},{"type":"error","name":"OwnableUnauthorizedAccount","inputs":[{"name":"account","type":"address","internalType":"address"}]},{"type":"error","name":"ReentrancyGuardReentrantCall","inputs":[]},{"type":"error","name":"ZeroDay__MerkleProofHashesAreEmpty","inputs":[]},{"type":"error","name":"ZeroDay__ZeroAmountNotAllowed","inputs":[]},{"type":"error","name":"Zero__AlreadyMintedInWhiteList","inputs":[]}],"bytecode":{"object":"0x60c06040523480156200001157600080fd5b506040516200112438038062001124833981016040819052620000349162000127565b60408051808201825260078152665a65726f44617960c81b602080830191909152825180840190935260048352635a45524f60e01b9083015260016000559033806200009a57604051631e4fbdf760e01b81526000600482015260240160405180910390fd5b620000a581620000d5565b506002620000b48382620001f1565b506003620000c38282620001f1565b50505060809190915260a052620002bd565b600180546001600160a01b038381166001600160a01b0319831681179093556040519116919082907f8be0079c531659141344cd1fd0a4f28419497f9722a3daafe3b4186f6b6457e090600090a35050565b600080604083850312156200013b57600080fd5b505080516020909101519092909150565b634e487b7160e01b600052604160045260246000fd5b600181811c908216806200017757607f821691505b6020821081036200019857634e487b7160e01b600052602260045260246000fd5b50919050565b601f821115620001ec57600081815260208120601f850160051c81016020861015620001c75750805b601f850160051c820191505b81811015620001e857828155600101620001d3565b5050505b505050565b81516001600160401b038111156200020d576200020d6200014c565b62000225816200021e845462000162565b846200019e565b602080601f8311600181146200025d5760008415620002445750858301515b600019600386901b1c1916600185901b178555620001e8565b600085815260208120601f198616915b828110156200028e578886015182559484019460019091019084016200026d565b5085821015620002ad5787850151600019600388901b60f8161c191681555b5050505050600190811b01905550565b60805160a051610e47620002dd6000396000505060005050610e476000f3fe608060405234801561001057600080fd5b506004361061010b5760003560e01c806370a08231116100a2578063a22cb46511610071578063a22cb46514610231578063b88d4fde14610244578063c87b56dd14610257578063e985e9c51461026b578063f2fde38b1461029957600080fd5b806370a08231146101ef578063715018a6146102105780638da5cb5b1461021857806395d89b411461022957600080fd5b80630d90f02f116100de5780630d90f02f146101a357806323b872dd146101b657806342842e0e146101c95780636352211e146101dc57600080fd5b806301ffc9a71461011057806306fdde0314610138578063081812fc1461014d578063095ea7b31461018e575b600080fd5b61012361011e366004610ac4565b6102ac565b60405190151581526020015b60405180910390f35b6101406102fe565b60405161012f9190610ae8565b61017661015b366004610b36565b6006602052600090815260409020546001600160a01b031681565b6040516001600160a01b03909116815260200161012f565b6101a161019c366004610b66565b61038c565b005b6101a16101b1366004610b90565b610473565b6101a16101c4366004610c05565b6104d9565b6101a16101d7366004610c05565b6106a0565b6101766101ea366004610b36565b610798565b6102026101fd366004610c41565b6107ef565b60405190815260200161012f565b6101a1610852565b6001546001600160a01b0316610176565b610140610866565b6101a161023f366004610c5c565b610873565b6101a1610252366004610c98565b6108df565b610140610265366004610b36565b50606090565b610123610279366004610d33565b600760209081526000928352604080842090915290825290205460ff1681565b6101a16102a7366004610c41565b6109c7565b60006301ffc9a760e01b6001600160e01b0319831614806102dd57506380ac58cd60e01b6001600160e01b03198316145b806102f85750635b5e139f60e01b6001600160e01b03198316145b92915050565b6002805461030b90610d66565b80601f016020809104026020016040519081016040528092919081815260200182805461033790610d66565b80156103845780601f1061035957610100808354040283529160200191610384565b820191906000526020600020905b81548152906001019060200180831161036757829003601f168201915b505050505081565b6000818152600460205260409020546001600160a01b0316338114806103d557506001600160a01b038116600090815260076020908152604080832033845290915290205460ff165b6104175760405162461bcd60e51b815260206004820152600e60248201526d1393d517d055551213d49256915160921b60448201526064015b60405180910390fd5b60008281526006602052604080822080546001600160a01b0319166001600160a01b0387811691821790925591518593918516917f8c5be1e5ebec7d5bd14f71427d1e84f3dd0314c0f7b2291e5b200ac8c7c3b92591a4505050565b61047b610a05565b801561049a576040516301696f4160e11b815260040160405180910390fd5b3360009081526008602052604090205460ff16156104cb57604051637abf452760e11b815260040160405180910390fd5b6104d56001600055565b5050565b6000818152600460205260409020546001600160a01b0384811691161461052f5760405162461bcd60e51b815260206004820152600a60248201526957524f4e475f46524f4d60b01b604482015260640161040e565b6001600160a01b0382166105795760405162461bcd60e51b81526020600482015260116024820152701253959053125117d49150d25412515395607a1b604482015260640161040e565b336001600160a01b03841614806105b357506001600160a01b038316600090815260076020908152604080832033845290915290205460ff165b806105d457506000818152600660205260409020546001600160a01b031633145b6106115760405162461bcd60e51b815260206004820152600e60248201526d1393d517d055551213d49256915160921b604482015260640161040e565b6001600160a01b0380841660008181526005602090815260408083208054600019019055938616808352848320805460010190558583526004825284832080546001600160a01b03199081168317909155600690925284832080549092169091559251849392917fddf252ad1be2c89b69c2b068fc378daa952ba7f163c4a11628f55a4df523b3ef91a4505050565b6106ab8383836104d9565b6001600160a01b0382163b15806107545750604051630a85bd0160e11b8082523360048301526001600160a01b03858116602484015260448301849052608060648401526000608484015290919084169063150b7a029060a4016020604051808303816000875af1158015610724573d6000803e3d6000fd5b505050506040513d601f19601f820116820180604052508101906107489190610da0565b6001600160e01b031916145b6107935760405162461bcd60e51b815260206004820152601060248201526f155394d0519157d49150d2541251539560821b604482015260640161040e565b505050565b6000818152600460205260409020546001600160a01b0316806107ea5760405162461bcd60e51b815260206004820152600a6024820152691393d517d3525395115160b21b604482015260640161040e565b919050565b60006001600160a01b0382166108365760405162461bcd60e51b815260206004820152600c60248201526b5a45524f5f4144445245535360a01b604482015260640161040e565b506001600160a01b031660009081526005602052604090205490565b61085a610a2f565b6108646000610a5c565b565b6003805461030b90610d66565b3360008181526007602090815260408083206001600160a01b03871680855290835292819020805460ff191686151590811790915590519081529192917f17307eab39ab6107e8899845ad3d59bd9653f200f220920489ca2b5937696c31910160405180910390a35050565b6108ea8585856104d9565b6001600160a01b0384163b15806109815750604051630a85bd0160e11b808252906001600160a01b0386169063150b7a02906109329033908a90899089908990600401610dbd565b6020604051808303816000875af1158015610951573d6000803e3d6000fd5b505050506040513d601f19601f820116820180604052508101906109759190610da0565b6001600160e01b031916145b6109c05760405162461bcd60e51b815260206004820152601060248201526f155394d0519157d49150d2541251539560821b604482015260640161040e565b5050505050565b6109cf610a2f565b6001600160a01b0381166109f957604051631e4fbdf760e01b81526000600482015260240161040e565b610a0281610a5c565b50565b600260005403610a2857604051633ee5aeb560e01b815260040160405180910390fd5b6002600055565b6001546001600160a01b031633146108645760405163118cdaa760e01b815233600482015260240161040e565b600180546001600160a01b038381166001600160a01b0319831681179093556040519116919082907f8be0079c531659141344cd1fd0a4f28419497f9722a3daafe3b4186f6b6457e090600090a35050565b6001600160e01b031981168114610a0257600080fd5b600060208284031215610ad657600080fd5b8135610ae181610aae565b9392505050565b600060208083528351808285015260005b81811015610b1557858101830151858201604001528201610af9565b506000604082860101526040601f19601f8301168501019250505092915050565b600060208284031215610b4857600080fd5b5035919050565b80356001600160a01b03811681146107ea57600080fd5b60008060408385031215610b7957600080fd5b610b8283610b4f565b946020939093013593505050565b60008060208385031215610ba357600080fd5b823567ffffffffffffffff80821115610bbb57600080fd5b818501915085601f830112610bcf57600080fd5b813581811115610bde57600080fd5b8660208260051b8501011115610bf357600080fd5b60209290920196919550909350505050565b600080600060608486031215610c1a57600080fd5b610c2384610b4f565b9250610c3160208501610b4f565b9150604084013590509250925092565b600060208284031215610c5357600080fd5b610ae182610b4f565b60008060408385031215610c6f57600080fd5b610c7883610b4f565b915060208301358015158114610c8d57600080fd5b809150509250929050565b600080600080600060808688031215610cb057600080fd5b610cb986610b4f565b9450610cc760208701610b4f565b935060408601359250606086013567ffffffffffffffff80821115610ceb57600080fd5b818801915088601f830112610cff57600080fd5b813581811115610d0e57600080fd5b896020828501011115610d2057600080fd5b9699959850939650602001949392505050565b60008060408385031215610d4657600080fd5b610d4f83610b4f565b9150610d5d60208401610b4f565b90509250929050565b600181811c90821680610d7a57607f821691505b602082108103610d9a57634e487b7160e01b600052602260045260246000fd5b50919050565b600060208284031215610db257600080fd5b8151610ae181610aae565b6001600160a01b038681168252851660208201526040810184905260806060820181905281018290526000828460a0840137600060a0848401015260a0601f19601f8501168301019050969550505050505056fea2646970667358221220e011c5eb2269bd1d73e99020b6036f26ed9bfc64f14d52398b0482a5eb0a89f564736f6c63430008140033","linkReferences":{}},"methodIdentifiers":{"approve(address,uint256)":"095ea7b3","balanceOf(address)":"70a08231","getApproved(uint256)":"081812fc","isApprovedForAll(address,address)":"e985e9c5","name()":"06fdde03","owner()":"8da5cb5b","ownerOf(uint256)":"6352211e","renounceOwnership()":"715018a6","safeTransferFrom(address,address,uint256)":"42842e0e","safeTransferFrom(address,address,uint256,bytes)":"b88d4fde","setApprovalForAll(address,bool)":"a22cb465","supportsInterface(bytes4)":"01ffc9a7","symbol()":"95d89b41","tokenURI(uint256)":"c87b56dd","transferFrom(address,address,uint256)":"23b872dd","transferOwnership(address)":"f2fde38b","whiteListMin(bytes32[])":"0d90f02f"},"id":21}