{"abi":[{"type":"constructor","inputs":[{"name":"_init_pre_sale_price","type":"uint256","internalType":"uint256"},{"name":"_startPreSaleDate","type":"uint256","internalType":"uint256"},{"name":"_startRevealDate","type":"uint256","internalType":"uint256"},{"name":"_startPublicSaleDate","type":"uint256","internalType":"uint256"},{"name":"_merkle_root","type":"bytes32","internalType":"bytes32"}],"stateMutability":"nonpayable"},{"type":"function","name":"COLLECTION_MAX_SUPPLY","inputs":[],"outputs":[{"name":"","type":"uint256","internalType":"uint256"}],"stateMutability":"view"},{"type":"function","name":"PUBLIC_SALE_MINT_PRICE","inputs":[],"outputs":[{"name":"","type":"uint256","internalType":"uint256"}],"stateMutability":"view"},{"type":"function","name":"approve","inputs":[{"name":"to","type":"address","internalType":"address"},{"name":"tokenId","type":"uint256","internalType":"uint256"}],"outputs":[],"stateMutability":"nonpayable"},{"type":"function","name":"balanceOf","inputs":[{"name":"owner","type":"address","internalType":"address"}],"outputs":[{"name":"","type":"uint256","internalType":"uint256"}],"stateMutability":"view"},{"type":"function","name":"changeMerkleRoot","inputs":[{"name":"_newMerkleRoot","type":"bytes32","internalType":"bytes32"}],"outputs":[],"stateMutability":"nonpayable"},{"type":"function","name":"changePreSaleDate","inputs":[{"name":"_newPreSaleDate","type":"uint256","internalType":"uint256"}],"outputs":[],"stateMutability":"nonpayable"},{"type":"function","name":"changePublicSaleDate","inputs":[{"name":"_newPublicSaleDate","type":"uint256","internalType":"uint256"}],"outputs":[],"stateMutability":"nonpayable"},{"type":"function","name":"changeRevealDate","inputs":[{"name":"_newRevealDate","type":"uint256","internalType":"uint256"}],"outputs":[],"stateMutability":"nonpayable"},{"type":"function","name":"getApproved","inputs":[{"name":"tokenId","type":"uint256","internalType":"uint256"}],"outputs":[{"name":"","type":"address","internalType":"address"}],"stateMutability":"view"},{"type":"function","name":"getCurrentPhase","inputs":[],"outputs":[{"name":"","type":"uint8","internalType":"enum IZeroDay.PHASE"}],"stateMutability":"view"},{"type":"function","name":"getMerkleRoot","inputs":[],"outputs":[{"name":"","type":"bytes32","internalType":"bytes32"}],"stateMutability":"view"},{"type":"function","name":"getPreSaled","inputs":[],"outputs":[{"name":"","type":"bool","internalType":"bool"}],"stateMutability":"view"},{"type":"function","name":"getPublicSaled","inputs":[],"outputs":[{"name":"","type":"bool","internalType":"bool"}],"stateMutability":"view"},{"type":"function","name":"getRevealed","inputs":[],"outputs":[{"name":"","type":"bool","internalType":"bool"}],"stateMutability":"view"},{"type":"function","name":"getStartPreSaleDate","inputs":[],"outputs":[{"name":"","type":"uint256","internalType":"uint256"}],"stateMutability":"view"},{"type":"function","name":"getStartPublicSaleDate","inputs":[],"outputs":[{"name":"","type":"uint256","internalType":"uint256"}],"stateMutability":"view"},{"type":"function","name":"getStartRevealDate","inputs":[],"outputs":[{"name":"","type":"uint256","internalType":"uint256"}],"stateMutability":"view"},{"type":"function","name":"getWhiteListMinterStatus","inputs":[{"name":"_minter","type":"address","internalType":"address"}],"outputs":[{"name":"","type":"bool","internalType":"bool"}],"stateMutability":"view"},{"type":"function","name":"init_pre_sale_price","inputs":[],"outputs":[{"name":"","type":"uint256","internalType":"uint256"}],"stateMutability":"view"},{"type":"function","name":"isApprovedForAll","inputs":[{"name":"owner","type":"address","internalType":"address"},{"name":"operator","type":"address","internalType":"address"}],"outputs":[{"name":"","type":"bool","internalType":"bool"}],"stateMutability":"view"},{"type":"function","name":"mintNFT","inputs":[],"outputs":[],"stateMutability":"payable"},{"type":"function","name":"name","inputs":[],"outputs":[{"name":"","type":"string","internalType":"string"}],"stateMutability":"view"},{"type":"function","name":"owner","inputs":[],"outputs":[{"name":"","type":"address","internalType":"address"}],"stateMutability":"view"},{"type":"function","name":"ownerOf","inputs":[{"name":"tokenId","type":"uint256","internalType":"uint256"}],"outputs":[{"name":"","type":"address","internalType":"address"}],"stateMutability":"view"},{"type":"function","name":"renounceOwnership","inputs":[],"outputs":[],"stateMutability":"nonpayable"},{"type":"function","name":"royaltyInfo","inputs":[{"name":"tokenId","type":"uint256","internalType":"uint256"},{"name":"salePrice","type":"uint256","internalType":"uint256"}],"outputs":[{"name":"","type":"address","internalType":"address"},{"name":"","type":"uint256","internalType":"uint256"}],"stateMutability":"view"},{"type":"function","name":"safeTransferFrom","inputs":[{"name":"from","type":"address","internalType":"address"},{"name":"to","type":"address","internalType":"address"},{"name":"tokenId","type":"uint256","internalType":"uint256"}],"outputs":[],"stateMutability":"nonpayable"},{"type":"function","name":"safeTransferFrom","inputs":[{"name":"from","type":"address","internalType":"address"},{"name":"to","type":"address","internalType":"address"},{"name":"tokenId","type":"uint256","internalType":"uint256"},{"name":"data","type":"bytes","internalType":"bytes"}],"outputs":[],"stateMutability":"nonpayable"},{"type":"function","name":"setApprovalForAll","inputs":[{"name":"operator","type":"address","internalType":"address"},{"name":"approved","type":"bool","internalType":"bool"}],"outputs":[],"stateMutability":"nonpayable"},{"type":"function","name":"startPreSale","inputs":[],"outputs":[],"stateMutability":"nonpayable"},{"type":"function","name":"startPublicSale","inputs":[],"outputs":[],"stateMutability":"nonpayable"},{"type":"function","name":"startReveal","inputs":[],"outputs":[],"stateMutability":"nonpayable"},{"type":"function","name":"supportsInterface","inputs":[{"name":"interfaceId","type":"bytes4","internalType":"bytes4"}],"outputs":[{"name":"","type":"bool","internalType":"bool"}],"stateMutability":"view"},{"type":"function","name":"symbol","inputs":[],"outputs":[{"name":"","type":"string","internalType":"string"}],"stateMutability":"view"},{"type":"function","name":"tokenIdMinted","inputs":[{"name":"_tokenId","type":"uint256","internalType":"uint256"}],"outputs":[{"name":"","type":"bool","internalType":"bool"}],"stateMutability":"view"},{"type":"function","name":"tokenURI","inputs":[{"name":"_tokenId","type":"uint256","internalType":"uint256"}],"outputs":[{"name":"","type":"string","internalType":"string"}],"stateMutability":"view"},{"type":"function","name":"totalSupply","inputs":[],"outputs":[{"name":"","type":"uint256","internalType":"uint256"}],"stateMutability":"view"},{"type":"function","name":"transferFrom","inputs":[{"name":"from","type":"address","internalType":"address"},{"name":"to","type":"address","internalType":"address"},{"name":"tokenId","type":"uint256","internalType":"uint256"}],"outputs":[],"stateMutability":"nonpayable"},{"type":"function","name":"transferOwnership","inputs":[{"name":"newOwner","type":"address","internalType":"address"}],"outputs":[],"stateMutability":"nonpayable"},{"type":"function","name":"whiteListMint","inputs":[{"name":"_merkleProof","type":"bytes32[]","internalType":"bytes32[]"}],"outputs":[],"stateMutability":"payable"},{"type":"event","name":"Approval","inputs":[{"name":"owner","type":"address","indexed":true,"internalType":"address"},{"name":"approved","type":"address","indexed":true,"internalType":"address"},{"name":"tokenId","type":"uint256","indexed":true,"internalType":"uint256"}],"anonymous":false},{"type":"event","name":"ApprovalForAll","inputs":[{"name":"owner","type":"address","indexed":true,"internalType":"address"},{"name":"operator","type":"address","indexed":true,"internalType":"address"},{"name":"approved","type":"bool","indexed":false,"internalType":"bool"}],"anonymous":false},{"type":"event","name":"MintedInWhiteList","inputs":[{"name":"minter","type":"address","indexed":false,"internalType":"address"}],"anonymous":false},{"type":"event","name":"OwnershipTransferred","inputs":[{"name":"previousOwner","type":"address","indexed":true,"internalType":"address"},{"name":"newOwner","type":"address","indexed":true,"internalType":"address"}],"anonymous":false},{"type":"event","name":"Transfer","inputs":[{"name":"from","type":"address","indexed":true,"internalType":"address"},{"name":"to","type":"address","indexed":true,"internalType":"address"},{"name":"tokenId","type":"uint256","indexed":true,"internalType":"uint256"}],"anonymous":false},{"type":"event","name":"merkleRootChanged","inputs":[{"name":"newMerkleRoot","type":"bytes32","indexed":false,"internalType":"bytes32"}],"anonymous":false},{"type":"event","name":"phaseChanged","inputs":[{"name":"phase","type":"uint8","indexed":false,"internalType":"enum IZeroDay.PHASE"}],"anonymous":false},{"type":"error","name":"ERC2981InvalidDefaultRoyalty","inputs":[{"name":"numerator","type":"uint256","internalType":"uint256"},{"name":"denominator","type":"uint256","internalType":"uint256"}]},{"type":"error","name":"ERC2981InvalidDefaultRoyaltyReceiver","inputs":[{"name":"receiver","type":"address","internalType":"address"}]},{"type":"error","name":"ERC2981InvalidTokenRoyalty","inputs":[{"name":"tokenId","type":"uint256","internalType":"uint256"},{"name":"numerator","type":"uint256","internalType":"uint256"},{"name":"denominator","type":"uint256","internalType":"uint256"}]},{"type":"error","name":"ERC2981InvalidTokenRoyaltyReceiver","inputs":[{"name":"tokenId","type":"uint256","internalType":"uint256"},{"name":"receiver","type":"address","internalType":"address"}]},{"type":"error","name":"ERC721IncorrectOwner","inputs":[{"name":"sender","type":"address","internalType":"address"},{"name":"tokenId","type":"uint256","internalType":"uint256"},{"name":"owner","type":"address","internalType":"address"}]},{"type":"error","name":"ERC721InsufficientApproval","inputs":[{"name":"operator","type":"address","internalType":"address"},{"name":"tokenId","type":"uint256","internalType":"uint256"}]},{"type":"error","name":"ERC721InvalidApprover","inputs":[{"name":"approver","type":"address","internalType":"address"}]},{"type":"error","name":"ERC721InvalidOperator","inputs":[{"name":"operator","type":"address","internalType":"address"}]},{"type":"error","name":"ERC721InvalidOwner","inputs":[{"name":"owner","type":"address","internalType":"address"}]},{"type":"error","name":"ERC721InvalidReceiver","inputs":[{"name":"receiver","type":"address","internalType":"address"}]},{"type":"error","name":"ERC721InvalidSender","inputs":[{"name":"sender","type":"address","internalType":"address"}]},{"type":"error","name":"ERC721NonexistentToken","inputs":[{"name":"tokenId","type":"uint256","internalType":"uint256"}]},{"type":"error","name":"OwnableInvalidOwner","inputs":[{"name":"owner","type":"address","internalType":"address"}]},{"type":"error","name":"OwnableUnauthorizedAccount","inputs":[{"name":"account","type":"address","internalType":"address"}]},{"type":"error","name":"ReentrancyGuardReentrantCall","inputs":[]},{"type":"error","name":"ZeroDay__AlreadyMintedInWhiteList","inputs":[]},{"type":"error","name":"ZeroDay__ExceedsMaxSupply","inputs":[]},{"type":"error","name":"ZeroDay__MerkleProofHashesAreEmpty","inputs":[]},{"type":"error","name":"ZeroDay__NewMerkleRootHasSameNameWithOldMerkleRoot","inputs":[]},{"type":"error","name":"ZeroDay__NotSufficientBalanceToMint","inputs":[]},{"type":"error","name":"ZeroDay__PreSaleDateNotReached","inputs":[]},{"type":"error","name":"ZeroDay__PublicSaleDateNotReached","inputs":[]},{"type":"error","name":"ZeroDay__RevealDateNotReached","inputs":[]},{"type":"error","name":"ZeroDay__UserNotIncludedInWhiteList","inputs":[{"name":"user","type":"address","internalType":"address"}]},{"type":"error","name":"ZeroDay__WeAreNotInThisPhase","inputs":[]},{"type":"error","name":"ZeroDay__newDateIsAsSameAsOldOne","inputs":[]},{"type":"error","name":"ZeroDay__thisTokenIdHasNotMinted","inputs":[]}],"bytecode":{"object":"0x60a06040523480156200001157600080fd5b506040516200239b3803806200239b833981016040819052620000349162000157565b33604051806040016040528060078152602001665a65726f44617960c81b815250604051806040016040528060048152602001635a45524f60e01b81525081600290816200008391906200023d565b5060036200009282826200023d565b50506001600855506001600160a01b038116620000c957604051631e4fbdf760e01b81526000600482015260240160405180910390fd5b620000d48162000105565b50608094909452600a92909255600c91909155600b55600f55600d805460ff191660011790556000600e5562000309565b600980546001600160a01b038381166001600160a01b0319831681179093556040519116919082907f8be0079c531659141344cd1fd0a4f28419497f9722a3daafe3b4186f6b6457e090600090a35050565b600080600080600060a086880312156200017057600080fd5b5050835160208501516040860151606087015160809097015192989197509594509092509050565b634e487b7160e01b600052604160045260246000fd5b600181811c90821680620001c357607f821691505b602082108103620001e457634e487b7160e01b600052602260045260246000fd5b50919050565b601f8211156200023857600081815260208120601f850160051c81016020861015620002135750805b601f850160051c820191505b8181101562000234578281556001016200021f565b5050505b505050565b81516001600160401b0381111562000259576200025962000198565b62000271816200026a8454620001ae565b84620001ea565b602080601f831160018114620002a95760008415620002905750858301515b600019600386901b1c1916600185901b17855562000234565b600085815260208120601f198616915b82811015620002da57888601518255948401946001909101908401620002b9565b5085821015620002f95787850151600019600388901b60f8161c191681555b5050505050600190811b01905550565b60805161206f6200032c6000396000818161035f0152610dc6015261206f6000f3fe60806040526004361061023b5760003560e01c80638da5cb5b1161012e578063be35057d116100ab578063e93e73bb1161006f578063e93e73bb1461068d578063e985e9c5146106ab578063ebcea3db146106cb578063f2fde38b146106eb578063f843ae411461070b57600080fd5b8063be35057d146105f0578063c1d4f2f914610610578063c87b56dd14610640578063d26a8b9514610660578063d71f41be1461067557600080fd5b8063a22cb465116100f2578063a22cb46514610565578063a3a40ea514610585578063ad72202b146105a5578063b1164e83146105ba578063b88d4fde146105d057600080fd5b80638da5cb5b146104e257806394cc41401461050057806394d2717d1461051d57806395d89b411461053d57806397254e551461055257600080fd5b806323b872dd116101bc57806355dd574c1161018057806355dd574c1461043f5780636352211e14610454578063692c4d721461047457806370a08231146104ad578063715018a6146104cd57600080fd5b806323b872dd146103965780632a55205a146103b65780633fd4f8a4146103f557806342842e0e1461040a578063495906571461042a57600080fd5b806314f710fe1161020357806314f710fe1461030657806318160ddd1461030e5780631c9738351461032d5780631d25d5831461034d5780632052d2e91461038157600080fd5b806301ffc9a71461024057806306fdde0314610275578063081812fc14610297578063095ea7b3146102cf5780630c1c972a146102f1575b600080fd5b34801561024c57600080fd5b5061026061025b366004611b1f565b610727565b60405190151581526020015b60405180910390f35b34801561028157600080fd5b5061028a610738565b60405161026c9190611b8c565b3480156102a357600080fd5b506102b76102b2366004611b9f565b6107ca565b6040516001600160a01b03909116815260200161026c565b3480156102db57600080fd5b506102ef6102ea366004611bd4565b6107f3565b005b3480156102fd57600080fd5b506102ef610802565b6102ef610924565b34801561031a57600080fd5b50600e545b60405190815260200161026c565b34801561033957600080fd5b506102ef610348366004611b9f565b610a18565b34801561035957600080fd5b5061031f7f000000000000000000000000000000000000000000000000000000000000000081565b34801561038d57600080fd5b50600b5461031f565b3480156103a257600080fd5b506102ef6103b1366004611bfe565b610a47565b3480156103c257600080fd5b506103d66103d1366004611c3a565b610ad2565b604080516001600160a01b03909316835260208301919091520161026c565b34801561040157600080fd5b50600a5461031f565b34801561041657600080fd5b506102ef610425366004611bfe565b610b7e565b34801561043657600080fd5b50600f5461031f565b34801561044b57600080fd5b506102ef610b9e565b34801561046057600080fd5b506102b761046f366004611b9f565b610cab565b34801561048057600080fd5b5061026061048f366004611c5c565b6001600160a01b031660009081526011602052604090205460ff1690565b3480156104b957600080fd5b5061031f6104c8366004611c5c565b610cb6565b3480156104d957600080fd5b506102ef610cfe565b3480156104ee57600080fd5b506009546001600160a01b03166102b7565b34801561050c57600080fd5b50601054610100900460ff16610260565b34801561052957600080fd5b506102ef610538366004611b9f565b610d10565b34801561054957600080fd5b5061028a610d3f565b6102ef610560366004611cbe565b610d4e565b34801561057157600080fd5b506102ef610580366004611d64565b610ebe565b34801561059157600080fd5b50600d5460ff1660405161026c9190611db6565b3480156105b157600080fd5b506102ef610ec9565b3480156105c657600080fd5b5061031f6126ff81565b3480156105dc57600080fd5b506102ef6105eb366004611dde565b610feb565b3480156105fc57600080fd5b506102ef61060b366004611b9f565b611002565b34801561061c57600080fd5b5061026061062b366004611b9f565b60009081526012602052604090205460ff1690565b34801561064c57600080fd5b5061028a61065b366004611b9f565b611031565b34801561066c57600080fd5b50600c5461031f565b34801561068157600080fd5b5060105460ff16610260565b34801561069957600080fd5b5060105462010000900460ff16610260565b3480156106b757600080fd5b506102606106c6366004611e9e565b611108565b3480156106d757600080fd5b506102ef6106e6366004611b9f565b611136565b3480156106f757600080fd5b506102ef610706366004611c5c565b611195565b34801561071757600080fd5b5061031f670de0b6b3a764000081565b6000610732826111ec565b92915050565b60606002805461074790611ed1565b80601f016020809104026020016040519081016040528092919081815260200182805461077390611ed1565b80156107c05780601f10610795576101008083540402835291602001916107c0565b820191906000526020600020905b8154815290600101906020018083116107a357829003601f168201915b5050505050905090565b60006107d58261122c565b506000828152600660205260409020546001600160a01b0316610732565b6107fe828233611265565b5050565b61080a611272565b600280600d5460ff16600381111561082457610824611da0565b14610842576040516314f654af60e11b815260040160405180910390fd5b60105462010000900460ff16156108a05760405162461bcd60e51b815260206004820152601a60248201527f5a65726f4461795f5f7075626c696353616c65644265666f726500000000000060448201526064015b60405180910390fd5b600c544263ffffffff1610156108c957604051632ed53c1b60e11b815260040160405180910390fd5b6010805462ff0000191662010000179055600d8054600360ff1990911681179091556040517f6e95ed764170cfef59dda5e1ac3807631b7a671104ce4df3bdc070de9cecf8089161091991611db6565b60405180910390a150565b61092c61129f565b600380600d5460ff16600381111561094657610946611da0565b14610964576040516314f654af60e11b815260040160405180910390fd5b6126ff610970600e5490565b61097b906001611f21565b111561099a5760405163610323c760e01b815260040160405180910390fd5b670de0b6b3a76400003410156109c35760405163a95ff08160e01b815260040160405180910390fd5b60006109ce600e5490565b6109d9906001611f21565b6000818152601260205260409020805460ff19166001908117909155600e805490910190559050610a0a33826112c9565b5050610a166001600855565b565b610a20611272565b80600a5403610a425760405163e408fb4960e01b815260040160405180910390fd5b600a55565b6001600160a01b038216610a7157604051633250574960e11b815260006004820152602401610897565b6000610a7e8383336112e3565b9050836001600160a01b0316816001600160a01b031614610acc576040516364283d7b60e01b81526001600160a01b0380861660048301526024820184905282166044820152606401610897565b50505050565b60008281526001602090815260408083208151808301909252546001600160a01b038116808352600160a01b9091046001600160601b0316928201929092528291610b475750604080518082019091526000546001600160a01b0381168252600160a01b90046001600160601b031660208201525b602081015160009061271090610b66906001600160601b031687611f34565b610b709190611f4b565b915196919550909350505050565b610b9983838360405180602001604052806000815250610feb565b505050565b610ba6611272565b600180600d5460ff166003811115610bc057610bc0611da0565b14610bde576040516314f654af60e11b815260040160405180910390fd5b60105460ff1615610c315760405162461bcd60e51b815260206004820152601760248201527f5a65726f4461795f5f70726553616c65644265666f72650000000000000000006044820152606401610897565b600a544263ffffffff1610158015610c505750600b544263ffffffff16105b610c6d57604051635c700aa760e11b815260040160405180910390fd5b6010805460ff191660019081179091556040517f6e95ed764170cfef59dda5e1ac3807631b7a671104ce4df3bdc070de9cecf8089161091991611db6565b60006107328261122c565b60006001600160a01b038216610ce2576040516322718ad960e21b815260006004820152602401610897565b506001600160a01b031660009081526005602052604090205490565b610d06611272565b610a1660006113dc565b610d18611272565b80600b5403610d3a5760405163e408fb4960e01b815260040160405180910390fd5b600b55565b60606003805461074790611ed1565b610d5661129f565b600180600d5460ff166003811115610d7057610d70611da0565b14610d8e576040516314f654af60e11b815260040160405180910390fd5b6126ff610d9a600e5490565b610da5906001611f21565b1115610dc45760405163610323c760e01b815260040160405180910390fd5b7f0000000000000000000000000000000000000000000000000000000000000000341015610e055760405163a95ff08160e01b815260040160405180910390fd5b8151600003610e27576040516301696f4160e11b815260040160405180910390fd5b3360009081526011602052604090205460ff1615610e585760405163269727ef60e01b815260040160405180910390fd5b336000818152601160205260409020805460ff19166001179055610e7d90839061142e565b6040513381527f0f07877447a50a723845caebf5eda4c73988d5d4cd4392e276160d5959d7f9c09060200160405180910390a150610ebb6001600855565b50565b6107fe3383836114c3565b610ed1611272565b600180600d5460ff166003811115610eeb57610eeb611da0565b14610f09576040516314f654af60e11b815260040160405180910390fd5b601054610100900460ff1615610f615760405162461bcd60e51b815260206004820152601760248201527f5a65726f4461795f5f52656576616c65644265666f72650000000000000000006044820152606401610897565b600b544263ffffffff1610158015610f805750600c544263ffffffff16105b610f9d576040516325a781f160e11b815260040160405180910390fd5b6010805461ff001916610100179055600d8054600260ff1990911681179091556040517f6e95ed764170cfef59dda5e1ac3807631b7a671104ce4df3bdc070de9cecf8089161091991611db6565b610ff6848484610a47565b610acc84848484611562565b61100a611272565b80600c540361102c5760405163e408fb4960e01b815260040160405180910390fd5b600c55565b60008181526012602052604090205460609060ff16611063576040516306009da560e01b815260040160405180910390fd5b604080518082019091526005815264173539b7b760d91b602082015260006110b360408051808201909152601581527468747470733a2f2f697066732e696f2f697066732f60581b602082015290565b905060008151116110d35760405180602001604052806000815250611100565b806110dd8561168b565b836040516020016110f093929190611f6d565b6040516020818303038152906040525b949350505050565b6001600160a01b03918216600090815260076020908152604080832093909416825291909152205460ff1690565b61113e611272565b600f54810361116057604051632546ab2360e21b815260040160405180910390fd5b600f8190556040518181527f72bc5e181bb490da5a7c279c8dbfb225cabd111f78ed2ffc2c1953ad9ce9875b90602001610919565b61119d611272565b6001600160a01b0381161580156111c257506009546001600160a01b03828116911614155b156111e357604051631e4fbdf760e01b815260006004820152602401610897565b610ebb816113dc565b60006001600160e01b031982166380ac58cd60e01b148061121d57506001600160e01b03198216635b5e139f60e01b145b8061073257506107328261171e565b6000818152600460205260408120546001600160a01b03168061073257604051637e27328960e01b815260048101849052602401610897565b610b998383836001611753565b6009546001600160a01b03163314610a165760405163118cdaa760e01b8152336004820152602401610897565b6002600854036112c257604051633ee5aeb560e01b815260040160405180910390fd5b6002600855565b6107fe828260405180602001604052806000815250611859565b6000828152600460205260408120546001600160a01b039081169083161561131057611310818486611870565b6001600160a01b0381161561134e5761132d600085600080611753565b6001600160a01b038116600090815260056020526040902080546000190190555b6001600160a01b0385161561137d576001600160a01b0385166000908152600560205260409020805460010190555b60008481526004602052604080822080546001600160a01b0319166001600160a01b0389811691821790925591518793918516917fddf252ad1be2c89b69c2b068fc378daa952ba7f163c4a11628f55a4df523b3ef91a4949350505050565b600980546001600160a01b038381166001600160a01b0319831681179093556040519116919082907f8be0079c531659141344cd1fd0a4f28419497f9722a3daafe3b4186f6b6457e090600090a35050565b6040516bffffffffffffffffffffffff19606083901b16602082015260009060340160405160208183030381529060405280519060200120905061147583600f54836118d4565b61149d57604051632ef744ed60e01b81526001600160a01b0383166004820152602401610897565b600e80546001019055610b99826114b3600e5490565b6114be906001611f21565b6112c9565b6001600160a01b0382166114f557604051630b61174360e31b81526001600160a01b0383166004820152602401610897565b6001600160a01b03838116600081815260076020908152604080832094871680845294825291829020805460ff191686151590811790915591519182527f17307eab39ab6107e8899845ad3d59bd9653f200f220920489ca2b5937696c31910160405180910390a3505050565b6001600160a01b0383163b15610acc57604051630a85bd0160e11b81526001600160a01b0384169063150b7a02906115a4903390889087908790600401611fb0565b6020604051808303816000875af19250505080156115df575060408051601f3d908101601f191682019092526115dc91810190611fed565b60015b611648573d80801561160d576040519150601f19603f3d011682016040523d82523d6000602084013e611612565b606091505b50805160000361164057604051633250574960e11b81526001600160a01b0385166004820152602401610897565b805181602001fd5b6001600160e01b03198116630a85bd0160e11b1461168457604051633250574960e11b81526001600160a01b0385166004820152602401610897565b5050505050565b60606000611698836118ea565b600101905060008167ffffffffffffffff8111156116b8576116b8611c77565b6040519080825280601f01601f1916602001820160405280156116e2576020820181803683370190505b5090508181016020015b600019016f181899199a1a9b1b9c1cb0b131b232b360811b600a86061a8153600a85049450846116ec57509392505050565b60006001600160e01b0319821663152a902d60e11b148061073257506301ffc9a760e01b6001600160e01b0319831614610732565b808061176757506001600160a01b03821615155b156118295760006117778461122c565b90506001600160a01b038316158015906117a35750826001600160a01b0316816001600160a01b031614155b80156117b657506117b48184611108565b155b156117df5760405163a9fbf51f60e01b81526001600160a01b0384166004820152602401610897565b81156118275783856001600160a01b0316826001600160a01b03167f8c5be1e5ebec7d5bd14f71427d1e84f3dd0314c0f7b2291e5b200ac8c7c3b92560405160405180910390a45b505b5050600090815260066020526040902080546001600160a01b0319166001600160a01b0392909216919091179055565b61186383836119c2565b610b996000848484611562565b61187b838383611a27565b610b99576001600160a01b0383166118a957604051637e27328960e01b815260048101829052602401610897565b60405163177e802f60e01b81526001600160a01b038316600482015260248101829052604401610897565b6000826118e18584611a8a565b14949350505050565b60008072184f03e93ff9f4daa797ed6e38ed64bf6a1f0160401b83106119295772184f03e93ff9f4daa797ed6e38ed64bf6a1f0160401b830492506040015b6d04ee2d6d415b85acef81000000008310611955576d04ee2d6d415b85acef8100000000830492506020015b662386f26fc10000831061197357662386f26fc10000830492506010015b6305f5e100831061198b576305f5e100830492506008015b612710831061199f57612710830492506004015b606483106119b1576064830492506002015b600a83106107325760010192915050565b6001600160a01b0382166119ec57604051633250574960e11b815260006004820152602401610897565b60006119fa838360006112e3565b90506001600160a01b03811615610b99576040516339e3563760e11b815260006004820152602401610897565b60006001600160a01b038316158015906111005750826001600160a01b0316846001600160a01b03161480611a615750611a618484611108565b806111005750506000908152600660205260409020546001600160a01b03908116911614919050565b600081815b8451811015611acf57611abb82868381518110611aae57611aae61200a565b6020026020010151611ad7565b915080611ac781612020565b915050611a8f565b509392505050565b6000818310611af3576000828152602084905260409020611b02565b60008381526020839052604090205b9392505050565b6001600160e01b031981168114610ebb57600080fd5b600060208284031215611b3157600080fd5b8135611b0281611b09565b60005b83811015611b57578181015183820152602001611b3f565b50506000910152565b60008151808452611b78816020860160208601611b3c565b601f01601f19169290920160200192915050565b602081526000611b026020830184611b60565b600060208284031215611bb157600080fd5b5035919050565b80356001600160a01b0381168114611bcf57600080fd5b919050565b60008060408385031215611be757600080fd5b611bf083611bb8565b946020939093013593505050565b600080600060608486031215611c1357600080fd5b611c1c84611bb8565b9250611c2a60208501611bb8565b9150604084013590509250925092565b60008060408385031215611c4d57600080fd5b50508035926020909101359150565b600060208284031215611c6e57600080fd5b611b0282611bb8565b634e487b7160e01b600052604160045260246000fd5b604051601f8201601f1916810167ffffffffffffffff81118282101715611cb657611cb6611c77565b604052919050565b60006020808385031215611cd157600080fd5b823567ffffffffffffffff80821115611ce957600080fd5b818501915085601f830112611cfd57600080fd5b813581811115611d0f57611d0f611c77565b8060051b9150611d20848301611c8d565b8181529183018401918481019088841115611d3a57600080fd5b938501935b83851015611d5857843582529385019390850190611d3f565b98975050505050505050565b60008060408385031215611d7757600080fd5b611d8083611bb8565b915060208301358015158114611d9557600080fd5b809150509250929050565b634e487b7160e01b600052602160045260246000fd5b6020810160048310611dd857634e487b7160e01b600052602160045260246000fd5b91905290565b60008060008060808587031215611df457600080fd5b611dfd85611bb8565b93506020611e0c818701611bb8565b935060408601359250606086013567ffffffffffffffff80821115611e3057600080fd5b818801915088601f830112611e4457600080fd5b813581811115611e5657611e56611c77565b611e68601f8201601f19168501611c8d565b91508082528984828501011115611e7e57600080fd5b808484018584013760008482840101525080935050505092959194509250565b60008060408385031215611eb157600080fd5b611eba83611bb8565b9150611ec860208401611bb8565b90509250929050565b600181811c90821680611ee557607f821691505b602082108103611f0557634e487b7160e01b600052602260045260246000fd5b50919050565b634e487b7160e01b600052601160045260246000fd5b8082018082111561073257610732611f0b565b808202811582820484141761073257610732611f0b565b600082611f6857634e487b7160e01b600052601260045260246000fd5b500490565b60008451611f7f818460208901611b3c565b845190830190611f93818360208901611b3c565b8451910190611fa6818360208801611b3c565b0195945050505050565b6001600160a01b0385811682528416602082015260408101839052608060608201819052600090611fe390830184611b60565b9695505050505050565b600060208284031215611fff57600080fd5b8151611b0281611b09565b634e487b7160e01b600052603260045260246000fd5b60006001820161203257612032611f0b565b506001019056fea26469706673582212201c7d1190068cbd57103f05ef1f6ddcfb8ac821044c186fb1a261261b5962f24564736f6c63430008140033","linkReferences":{}},"methodIdentifiers":{"COLLECTION_MAX_SUPPLY()":"b1164e83","PUBLIC_SALE_MINT_PRICE()":"f843ae41","approve(address,uint256)":"095ea7b3","balanceOf(address)":"70a08231","changeMerkleRoot(bytes32)":"ebcea3db","changePreSaleDate(uint256)":"1c973835","changePublicSaleDate(uint256)":"be35057d","changeRevealDate(uint256)":"94d2717d","getApproved(uint256)":"081812fc","getCurrentPhase()":"a3a40ea5","getMerkleRoot()":"49590657","getPreSaled()":"d71f41be","getPublicSaled()":"e93e73bb","getRevealed()":"94cc4140","getStartPreSaleDate()":"3fd4f8a4","getStartPublicSaleDate()":"d26a8b95","getStartRevealDate()":"2052d2e9","getWhiteListMinterStatus(address)":"692c4d72","init_pre_sale_price()":"1d25d583","isApprovedForAll(address,address)":"e985e9c5","mintNFT()":"14f710fe","name()":"06fdde03","owner()":"8da5cb5b","ownerOf(uint256)":"6352211e","renounceOwnership()":"715018a6","royaltyInfo(uint256,uint256)":"2a55205a","safeTransferFrom(address,address,uint256)":"42842e0e","safeTransferFrom(address,address,uint256,bytes)":"b88d4fde","setApprovalForAll(address,bool)":"a22cb465","startPreSale()":"55dd574c","startPublicSale()":"0c1c972a","startReveal()":"ad72202b","supportsInterface(bytes4)":"01ffc9a7","symbol()":"95d89b41","tokenIdMinted(uint256)":"c1d4f2f9","tokenURI(uint256)":"c87b56dd","totalSupply()":"18160ddd","transferFrom(address,address,uint256)":"23b872dd","transferOwnership(address)":"f2fde38b","whiteListMint(bytes32[])":"97254e55"},"id":46}