{"abi":[{"type":"constructor","inputs":[{"name":"_init_pre_sale_price","type":"uint256","internalType":"uint256"},{"name":"_startPreSaleDate","type":"uint256","internalType":"uint256"},{"name":"_startRevealDate","type":"uint256","internalType":"uint256"},{"name":"_startPublicSaleDate","type":"uint256","internalType":"uint256"},{"name":"_merkle_root","type":"bytes32","internalType":"bytes32"}],"stateMutability":"nonpayable"},{"type":"function","name":"approve","inputs":[{"name":"to","type":"address","internalType":"address"},{"name":"tokenId","type":"uint256","internalType":"uint256"}],"outputs":[],"stateMutability":"nonpayable"},{"type":"function","name":"balanceOf","inputs":[{"name":"owner","type":"address","internalType":"address"}],"outputs":[{"name":"","type":"uint256","internalType":"uint256"}],"stateMutability":"view"},{"type":"function","name":"changeMerkleRoot","inputs":[{"name":"_newMerkleRoot","type":"bytes32","internalType":"bytes32"}],"outputs":[],"stateMutability":"nonpayable"},{"type":"function","name":"getApproved","inputs":[{"name":"tokenId","type":"uint256","internalType":"uint256"}],"outputs":[{"name":"","type":"address","internalType":"address"}],"stateMutability":"view"},{"type":"function","name":"getCurrentPhase","inputs":[],"outputs":[{"name":"","type":"uint8","internalType":"enum IZeroDay.PHASE"}],"stateMutability":"view"},{"type":"function","name":"getMerkleRoot","inputs":[],"outputs":[{"name":"","type":"bytes32","internalType":"bytes32"}],"stateMutability":"view"},{"type":"function","name":"getTokenURI","inputs":[{"name":"_tokenId","type":"uint256","internalType":"uint256"}],"outputs":[{"name":"","type":"string","internalType":"string"}],"stateMutability":"view"},{"type":"function","name":"getWhiteListMinterStatus","inputs":[{"name":"_minter","type":"address","internalType":"address"}],"outputs":[{"name":"","type":"bool","internalType":"bool"}],"stateMutability":"view"},{"type":"function","name":"i_init_pre_sale_price","inputs":[],"outputs":[{"name":"","type":"uint256","internalType":"uint256"}],"stateMutability":"view"},{"type":"function","name":"i_startPreSaleDate","inputs":[],"outputs":[{"name":"","type":"uint256","internalType":"uint256"}],"stateMutability":"view"},{"type":"function","name":"i_startPublicSaleDate","inputs":[],"outputs":[{"name":"","type":"uint256","internalType":"uint256"}],"stateMutability":"view"},{"type":"function","name":"i_startRevealDate","inputs":[],"outputs":[{"name":"","type":"uint256","internalType":"uint256"}],"stateMutability":"view"},{"type":"function","name":"isApprovedForAll","inputs":[{"name":"owner","type":"address","internalType":"address"},{"name":"operator","type":"address","internalType":"address"}],"outputs":[{"name":"","type":"bool","internalType":"bool"}],"stateMutability":"view"},{"type":"function","name":"mintNFT","inputs":[{"name":"_tokenURI","type":"string","internalType":"string"}],"outputs":[],"stateMutability":"payable"},{"type":"function","name":"name","inputs":[],"outputs":[{"name":"","type":"string","internalType":"string"}],"stateMutability":"view"},{"type":"function","name":"owner","inputs":[],"outputs":[{"name":"","type":"address","internalType":"address"}],"stateMutability":"view"},{"type":"function","name":"ownerOf","inputs":[{"name":"tokenId","type":"uint256","internalType":"uint256"}],"outputs":[{"name":"","type":"address","internalType":"address"}],"stateMutability":"view"},{"type":"function","name":"renounceOwnership","inputs":[],"outputs":[],"stateMutability":"nonpayable"},{"type":"function","name":"royaltyInfo","inputs":[{"name":"tokenId","type":"uint256","internalType":"uint256"},{"name":"salePrice","type":"uint256","internalType":"uint256"}],"outputs":[{"name":"","type":"address","internalType":"address"},{"name":"","type":"uint256","internalType":"uint256"}],"stateMutability":"view"},{"type":"function","name":"safeTransferFrom","inputs":[{"name":"from","type":"address","internalType":"address"},{"name":"to","type":"address","internalType":"address"},{"name":"tokenId","type":"uint256","internalType":"uint256"}],"outputs":[],"stateMutability":"nonpayable"},{"type":"function","name":"safeTransferFrom","inputs":[{"name":"from","type":"address","internalType":"address"},{"name":"to","type":"address","internalType":"address"},{"name":"tokenId","type":"uint256","internalType":"uint256"},{"name":"data","type":"bytes","internalType":"bytes"}],"outputs":[],"stateMutability":"nonpayable"},{"type":"function","name":"setApprovalForAll","inputs":[{"name":"operator","type":"address","internalType":"address"},{"name":"approved","type":"bool","internalType":"bool"}],"outputs":[],"stateMutability":"nonpayable"},{"type":"function","name":"startPreSale","inputs":[],"outputs":[],"stateMutability":"nonpayable"},{"type":"function","name":"startPublicSale","inputs":[],"outputs":[],"stateMutability":"nonpayable"},{"type":"function","name":"startReveal","inputs":[],"outputs":[],"stateMutability":"nonpayable"},{"type":"function","name":"supportsInterface","inputs":[{"name":"interfaceId","type":"bytes4","internalType":"bytes4"}],"outputs":[{"name":"","type":"bool","internalType":"bool"}],"stateMutability":"view"},{"type":"function","name":"symbol","inputs":[],"outputs":[{"name":"","type":"string","internalType":"string"}],"stateMutability":"view"},{"type":"function","name":"tokenURI","inputs":[{"name":"_tokenId","type":"uint256","internalType":"uint256"}],"outputs":[{"name":"","type":"string","internalType":"string"}],"stateMutability":"view"},{"type":"function","name":"totalSupply","inputs":[],"outputs":[{"name":"","type":"uint256","internalType":"uint256"}],"stateMutability":"view"},{"type":"function","name":"transferFrom","inputs":[{"name":"from","type":"address","internalType":"address"},{"name":"to","type":"address","internalType":"address"},{"name":"tokenId","type":"uint256","internalType":"uint256"}],"outputs":[],"stateMutability":"nonpayable"},{"type":"function","name":"transferOwnership","inputs":[{"name":"newOwner","type":"address","internalType":"address"}],"outputs":[],"stateMutability":"nonpayable"},{"type":"function","name":"whiteListMint","inputs":[{"name":"_merkleProof","type":"bytes32[]","internalType":"bytes32[]"}],"outputs":[],"stateMutability":"nonpayable"},{"type":"event","name":"Approval","inputs":[{"name":"owner","type":"address","indexed":true,"internalType":"address"},{"name":"approved","type":"address","indexed":true,"internalType":"address"},{"name":"tokenId","type":"uint256","indexed":true,"internalType":"uint256"}],"anonymous":false},{"type":"event","name":"ApprovalForAll","inputs":[{"name":"owner","type":"address","indexed":true,"internalType":"address"},{"name":"operator","type":"address","indexed":true,"internalType":"address"},{"name":"approved","type":"bool","indexed":false,"internalType":"bool"}],"anonymous":false},{"type":"event","name":"MintedInWhiteList","inputs":[{"name":"minter","type":"address","indexed":false,"internalType":"address"}],"anonymous":false},{"type":"event","name":"OwnershipTransferred","inputs":[{"name":"previousOwner","type":"address","indexed":true,"internalType":"address"},{"name":"newOwner","type":"address","indexed":true,"internalType":"address"}],"anonymous":false},{"type":"event","name":"Transfer","inputs":[{"name":"from","type":"address","indexed":true,"internalType":"address"},{"name":"to","type":"address","indexed":true,"internalType":"address"},{"name":"tokenId","type":"uint256","indexed":true,"internalType":"uint256"}],"anonymous":false},{"type":"event","name":"merkleRootChanged","inputs":[{"name":"newMerkleRoot","type":"bytes32","indexed":false,"internalType":"bytes32"}],"anonymous":false},{"type":"event","name":"phaseChanged","inputs":[{"name":"phase","type":"uint8","indexed":false,"internalType":"enum IZeroDay.PHASE"}],"anonymous":false},{"type":"error","name":"ERC2981InvalidDefaultRoyalty","inputs":[{"name":"numerator","type":"uint256","internalType":"uint256"},{"name":"denominator","type":"uint256","internalType":"uint256"}]},{"type":"error","name":"ERC2981InvalidDefaultRoyaltyReceiver","inputs":[{"name":"receiver","type":"address","internalType":"address"}]},{"type":"error","name":"ERC2981InvalidTokenRoyalty","inputs":[{"name":"tokenId","type":"uint256","internalType":"uint256"},{"name":"numerator","type":"uint256","internalType":"uint256"},{"name":"denominator","type":"uint256","internalType":"uint256"}]},{"type":"error","name":"ERC2981InvalidTokenRoyaltyReceiver","inputs":[{"name":"tokenId","type":"uint256","internalType":"uint256"},{"name":"receiver","type":"address","internalType":"address"}]},{"type":"error","name":"ERC721IncorrectOwner","inputs":[{"name":"sender","type":"address","internalType":"address"},{"name":"tokenId","type":"uint256","internalType":"uint256"},{"name":"owner","type":"address","internalType":"address"}]},{"type":"error","name":"ERC721InsufficientApproval","inputs":[{"name":"operator","type":"address","internalType":"address"},{"name":"tokenId","type":"uint256","internalType":"uint256"}]},{"type":"error","name":"ERC721InvalidApprover","inputs":[{"name":"approver","type":"address","internalType":"address"}]},{"type":"error","name":"ERC721InvalidOperator","inputs":[{"name":"operator","type":"address","internalType":"address"}]},{"type":"error","name":"ERC721InvalidOwner","inputs":[{"name":"owner","type":"address","internalType":"address"}]},{"type":"error","name":"ERC721InvalidReceiver","inputs":[{"name":"receiver","type":"address","internalType":"address"}]},{"type":"error","name":"ERC721InvalidSender","inputs":[{"name":"sender","type":"address","internalType":"address"}]},{"type":"error","name":"ERC721NonexistentToken","inputs":[{"name":"tokenId","type":"uint256","internalType":"uint256"}]},{"type":"error","name":"OwnableInvalidOwner","inputs":[{"name":"owner","type":"address","internalType":"address"}]},{"type":"error","name":"OwnableUnauthorizedAccount","inputs":[{"name":"account","type":"address","internalType":"address"}]},{"type":"error","name":"ReentrancyGuardReentrantCall","inputs":[]},{"type":"error","name":"ZeroDay__AlreadyMintedInWhiteList","inputs":[]},{"type":"error","name":"ZeroDay__ExceedsMaxSupply","inputs":[]},{"type":"error","name":"ZeroDay__MerkleProofHashesAreEmpty","inputs":[]},{"type":"error","name":"ZeroDay__NewMerkleRootHasSameNameWithOldMerkleRoot","inputs":[]},{"type":"error","name":"ZeroDay__PreSaleDateNotReached","inputs":[]},{"type":"error","name":"ZeroDay__RevealDateNotReached","inputs":[]},{"type":"error","name":"ZeroDay__UserNotIncludedInWhiteList","inputs":[{"name":"user","type":"address","internalType":"address"}]},{"type":"error","name":"ZeroDay__WeAreNotInThisPhase","inputs":[]},{"type":"error","name":"ZeroDay__tokenIdHasNotMinted","inputs":[{"name":"tokenId","type":"uint256","internalType":"uint256"}]}],"bytecode":{"object":"0x6101006040523480156200001257600080fd5b506040516200234238038062002342833981016040819052620000359162000158565b33604051806040016040528060078152602001665a65726f44617960c81b815250604051806040016040528060048152602001635a45524f60e01b81525081600290816200008491906200023e565b5060036200009382826200023e565b50506001600855506001600160a01b038116620000ca57604051631e4fbdf760e01b81526000600482015260240160405180910390fd5b620000d58162000106565b5060809490945260a09290925260e09190915260c052600b556009805460ff60a01b191690556000600a556200030a565b600980546001600160a01b038381166001600160a01b0319831681179093556040519116919082907f8be0079c531659141344cd1fd0a4f28419497f9722a3daafe3b4186f6b6457e090600090a35050565b600080600080600060a086880312156200017157600080fd5b5050835160208501516040860151606087015160809097015192989197509594509092509050565b634e487b7160e01b600052604160045260246000fd5b600181811c90821680620001c457607f821691505b602082108103620001e557634e487b7160e01b600052602260045260246000fd5b50919050565b601f8211156200023957600081815260208120601f850160051c81016020861015620002145750805b601f850160051c820191505b81811015620002355782815560010162000220565b5050505b505050565b81516001600160401b038111156200025a576200025a62000199565b62000272816200026b8454620001af565b84620001eb565b602080601f831160018114620002aa5760008415620002915750858301515b600019600386901b1c1916600185901b17855562000235565b600085815260208120601f198616915b82811015620002db57888601518255948401946001909101908401620002ba565b5085821015620002fa5787850151600019600388901b60f8161c191681555b5050505050600190811b01905550565b60805160a05160c05160e051611ff06200035260003960006102c00152600081816106380152610dbc0152600081816104140152610ad4015260006103b60152611ff06000f3fe6080604052600436106101e35760003560e01c8063692c4d7211610102578063ad72202b11610095578063ebcea3db11610064578063ebcea3db146105d3578063f2fde38b146105f3578063fb37e88314610613578063fc3602f11461062657600080fd5b8063ad72202b1461055e578063b88d4fde14610573578063c87b56dd14610593578063e985e9c5146105b357600080fd5b806395d89b41116100d157806395d89b41146104e257806397254e55146104f7578063a22cb46514610517578063a3a40ea51461053757600080fd5b8063692c4d721461045657806370a082311461048f578063715018a6146104af5780638da5cb5b146104c457600080fd5b80632a55205a1161017a578063495906571161014957806349590657146103d857806355dd574c146103ed5780635f6266de146104025780636352211e1461043657600080fd5b80632a55205a146103255780633bb3a24d1461036457806342842e0e1461038457806345dce0bd146103a457600080fd5b80630c1c972a116101b65780630c1c972a14610299578063104d41c0146102ae57806318160ddd146102f057806323b872dd1461030557600080fd5b806301ffc9a7146101e857806306fdde031461021d578063081812fc1461023f578063095ea7b314610277575b600080fd5b3480156101f457600080fd5b50610208610203366004611935565b61065a565b60405190151581526020015b60405180910390f35b34801561022957600080fd5b5061023261066b565b60405161021491906119a2565b34801561024b57600080fd5b5061025f61025a3660046119b5565b6106fd565b6040516001600160a01b039091168152602001610214565b34801561028357600080fd5b506102976102923660046119ea565b610726565b005b3480156102a557600080fd5b50610297610735565b3480156102ba57600080fd5b506102e27f000000000000000000000000000000000000000000000000000000000000000081565b604051908152602001610214565b3480156102fc57600080fd5b50600a546102e2565b34801561031157600080fd5b50610297610320366004611a14565b61083a565b34801561033157600080fd5b50610345610340366004611a50565b6108c5565b604080516001600160a01b039093168352602083019190915201610214565b34801561037057600080fd5b5061023261037f3660046119b5565b610971565b34801561039057600080fd5b5061029761039f366004611a14565b610a13565b3480156103b057600080fd5b506102e27f000000000000000000000000000000000000000000000000000000000000000081565b3480156103e457600080fd5b50600b546102e2565b3480156103f957600080fd5b50610297610a33565b34801561040e57600080fd5b506102e27f000000000000000000000000000000000000000000000000000000000000000081565b34801561044257600080fd5b5061025f6104513660046119b5565b610b6b565b34801561046257600080fd5b50610208610471366004611a72565b6001600160a01b03166000908152600d602052604090205460ff1690565b34801561049b57600080fd5b506102e26104aa366004611a72565b610b76565b3480156104bb57600080fd5b50610297610bbe565b3480156104d057600080fd5b506009546001600160a01b031661025f565b3480156104ee57600080fd5b50610232610bd2565b34801561050357600080fd5b50610297610512366004611ad4565b610be1565b34801561052357600080fd5b50610297610532366004611b7a565b610d15565b34801561054357600080fd5b50600954600160a01b900460ff166040516102149190611bcc565b34801561056a57600080fd5b50610297610d20565b34801561057f57600080fd5b5061029761058e366004611c4c565b610e52565b34801561059f57600080fd5b506102326105ae3660046119b5565b610e69565b3480156105bf57600080fd5b506102086105ce366004611cc8565b610f83565b3480156105df57600080fd5b506102976105ee3660046119b5565b610fb1565b3480156105ff57600080fd5b5061029761060e366004611a72565b611010565b610297610621366004611cfb565b61104b565b34801561063257600080fd5b506102e27f000000000000000000000000000000000000000000000000000000000000000081565b60006106658261116a565b92915050565b60606002805461067a90611d44565b80601f01602080910402602001604051908101604052809291908181526020018280546106a690611d44565b80156106f35780601f106106c8576101008083540402835291602001916106f3565b820191906000526020600020905b8154815290600101906020018083116106d657829003601f168201915b5050505050905090565b6000610708826111aa565b506000828152600660205260409020546001600160a01b0316610665565b6107318282336111e3565b5050565b61073d6111f0565b600280600954600160a01b900460ff16600381111561075e5761075e611bb6565b1461077c576040516314f654af60e11b815260040160405180910390fd5b600c5462010000900460ff16156107da5760405162461bcd60e51b815260206004820152601a60248201527f5a65726f4461795f5f7075626c696353616c65644265666f726500000000000060448201526064015b60405180910390fd5b600c805462ff00001916620100001790556009805460ff60a01b1916600360a01b1790556040517f6e95ed764170cfef59dda5e1ac3807631b7a671104ce4df3bdc070de9cecf8089061082f90600390611bcc565b60405180910390a150565b6001600160a01b03821661086457604051633250574960e11b8152600060048201526024016107d1565b600061087183833361121d565b9050836001600160a01b0316816001600160a01b0316146108bf576040516364283d7b60e01b81526001600160a01b03808616600483015260248201849052821660448201526064016107d1565b50505050565b60008281526001602090815260408083208151808301909252546001600160a01b038116808352600160a01b9091046001600160601b031692820192909252829161093a5750604080518082019091526000546001600160a01b0381168252600160a01b90046001600160601b031660208201525b602081015160009061271090610959906001600160601b031687611d94565b6109639190611dab565b915196919550909350505050565b6000818152600e6020526040902080546060919061098e90611d44565b80601f01602080910402602001604051908101604052809291908181526020018280546109ba90611d44565b8015610a075780601f106109dc57610100808354040283529160200191610a07565b820191906000526020600020905b8154815290600101906020018083116109ea57829003601f168201915b50505050509050919050565b610a2e83838360405180602001604052806000815250610e52565b505050565b610a3b6111f0565b600080600954600160a01b900460ff166003811115610a5c57610a5c611bb6565b14610a7a576040516314f654af60e11b815260040160405180910390fd5b600c54610100900460ff1615610ad25760405162461bcd60e51b815260206004820152601760248201527f5a65726f4461795f5f70726553616c65644265666f726500000000000000000060448201526064016107d1565b7f00000000000000000000000000000000000000000000000000000000000000004263ffffffff1610610b1857604051635c700aa760e11b815260040160405180910390fd5b600c805461ff0019166101001790556009805460ff60a01b1916600160a01b1790556040517f6e95ed764170cfef59dda5e1ac3807631b7a671104ce4df3bdc070de9cecf8089061082f90600190611bcc565b6000610665826111aa565b60006001600160a01b038216610ba2576040516322718ad960e21b8152600060048201526024016107d1565b506001600160a01b031660009081526005602052604090205490565b610bc66111f0565b610bd06000611316565b565b60606003805461067a90611d44565b610be9611368565b600180600954600160a01b900460ff166003811115610c0a57610c0a611bb6565b14610c28576040516314f654af60e11b815260040160405180910390fd5b6126ff610c34600a5490565b610c3f906001611dcd565b1115610c5e5760405163610323c760e01b815260040160405180910390fd5b815115610c7e576040516301696f4160e11b815260040160405180910390fd5b336000908152600d602052604090205460ff1615610caf5760405163269727ef60e01b815260040160405180910390fd5b336000818152600d60205260409020805460ff19166001179055610cd4908390611392565b6040513381527f0f07877447a50a723845caebf5eda4c73988d5d4cd4392e276160d5959d7f9c09060200160405180910390a150610d126001600855565b50565b610731338383611427565b610d286111f0565b600180600954600160a01b900460ff166003811115610d4957610d49611bb6565b14610d67576040516314f654af60e11b815260040160405180910390fd5b600c5460ff1615610dba5760405162461bcd60e51b815260206004820152601760248201527f5a65726f4461795f5f52656576616c65644265666f726500000000000000000060448201526064016107d1565b7f00000000000000000000000000000000000000000000000000000000000000004263ffffffff161115610e01576040516325a781f160e11b815260040160405180910390fd5b600c805460ff191660011790556009805460ff60a01b1916600160a11b1790556040517f6e95ed764170cfef59dda5e1ac3807631b7a671104ce4df3bdc070de9cecf8089061082f90600290611bcc565b610e5d84848461083a565b6108bf848484846114c6565b6000818152600e6020526040812080546060929190610e8790611d44565b80601f0160208091040260200160405190810160405280929190818152602001828054610eb390611d44565b8015610f005780601f10610ed557610100808354040283529160200191610f00565b820191906000526020600020905b815481529060010190602001808311610ee357829003601f168201915b505050505090508051600003610f2c576040516336b0abc560e01b8152600481018490526024016107d1565b60408051808201909152601581527468747470733a2f2f697066732e696f2f697066732f60581b60208201528184604051602001610f6c93929190611de0565b604051602081830303815290604052915050919050565b6001600160a01b03918216600090815260076020908152604080832093909416825291909152205460ff1690565b610fb96111f0565b600b548103610fdb57604051632546ab2360e21b815260040160405180910390fd5b600b8190556040518181527f72bc5e181bb490da5a7c279c8dbfb225cabd111f78ed2ffc2c1953ad9ce9875b9060200161082f565b6110186111f0565b6001600160a01b03811661104257604051631e4fbdf760e01b8152600060048201526024016107d1565b610d1281611316565b611053611368565b600380600954600160a01b900460ff16600381111561107457611074611bb6565b14611092576040516314f654af60e11b815260040160405180910390fd5b6126ff61109e600a5490565b6110a9906001611dcd565b11156110c85760405163610323c760e01b815260040160405180910390fd5b81516000036111195760405162461bcd60e51b815260206004820152601860248201527f5a65726f4461795f5f496e76616c6964546f6b656e555249000000000000000060448201526064016107d1565b6000611124600a5490565b61112f906001611dcd565b6000818152600e6020526040902090915061114a8482611e71565b50600a8054600101905561115e33826115ef565b5050610d126001600855565b60006001600160e01b031982166380ac58cd60e01b148061119b57506001600160e01b03198216635b5e139f60e01b145b80610665575061066582611609565b6000818152600460205260408120546001600160a01b03168061066557604051637e27328960e01b8152600481018490526024016107d1565b610a2e838383600161163e565b6009546001600160a01b03163314610bd05760405163118cdaa760e01b81523360048201526024016107d1565b6000828152600460205260408120546001600160a01b039081169083161561124a5761124a818486611744565b6001600160a01b038116156112885761126760008560008061163e565b6001600160a01b038116600090815260056020526040902080546000190190555b6001600160a01b038516156112b7576001600160a01b0385166000908152600560205260409020805460010190555b60008481526004602052604080822080546001600160a01b0319166001600160a01b0389811691821790925591518793918516917fddf252ad1be2c89b69c2b068fc378daa952ba7f163c4a11628f55a4df523b3ef91a4949350505050565b600980546001600160a01b038381166001600160a01b0319831681179093556040519116919082907f8be0079c531659141344cd1fd0a4f28419497f9722a3daafe3b4186f6b6457e090600090a35050565b60026008540361138b57604051633ee5aeb560e01b815260040160405180910390fd5b6002600855565b6040516bffffffffffffffffffffffff19606083901b1660208201526000906034016040516020818303038152906040528051906020012090506113d983600b54836117a8565b61140157604051632ef744ed60e01b81526001600160a01b03831660048201526024016107d1565b600a80546001019055610a2e82611417600a5490565b611422906001611dcd565b6115ef565b6001600160a01b03821661145957604051630b61174360e31b81526001600160a01b03831660048201526024016107d1565b6001600160a01b03838116600081815260076020908152604080832094871680845294825291829020805460ff191686151590811790915591519182527f17307eab39ab6107e8899845ad3d59bd9653f200f220920489ca2b5937696c31910160405180910390a3505050565b6001600160a01b0383163b156108bf57604051630a85bd0160e11b81526001600160a01b0384169063150b7a0290611508903390889087908790600401611f31565b6020604051808303816000875af1925050508015611543575060408051601f3d908101601f1916820190925261154091810190611f6e565b60015b6115ac573d808015611571576040519150601f19603f3d011682016040523d82523d6000602084013e611576565b606091505b5080516000036115a457604051633250574960e11b81526001600160a01b03851660048201526024016107d1565b805181602001fd5b6001600160e01b03198116630a85bd0160e11b146115e857604051633250574960e11b81526001600160a01b03851660048201526024016107d1565b5050505050565b6107318282604051806020016040528060008152506117be565b60006001600160e01b0319821663152a902d60e11b148061066557506301ffc9a760e01b6001600160e01b0319831614610665565b808061165257506001600160a01b03821615155b15611714576000611662846111aa565b90506001600160a01b0383161580159061168e5750826001600160a01b0316816001600160a01b031614155b80156116a1575061169f8184610f83565b155b156116ca5760405163a9fbf51f60e01b81526001600160a01b03841660048201526024016107d1565b81156117125783856001600160a01b0316826001600160a01b03167f8c5be1e5ebec7d5bd14f71427d1e84f3dd0314c0f7b2291e5b200ac8c7c3b92560405160405180910390a45b505b5050600090815260066020526040902080546001600160a01b0319166001600160a01b0392909216919091179055565b61174f8383836117d5565b610a2e576001600160a01b03831661177d57604051637e27328960e01b8152600481018290526024016107d1565b60405163177e802f60e01b81526001600160a01b0383166004820152602481018290526044016107d1565b6000826117b5858461183b565b14949350505050565b6117c88383611888565b610a2e60008484846114c6565b60006001600160a01b038316158015906118335750826001600160a01b0316846001600160a01b0316148061180f575061180f8484610f83565b8061183357506000828152600660205260409020546001600160a01b038481169116145b949350505050565b600081815b84518110156118805761186c8286838151811061185f5761185f611f8b565b60200260200101516118ed565b91508061187881611fa1565b915050611840565b509392505050565b6001600160a01b0382166118b257604051633250574960e11b8152600060048201526024016107d1565b60006118c08383600061121d565b90506001600160a01b03811615610a2e576040516339e3563760e11b8152600060048201526024016107d1565b6000818310611909576000828152602084905260409020611918565b60008381526020839052604090205b9392505050565b6001600160e01b031981168114610d1257600080fd5b60006020828403121561194757600080fd5b81356119188161191f565b60005b8381101561196d578181015183820152602001611955565b50506000910152565b6000815180845261198e816020860160208601611952565b601f01601f19169290920160200192915050565b6020815260006119186020830184611976565b6000602082840312156119c757600080fd5b5035919050565b80356001600160a01b03811681146119e557600080fd5b919050565b600080604083850312156119fd57600080fd5b611a06836119ce565b946020939093013593505050565b600080600060608486031215611a2957600080fd5b611a32846119ce565b9250611a40602085016119ce565b9150604084013590509250925092565b60008060408385031215611a6357600080fd5b50508035926020909101359150565b600060208284031215611a8457600080fd5b611918826119ce565b634e487b7160e01b600052604160045260246000fd5b604051601f8201601f1916810167ffffffffffffffff81118282101715611acc57611acc611a8d565b604052919050565b60006020808385031215611ae757600080fd5b823567ffffffffffffffff80821115611aff57600080fd5b818501915085601f830112611b1357600080fd5b813581811115611b2557611b25611a8d565b8060051b9150611b36848301611aa3565b8181529183018401918481019088841115611b5057600080fd5b938501935b83851015611b6e57843582529385019390850190611b55565b98975050505050505050565b60008060408385031215611b8d57600080fd5b611b96836119ce565b915060208301358015158114611bab57600080fd5b809150509250929050565b634e487b7160e01b600052602160045260246000fd5b6020810160048310611bee57634e487b7160e01b600052602160045260246000fd5b91905290565b600067ffffffffffffffff831115611c0e57611c0e611a8d565b611c21601f8401601f1916602001611aa3565b9050828152838383011115611c3557600080fd5b828260208301376000602084830101529392505050565b60008060008060808587031215611c6257600080fd5b611c6b856119ce565b9350611c79602086016119ce565b925060408501359150606085013567ffffffffffffffff811115611c9c57600080fd5b8501601f81018713611cad57600080fd5b611cbc87823560208401611bf4565b91505092959194509250565b60008060408385031215611cdb57600080fd5b611ce4836119ce565b9150611cf2602084016119ce565b90509250929050565b600060208284031215611d0d57600080fd5b813567ffffffffffffffff811115611d2457600080fd5b8201601f81018413611d3557600080fd5b61183384823560208401611bf4565b600181811c90821680611d5857607f821691505b602082108103611d7857634e487b7160e01b600052602260045260246000fd5b50919050565b634e487b7160e01b600052601160045260246000fd5b808202811582820484141761066557610665611d7e565b600082611dc857634e487b7160e01b600052601260045260246000fd5b500490565b8082018082111561066557610665611d7e565b60008451611df2818460208901611952565b845190830190611e06818360208901611952565b602f60f81b91019081526001810193909352505060210192915050565b601f821115610a2e57600081815260208120601f850160051c81016020861015611e4a5750805b601f850160051c820191505b81811015611e6957828155600101611e56565b505050505050565b815167ffffffffffffffff811115611e8b57611e8b611a8d565b611e9f81611e998454611d44565b84611e23565b602080601f831160018114611ed45760008415611ebc5750858301515b600019600386901b1c1916600185901b178555611e69565b600085815260208120601f198616915b82811015611f0357888601518255948401946001909101908401611ee4565b5085821015611f215787850151600019600388901b60f8161c191681555b5050505050600190811b01905550565b6001600160a01b0385811682528416602082015260408101839052608060608201819052600090611f6490830184611976565b9695505050505050565b600060208284031215611f8057600080fd5b81516119188161191f565b634e487b7160e01b600052603260045260246000fd5b600060018201611fb357611fb3611d7e565b506001019056fea2646970667358221220a38bce7b8de610daaeeeb6a69f073ee08453201ee44f412aca8455ff87aa73a664736f6c63430008140033","linkReferences":{}},"methodIdentifiers":{"approve(address,uint256)":"095ea7b3","balanceOf(address)":"70a08231","changeMerkleRoot(bytes32)":"ebcea3db","getApproved(uint256)":"081812fc","getCurrentPhase()":"a3a40ea5","getMerkleRoot()":"49590657","getTokenURI(uint256)":"3bb3a24d","getWhiteListMinterStatus(address)":"692c4d72","i_init_pre_sale_price()":"45dce0bd","i_startPreSaleDate()":"5f6266de","i_startPublicSaleDate()":"104d41c0","i_startRevealDate()":"fc3602f1","isApprovedForAll(address,address)":"e985e9c5","mintNFT(string)":"fb37e883","name()":"06fdde03","owner()":"8da5cb5b","ownerOf(uint256)":"6352211e","renounceOwnership()":"715018a6","royaltyInfo(uint256,uint256)":"2a55205a","safeTransferFrom(address,address,uint256)":"42842e0e","safeTransferFrom(address,address,uint256,bytes)":"b88d4fde","setApprovalForAll(address,bool)":"a22cb465","startPreSale()":"55dd574c","startPublicSale()":"0c1c972a","startReveal()":"ad72202b","supportsInterface(bytes4)":"01ffc9a7","symbol()":"95d89b41","tokenURI(uint256)":"c87b56dd","totalSupply()":"18160ddd","transferFrom(address,address,uint256)":"23b872dd","transferOwnership(address)":"f2fde38b","whiteListMint(bytes32[])":"97254e55"},"id":44}