{"abi":[{"type":"constructor","inputs":[{"name":"_init_pre_sale_price","type":"uint256","internalType":"uint256"},{"name":"_startPreSaleDate","type":"uint256","internalType":"uint256"},{"name":"_startRevealDate","type":"uint256","internalType":"uint256"},{"name":"_startPublicSaleDate","type":"uint256","internalType":"uint256"},{"name":"_merkle_root","type":"bytes32","internalType":"bytes32"}],"stateMutability":"nonpayable"},{"type":"function","name":"COLLECTION_MAX_SUPPLY","inputs":[],"outputs":[{"name":"","type":"uint256","internalType":"uint256"}],"stateMutability":"view"},{"type":"function","name":"PUBLIC_SALE_PRICE","inputs":[],"outputs":[{"name":"","type":"uint256","internalType":"uint256"}],"stateMutability":"view"},{"type":"function","name":"WHITELIST_PRICE","inputs":[],"outputs":[{"name":"","type":"uint256","internalType":"uint256"}],"stateMutability":"view"},{"type":"function","name":"approve","inputs":[{"name":"to","type":"address","internalType":"address"},{"name":"tokenId","type":"uint256","internalType":"uint256"}],"outputs":[],"stateMutability":"nonpayable"},{"type":"function","name":"balanceOf","inputs":[{"name":"owner","type":"address","internalType":"address"}],"outputs":[{"name":"","type":"uint256","internalType":"uint256"}],"stateMutability":"view"},{"type":"function","name":"changeMerkleRoot","inputs":[{"name":"_newMerkleRoot","type":"bytes32","internalType":"bytes32"}],"outputs":[],"stateMutability":"nonpayable"},{"type":"function","name":"getApproved","inputs":[{"name":"tokenId","type":"uint256","internalType":"uint256"}],"outputs":[{"name":"","type":"address","internalType":"address"}],"stateMutability":"view"},{"type":"function","name":"getCurrentPhase","inputs":[],"outputs":[{"name":"","type":"uint8","internalType":"enum IZeroDay.PHASE"}],"stateMutability":"view"},{"type":"function","name":"getMerkleRoot","inputs":[],"outputs":[{"name":"","type":"bytes32","internalType":"bytes32"}],"stateMutability":"view"},{"type":"function","name":"getPreSaled","inputs":[],"outputs":[{"name":"","type":"bool","internalType":"bool"}],"stateMutability":"view"},{"type":"function","name":"getPublicSaled","inputs":[],"outputs":[{"name":"","type":"bool","internalType":"bool"}],"stateMutability":"view"},{"type":"function","name":"getRevealed","inputs":[],"outputs":[{"name":"","type":"bool","internalType":"bool"}],"stateMutability":"view"},{"type":"function","name":"getStartPreSaleDate","inputs":[],"outputs":[{"name":"","type":"uint256","internalType":"uint256"}],"stateMutability":"view"},{"type":"function","name":"getStartPublicSaleDate","inputs":[],"outputs":[{"name":"","type":"uint256","internalType":"uint256"}],"stateMutability":"view"},{"type":"function","name":"getStartRevealDate","inputs":[],"outputs":[{"name":"","type":"uint256","internalType":"uint256"}],"stateMutability":"view"},{"type":"function","name":"getTokenURI","inputs":[{"name":"_tokenId","type":"uint256","internalType":"uint256"}],"outputs":[{"name":"","type":"string","internalType":"string"}],"stateMutability":"view"},{"type":"function","name":"getWhiteListMinterStatus","inputs":[{"name":"_minter","type":"address","internalType":"address"}],"outputs":[{"name":"","type":"bool","internalType":"bool"}],"stateMutability":"view"},{"type":"function","name":"init_pre_sale_price","inputs":[],"outputs":[{"name":"","type":"uint256","internalType":"uint256"}],"stateMutability":"view"},{"type":"function","name":"isApprovedForAll","inputs":[{"name":"owner","type":"address","internalType":"address"},{"name":"operator","type":"address","internalType":"address"}],"outputs":[{"name":"","type":"bool","internalType":"bool"}],"stateMutability":"view"},{"type":"function","name":"mintNFT","inputs":[{"name":"_tokenURI","type":"string","internalType":"string"}],"outputs":[],"stateMutability":"nonpayable"},{"type":"function","name":"name","inputs":[],"outputs":[{"name":"","type":"string","internalType":"string"}],"stateMutability":"view"},{"type":"function","name":"owner","inputs":[],"outputs":[{"name":"","type":"address","internalType":"address"}],"stateMutability":"view"},{"type":"function","name":"ownerOf","inputs":[{"name":"tokenId","type":"uint256","internalType":"uint256"}],"outputs":[{"name":"","type":"address","internalType":"address"}],"stateMutability":"view"},{"type":"function","name":"renounceOwnership","inputs":[],"outputs":[],"stateMutability":"nonpayable"},{"type":"function","name":"royaltyInfo","inputs":[{"name":"tokenId","type":"uint256","internalType":"uint256"},{"name":"salePrice","type":"uint256","internalType":"uint256"}],"outputs":[{"name":"","type":"address","internalType":"address"},{"name":"","type":"uint256","internalType":"uint256"}],"stateMutability":"view"},{"type":"function","name":"safeTransferFrom","inputs":[{"name":"from","type":"address","internalType":"address"},{"name":"to","type":"address","internalType":"address"},{"name":"tokenId","type":"uint256","internalType":"uint256"}],"outputs":[],"stateMutability":"nonpayable"},{"type":"function","name":"safeTransferFrom","inputs":[{"name":"from","type":"address","internalType":"address"},{"name":"to","type":"address","internalType":"address"},{"name":"tokenId","type":"uint256","internalType":"uint256"},{"name":"data","type":"bytes","internalType":"bytes"}],"outputs":[],"stateMutability":"nonpayable"},{"type":"function","name":"setApprovalForAll","inputs":[{"name":"operator","type":"address","internalType":"address"},{"name":"approved","type":"bool","internalType":"bool"}],"outputs":[],"stateMutability":"nonpayable"},{"type":"function","name":"startPreSale","inputs":[],"outputs":[],"stateMutability":"nonpayable"},{"type":"function","name":"startPublicSale","inputs":[],"outputs":[],"stateMutability":"nonpayable"},{"type":"function","name":"startReveal","inputs":[],"outputs":[],"stateMutability":"nonpayable"},{"type":"function","name":"supportsInterface","inputs":[{"name":"interfaceId","type":"bytes4","internalType":"bytes4"}],"outputs":[{"name":"","type":"bool","internalType":"bool"}],"stateMutability":"view"},{"type":"function","name":"symbol","inputs":[],"outputs":[{"name":"","type":"string","internalType":"string"}],"stateMutability":"view"},{"type":"function","name":"tokenURI","inputs":[{"name":"_tokenId","type":"uint256","internalType":"uint256"}],"outputs":[{"name":"","type":"string","internalType":"string"}],"stateMutability":"view"},{"type":"function","name":"totalSupply","inputs":[],"outputs":[{"name":"","type":"uint256","internalType":"uint256"}],"stateMutability":"view"},{"type":"function","name":"transferFrom","inputs":[{"name":"from","type":"address","internalType":"address"},{"name":"to","type":"address","internalType":"address"},{"name":"tokenId","type":"uint256","internalType":"uint256"}],"outputs":[],"stateMutability":"nonpayable"},{"type":"function","name":"transferOwnership","inputs":[{"name":"newOwner","type":"address","internalType":"address"}],"outputs":[],"stateMutability":"nonpayable"},{"type":"function","name":"whiteListMint","inputs":[{"name":"_merkleProof","type":"bytes32[]","internalType":"bytes32[]"}],"outputs":[],"stateMutability":"nonpayable"},{"type":"event","name":"Approval","inputs":[{"name":"owner","type":"address","indexed":true,"internalType":"address"},{"name":"approved","type":"address","indexed":true,"internalType":"address"},{"name":"tokenId","type":"uint256","indexed":true,"internalType":"uint256"}],"anonymous":false},{"type":"event","name":"ApprovalForAll","inputs":[{"name":"owner","type":"address","indexed":true,"internalType":"address"},{"name":"operator","type":"address","indexed":true,"internalType":"address"},{"name":"approved","type":"bool","indexed":false,"internalType":"bool"}],"anonymous":false},{"type":"event","name":"MintedInWhiteList","inputs":[{"name":"minter","type":"address","indexed":false,"internalType":"address"}],"anonymous":false},{"type":"event","name":"OwnershipTransferred","inputs":[{"name":"previousOwner","type":"address","indexed":true,"internalType":"address"},{"name":"newOwner","type":"address","indexed":true,"internalType":"address"}],"anonymous":false},{"type":"event","name":"Transfer","inputs":[{"name":"from","type":"address","indexed":true,"internalType":"address"},{"name":"to","type":"address","indexed":true,"internalType":"address"},{"name":"tokenId","type":"uint256","indexed":true,"internalType":"uint256"}],"anonymous":false},{"type":"event","name":"merkleRootChanged","inputs":[{"name":"newMerkleRoot","type":"bytes32","indexed":false,"internalType":"bytes32"}],"anonymous":false},{"type":"event","name":"phaseChanged","inputs":[{"name":"phase","type":"uint8","indexed":false,"internalType":"enum IZeroDay.PHASE"}],"anonymous":false},{"type":"error","name":"ERC2981InvalidDefaultRoyalty","inputs":[{"name":"numerator","type":"uint256","internalType":"uint256"},{"name":"denominator","type":"uint256","internalType":"uint256"}]},{"type":"error","name":"ERC2981InvalidDefaultRoyaltyReceiver","inputs":[{"name":"receiver","type":"address","internalType":"address"}]},{"type":"error","name":"ERC2981InvalidTokenRoyalty","inputs":[{"name":"tokenId","type":"uint256","internalType":"uint256"},{"name":"numerator","type":"uint256","internalType":"uint256"},{"name":"denominator","type":"uint256","internalType":"uint256"}]},{"type":"error","name":"ERC2981InvalidTokenRoyaltyReceiver","inputs":[{"name":"tokenId","type":"uint256","internalType":"uint256"},{"name":"receiver","type":"address","internalType":"address"}]},{"type":"error","name":"ERC721IncorrectOwner","inputs":[{"name":"sender","type":"address","internalType":"address"},{"name":"tokenId","type":"uint256","internalType":"uint256"},{"name":"owner","type":"address","internalType":"address"}]},{"type":"error","name":"ERC721InsufficientApproval","inputs":[{"name":"operator","type":"address","internalType":"address"},{"name":"tokenId","type":"uint256","internalType":"uint256"}]},{"type":"error","name":"ERC721InvalidApprover","inputs":[{"name":"approver","type":"address","internalType":"address"}]},{"type":"error","name":"ERC721InvalidOperator","inputs":[{"name":"operator","type":"address","internalType":"address"}]},{"type":"error","name":"ERC721InvalidOwner","inputs":[{"name":"owner","type":"address","internalType":"address"}]},{"type":"error","name":"ERC721InvalidReceiver","inputs":[{"name":"receiver","type":"address","internalType":"address"}]},{"type":"error","name":"ERC721InvalidSender","inputs":[{"name":"sender","type":"address","internalType":"address"}]},{"type":"error","name":"ERC721NonexistentToken","inputs":[{"name":"tokenId","type":"uint256","internalType":"uint256"}]},{"type":"error","name":"OwnableInvalidOwner","inputs":[{"name":"owner","type":"address","internalType":"address"}]},{"type":"error","name":"OwnableUnauthorizedAccount","inputs":[{"name":"account","type":"address","internalType":"address"}]},{"type":"error","name":"ReentrancyGuardReentrantCall","inputs":[]},{"type":"error","name":"ZeroDay__AlreadyMintedInWhiteList","inputs":[]},{"type":"error","name":"ZeroDay__ExceedsMaxSupply","inputs":[]},{"type":"error","name":"ZeroDay__MerkleProofHashesAreEmpty","inputs":[]},{"type":"error","name":"ZeroDay__NewMerkleRootHasSameNameWithOldMerkleRoot","inputs":[]},{"type":"error","name":"ZeroDay__PreSaleDateNotReached","inputs":[]},{"type":"error","name":"ZeroDay__PublicSaleDateNotReached","inputs":[]},{"type":"error","name":"ZeroDay__RevealDateNotReached","inputs":[]},{"type":"error","name":"ZeroDay__UserNotIncludedInWhiteList","inputs":[{"name":"user","type":"address","internalType":"address"}]},{"type":"error","name":"ZeroDay__WeAreNotInThisPhase","inputs":[]},{"type":"error","name":"ZeroDay__tokenIdHasNotMinted","inputs":[{"name":"tokenId","type":"uint256","internalType":"uint256"}]}],"bytecode":{"object":"0x60a06040523480156200001157600080fd5b506040516200231438038062002314833981016040819052620000349162000157565b33604051806040016040528060078152602001665a65726f44617960c81b815250604051806040016040528060048152602001635a45524f60e01b81525081600290816200008391906200023d565b5060036200009282826200023d565b50506001600855506001600160a01b038116620000c957604051631e4fbdf760e01b81526000600482015260240160405180910390fd5b620000d48162000105565b50608094909452600a92909255600c91909155600b55600f55600d805460ff191660011790556000600e5562000309565b600980546001600160a01b038381166001600160a01b0319831681179093556040519116919082907f8be0079c531659141344cd1fd0a4f28419497f9722a3daafe3b4186f6b6457e090600090a35050565b600080600080600060a086880312156200017057600080fd5b5050835160208501516040860151606087015160809097015192989197509594509092509050565b634e487b7160e01b600052604160045260246000fd5b600181811c90821680620001c357607f821691505b602082108103620001e457634e487b7160e01b600052602260045260246000fd5b50919050565b601f8211156200023857600081815260208120601f850160051c81016020861015620002135750805b601f850160051c820191505b8181101562000234578281556001016200021f565b5050505b505050565b81516001600160401b0381111562000259576200025962000198565b62000271816200026a8454620001ae565b84620001ea565b602080601f831160018114620002a95760008415620002905750858301515b600019600386901b1c1916600185901b17855562000234565b600085815260208120601f198616915b82811015620002da57888601518255948401946001909101908401620002b9565b5085821015620002f95787850151600019600388901b60f8161c191681555b5050505050600190811b01905550565b608051611fef6200032560003960006102f50152611fef6000f3fe608060405234801561001057600080fd5b50600436106102325760003560e01c806370a0823111610130578063b1164e83116100b8578063e93e73bb1161007c578063e93e73bb146104a8578063e985e9c5146104b9578063ebcea3db146104cc578063f2fde38b146104df578063fb37e883146104f257600080fd5b8063b1164e8314610466578063b88d4fde1461046f578063c87b56dd14610482578063d26a8b9514610495578063d71f41be1461049d57600080fd5b806395d89b41116100ff57806395d89b411461041d57806397254e5514610425578063a22cb46514610438578063a3a40ea51461044b578063ad72202b1461045e57600080fd5b806370a08231146103e1578063715018a6146103f45780638da5cb5b146103fc57806394cc41401461040d57600080fd5b80632052d2e9116101be57806342842e0e1161018257806342842e0e1461037f578063495906571461039257806355dd574c1461039a5780636352211e146103a2578063692c4d72146103b557600080fd5b80632052d2e91461031757806323b872dd1461031f5780632a55205a146103325780633bb3a24d146103645780633fd4f8a41461037757600080fd5b8063095ea7b311610205578063095ea7b3146102bc5780630c1c972a146102d157806317e7f295146102d957806318160ddd146102e85780631d25d583146102f057600080fd5b806301ffc9a71461023757806306fdde031461025f57806307e89ec014610274578063081812fc14610291575b600080fd5b61024a610245366004611927565b610505565b60405190151581526020015b60405180910390f35b610267610516565b6040516102569190611994565b610283670de0b6b3a764000081565b604051908152602001610256565b6102a461029f3660046119a7565b6105a8565b6040516001600160a01b039091168152602001610256565b6102cf6102ca3660046119dc565b6105d1565b005b6102cf6105e0565b6102836706f05b59d3b2000081565b600e54610283565b6102837f000000000000000000000000000000000000000000000000000000000000000081565b600b54610283565b6102cf61032d366004611a06565b610702565b610345610340366004611a42565b61078d565b604080516001600160a01b039093168352602083019190915201610256565b6102676103723660046119a7565b610839565b600a54610283565b6102cf61038d366004611a06565b6108db565b600f54610283565b6102cf6108fb565b6102a46103b03660046119a7565b610a08565b61024a6103c3366004611a64565b6001600160a01b031660009081526011602052604090205460ff1690565b6102836103ef366004611a64565b610a13565b6102cf610a5b565b6009546001600160a01b03166102a4565b601054610100900460ff1661024a565b610267610a6f565b6102cf610433366004611ac6565b610a7e565b6102cf610446366004611b6c565b610bab565b600d5460ff166040516102569190611bbe565b6102cf610bb6565b6102836126ff81565b6102cf61047d366004611c3e565b610cd8565b6102676104903660046119a7565b610cef565b600c54610283565b60105460ff1661024a565b60105462010000900460ff1661024a565b61024a6104c7366004611cba565b610e11565b6102cf6104da3660046119a7565b610e3f565b6102cf6104ed366004611a64565b610e9e565b6102cf610500366004611ced565b610ed9565b600061051082610ff1565b92915050565b60606002805461052590611d36565b80601f016020809104026020016040519081016040528092919081815260200182805461055190611d36565b801561059e5780601f106105735761010080835404028352916020019161059e565b820191906000526020600020905b81548152906001019060200180831161058157829003601f168201915b5050505050905090565b60006105b382611031565b506000828152600660205260409020546001600160a01b0316610510565b6105dc82823361106a565b5050565b6105e8611077565b600280600d5460ff16600381111561060257610602611ba8565b14610620576040516314f654af60e11b815260040160405180910390fd5b60105462010000900460ff161561067e5760405162461bcd60e51b815260206004820152601a60248201527f5a65726f4461795f5f7075626c696353616c65644265666f726500000000000060448201526064015b60405180910390fd5b600c544263ffffffff1610156106a757604051632ed53c1b60e11b815260040160405180910390fd5b6010805462ff0000191662010000179055600d8054600360ff1990911681179091556040517f6e95ed764170cfef59dda5e1ac3807631b7a671104ce4df3bdc070de9cecf808916106f791611bbe565b60405180910390a150565b6001600160a01b03821661072c57604051633250574960e11b815260006004820152602401610675565b60006107398383336110a4565b9050836001600160a01b0316816001600160a01b031614610787576040516364283d7b60e01b81526001600160a01b0380861660048301526024820184905282166044820152606401610675565b50505050565b60008281526001602090815260408083208151808301909252546001600160a01b038116808352600160a01b9091046001600160601b03169282019290925282916108025750604080518082019091526000546001600160a01b0381168252600160a01b90046001600160601b031660208201525b602081015160009061271090610821906001600160601b031687611d86565b61082b9190611d9d565b915196919550909350505050565b600081815260126020526040902080546060919061085690611d36565b80601f016020809104026020016040519081016040528092919081815260200182805461088290611d36565b80156108cf5780601f106108a4576101008083540402835291602001916108cf565b820191906000526020600020905b8154815290600101906020018083116108b257829003601f168201915b50505050509050919050565b6108f683838360405180602001604052806000815250610cd8565b505050565b610903611077565b600180600d5460ff16600381111561091d5761091d611ba8565b1461093b576040516314f654af60e11b815260040160405180910390fd5b60105460ff161561098e5760405162461bcd60e51b815260206004820152601760248201527f5a65726f4461795f5f70726553616c65644265666f72650000000000000000006044820152606401610675565b600a544263ffffffff16101580156109ad5750600b544263ffffffff16105b6109ca57604051635c700aa760e11b815260040160405180910390fd5b6010805460ff191660019081179091556040517f6e95ed764170cfef59dda5e1ac3807631b7a671104ce4df3bdc070de9cecf808916106f791611bbe565b600061051082611031565b60006001600160a01b038216610a3f576040516322718ad960e21b815260006004820152602401610675565b506001600160a01b031660009081526005602052604090205490565b610a63611077565b610a6d600061119d565b565b60606003805461052590611d36565b610a866111ef565b600180600d5460ff166003811115610aa057610aa0611ba8565b14610abe576040516314f654af60e11b815260040160405180910390fd5b6126ff610aca600e5490565b610ad5906001611dbf565b1115610af45760405163610323c760e01b815260040160405180910390fd5b815115610b14576040516301696f4160e11b815260040160405180910390fd5b3360009081526011602052604090205460ff1615610b455760405163269727ef60e01b815260040160405180910390fd5b336000818152601160205260409020805460ff19166001179055610b6a908390611219565b6040513381527f0f07877447a50a723845caebf5eda4c73988d5d4cd4392e276160d5959d7f9c09060200160405180910390a150610ba86001600855565b50565b6105dc3383836112ae565b610bbe611077565b600180600d5460ff166003811115610bd857610bd8611ba8565b14610bf6576040516314f654af60e11b815260040160405180910390fd5b601054610100900460ff1615610c4e5760405162461bcd60e51b815260206004820152601760248201527f5a65726f4461795f5f52656576616c65644265666f72650000000000000000006044820152606401610675565b600b544263ffffffff1610158015610c6d5750600c544263ffffffff16105b610c8a576040516325a781f160e11b815260040160405180910390fd5b6010805461ff001916610100179055600d8054600260ff1990911681179091556040517f6e95ed764170cfef59dda5e1ac3807631b7a671104ce4df3bdc070de9cecf808916106f791611bbe565b610ce3848484610702565b6107878484848461134d565b600081815260126020526040812080546060929190610d0d90611d36565b80601f0160208091040260200160405190810160405280929190818152602001828054610d3990611d36565b8015610d865780601f10610d5b57610100808354040283529160200191610d86565b820191906000526020600020905b815481529060010190602001808311610d6957829003601f168201915b505050505090508051600003610db2576040516336b0abc560e01b815260048101849052602401610675565b60408051808201909152601581527468747470733a2f2f697066732e696f2f697066732f60581b602082015281610de885611476565b604051602001610dfa93929190611dd2565b604051602081830303815290604052915050919050565b6001600160a01b03918216600090815260076020908152604080832093909416825291909152205460ff1690565b610e47611077565b600f548103610e6957604051632546ab2360e21b815260040160405180910390fd5b600f8190556040518181527f72bc5e181bb490da5a7c279c8dbfb225cabd111f78ed2ffc2c1953ad9ce9875b906020016106f7565b610ea6611077565b6001600160a01b038116610ed057604051631e4fbdf760e01b815260006004820152602401610675565b610ba88161119d565b610ee16111ef565b600380600d5460ff166003811115610efb57610efb611ba8565b14610f19576040516314f654af60e11b815260040160405180910390fd5b6126ff610f25600e5490565b610f30906001611dbf565b1115610f4f5760405163610323c760e01b815260040160405180910390fd5b8151600003610fa05760405162461bcd60e51b815260206004820152601860248201527f5a65726f4461795f5f496e76616c6964546f6b656e55524900000000000000006044820152606401610675565b6000610fab600e5490565b610fb6906001611dbf565b6000818152601260205260409020909150610fd18482611e70565b50600e80546001019055610fe53382611509565b5050610ba86001600855565b60006001600160e01b031982166380ac58cd60e01b148061102257506001600160e01b03198216635b5e139f60e01b145b80610510575061051082611523565b6000818152600460205260408120546001600160a01b03168061051057604051637e27328960e01b815260048101849052602401610675565b6108f68383836001611558565b6009546001600160a01b03163314610a6d5760405163118cdaa760e01b8152336004820152602401610675565b6000828152600460205260408120546001600160a01b03908116908316156110d1576110d181848661165e565b6001600160a01b0381161561110f576110ee600085600080611558565b6001600160a01b038116600090815260056020526040902080546000190190555b6001600160a01b0385161561113e576001600160a01b0385166000908152600560205260409020805460010190555b60008481526004602052604080822080546001600160a01b0319166001600160a01b0389811691821790925591518793918516917fddf252ad1be2c89b69c2b068fc378daa952ba7f163c4a11628f55a4df523b3ef91a4949350505050565b600980546001600160a01b038381166001600160a01b0319831681179093556040519116919082907f8be0079c531659141344cd1fd0a4f28419497f9722a3daafe3b4186f6b6457e090600090a35050565b60026008540361121257604051633ee5aeb560e01b815260040160405180910390fd5b6002600855565b6040516bffffffffffffffffffffffff19606083901b16602082015260009060340160405160208183030381529060405280519060200120905061126083600f54836116c2565b61128857604051632ef744ed60e01b81526001600160a01b0383166004820152602401610675565b600e805460010190556108f68261129e600e5490565b6112a9906001611dbf565b611509565b6001600160a01b0382166112e057604051630b61174360e31b81526001600160a01b0383166004820152602401610675565b6001600160a01b03838116600081815260076020908152604080832094871680845294825291829020805460ff191686151590811790915591519182527f17307eab39ab6107e8899845ad3d59bd9653f200f220920489ca2b5937696c31910160405180910390a3505050565b6001600160a01b0383163b1561078757604051630a85bd0160e11b81526001600160a01b0384169063150b7a029061138f903390889087908790600401611f30565b6020604051808303816000875af19250505080156113ca575060408051601f3d908101601f191682019092526113c791810190611f6d565b60015b611433573d8080156113f8576040519150601f19603f3d011682016040523d82523d6000602084013e6113fd565b606091505b50805160000361142b57604051633250574960e11b81526001600160a01b0385166004820152602401610675565b805181602001fd5b6001600160e01b03198116630a85bd0160e11b1461146f57604051633250574960e11b81526001600160a01b0385166004820152602401610675565b5050505050565b60606000611483836116d8565b600101905060008167ffffffffffffffff8111156114a3576114a3611a7f565b6040519080825280601f01601f1916602001820160405280156114cd576020820181803683370190505b5090508181016020015b600019016f181899199a1a9b1b9c1cb0b131b232b360811b600a86061a8153600a85049450846114d757509392505050565b6105dc8282604051806020016040528060008152506117b0565b60006001600160e01b0319821663152a902d60e11b148061051057506301ffc9a760e01b6001600160e01b0319831614610510565b808061156c57506001600160a01b03821615155b1561162e57600061157c84611031565b90506001600160a01b038316158015906115a85750826001600160a01b0316816001600160a01b031614155b80156115bb57506115b98184610e11565b155b156115e45760405163a9fbf51f60e01b81526001600160a01b0384166004820152602401610675565b811561162c5783856001600160a01b0316826001600160a01b03167f8c5be1e5ebec7d5bd14f71427d1e84f3dd0314c0f7b2291e5b200ac8c7c3b92560405160405180910390a45b505b5050600090815260066020526040902080546001600160a01b0319166001600160a01b0392909216919091179055565b6116698383836117c7565b6108f6576001600160a01b03831661169757604051637e27328960e01b815260048101829052602401610675565b60405163177e802f60e01b81526001600160a01b038316600482015260248101829052604401610675565b6000826116cf858461182d565b14949350505050565b60008072184f03e93ff9f4daa797ed6e38ed64bf6a1f0160401b83106117175772184f03e93ff9f4daa797ed6e38ed64bf6a1f0160401b830492506040015b6d04ee2d6d415b85acef81000000008310611743576d04ee2d6d415b85acef8100000000830492506020015b662386f26fc10000831061176157662386f26fc10000830492506010015b6305f5e1008310611779576305f5e100830492506008015b612710831061178d57612710830492506004015b6064831061179f576064830492506002015b600a83106105105760010192915050565b6117ba838361187a565b6108f6600084848461134d565b60006001600160a01b038316158015906118255750826001600160a01b0316846001600160a01b0316148061180157506118018484610e11565b8061182557506000828152600660205260409020546001600160a01b038481169116145b949350505050565b600081815b84518110156118725761185e8286838151811061185157611851611f8a565b60200260200101516118df565b91508061186a81611fa0565b915050611832565b509392505050565b6001600160a01b0382166118a457604051633250574960e11b815260006004820152602401610675565b60006118b2838360006110a4565b90506001600160a01b038116156108f6576040516339e3563760e11b815260006004820152602401610675565b60008183106118fb57600082815260208490526040902061190a565b60008381526020839052604090205b9392505050565b6001600160e01b031981168114610ba857600080fd5b60006020828403121561193957600080fd5b813561190a81611911565b60005b8381101561195f578181015183820152602001611947565b50506000910152565b60008151808452611980816020860160208601611944565b601f01601f19169290920160200192915050565b60208152600061190a6020830184611968565b6000602082840312156119b957600080fd5b5035919050565b80356001600160a01b03811681146119d757600080fd5b919050565b600080604083850312156119ef57600080fd5b6119f8836119c0565b946020939093013593505050565b600080600060608486031215611a1b57600080fd5b611a24846119c0565b9250611a32602085016119c0565b9150604084013590509250925092565b60008060408385031215611a5557600080fd5b50508035926020909101359150565b600060208284031215611a7657600080fd5b61190a826119c0565b634e487b7160e01b600052604160045260246000fd5b604051601f8201601f1916810167ffffffffffffffff81118282101715611abe57611abe611a7f565b604052919050565b60006020808385031215611ad957600080fd5b823567ffffffffffffffff80821115611af157600080fd5b818501915085601f830112611b0557600080fd5b813581811115611b1757611b17611a7f565b8060051b9150611b28848301611a95565b8181529183018401918481019088841115611b4257600080fd5b938501935b83851015611b6057843582529385019390850190611b47565b98975050505050505050565b60008060408385031215611b7f57600080fd5b611b88836119c0565b915060208301358015158114611b9d57600080fd5b809150509250929050565b634e487b7160e01b600052602160045260246000fd5b6020810160048310611be057634e487b7160e01b600052602160045260246000fd5b91905290565b600067ffffffffffffffff831115611c0057611c00611a7f565b611c13601f8401601f1916602001611a95565b9050828152838383011115611c2757600080fd5b828260208301376000602084830101529392505050565b60008060008060808587031215611c5457600080fd5b611c5d856119c0565b9350611c6b602086016119c0565b925060408501359150606085013567ffffffffffffffff811115611c8e57600080fd5b8501601f81018713611c9f57600080fd5b611cae87823560208401611be6565b91505092959194509250565b60008060408385031215611ccd57600080fd5b611cd6836119c0565b9150611ce4602084016119c0565b90509250929050565b600060208284031215611cff57600080fd5b813567ffffffffffffffff811115611d1657600080fd5b8201601f81018413611d2757600080fd5b61182584823560208401611be6565b600181811c90821680611d4a57607f821691505b602082108103611d6a57634e487b7160e01b600052602260045260246000fd5b50919050565b634e487b7160e01b600052601160045260246000fd5b808202811582820484141761051057610510611d70565b600082611dba57634e487b7160e01b600052601260045260246000fd5b500490565b8082018082111561051057610510611d70565b60008451611de4818460208901611944565b845190830190611df8818360208901611944565b602f60f81b91019081528351611e15816001840160208801611944565b0160010195945050505050565b601f8211156108f657600081815260208120601f850160051c81016020861015611e495750805b601f850160051c820191505b81811015611e6857828155600101611e55565b505050505050565b815167ffffffffffffffff811115611e8a57611e8a611a7f565b611e9e81611e988454611d36565b84611e22565b602080601f831160018114611ed35760008415611ebb5750858301515b600019600386901b1c1916600185901b178555611e68565b600085815260208120601f198616915b82811015611f0257888601518255948401946001909101908401611ee3565b5085821015611f205787850151600019600388901b60f8161c191681555b5050505050600190811b01905550565b6001600160a01b0385811682528416602082015260408101839052608060608201819052600090611f6390830184611968565b9695505050505050565b600060208284031215611f7f57600080fd5b815161190a81611911565b634e487b7160e01b600052603260045260246000fd5b600060018201611fb257611fb2611d70565b506001019056fea264697066735822122024ba2a6308e4589acfdb418c9ac15479916eb30537945fbd577c220b5bb3ed0364736f6c63430008140033","linkReferences":{}},"methodIdentifiers":{"COLLECTION_MAX_SUPPLY()":"b1164e83","PUBLIC_SALE_PRICE()":"07e89ec0","WHITELIST_PRICE()":"17e7f295","approve(address,uint256)":"095ea7b3","balanceOf(address)":"70a08231","changeMerkleRoot(bytes32)":"ebcea3db","getApproved(uint256)":"081812fc","getCurrentPhase()":"a3a40ea5","getMerkleRoot()":"49590657","getPreSaled()":"d71f41be","getPublicSaled()":"e93e73bb","getRevealed()":"94cc4140","getStartPreSaleDate()":"3fd4f8a4","getStartPublicSaleDate()":"d26a8b95","getStartRevealDate()":"2052d2e9","getTokenURI(uint256)":"3bb3a24d","getWhiteListMinterStatus(address)":"692c4d72","init_pre_sale_price()":"1d25d583","isApprovedForAll(address,address)":"e985e9c5","mintNFT(string)":"fb37e883","name()":"06fdde03","owner()":"8da5cb5b","ownerOf(uint256)":"6352211e","renounceOwnership()":"715018a6","royaltyInfo(uint256,uint256)":"2a55205a","safeTransferFrom(address,address,uint256)":"42842e0e","safeTransferFrom(address,address,uint256,bytes)":"b88d4fde","setApprovalForAll(address,bool)":"a22cb465","startPreSale()":"55dd574c","startPublicSale()":"0c1c972a","startReveal()":"ad72202b","supportsInterface(bytes4)":"01ffc9a7","symbol()":"95d89b41","tokenURI(uint256)":"c87b56dd","totalSupply()":"18160ddd","transferFrom(address,address,uint256)":"23b872dd","transferOwnership(address)":"f2fde38b","whiteListMint(bytes32[])":"97254e55"},"id":44}