{"abi":[{"type":"constructor","inputs":[{"name":"_init_pre_sale_price","type":"uint256","internalType":"uint256"},{"name":"_startPreSaleDate","type":"uint256","internalType":"uint256"},{"name":"_startRevealDate","type":"uint256","internalType":"uint256"},{"name":"_startPublicSaleDate","type":"uint256","internalType":"uint256"},{"name":"_merkle_root","type":"bytes32","internalType":"bytes32"}],"stateMutability":"nonpayable"},{"type":"function","name":"COLLECTION_MAX_SUPPLY","inputs":[],"outputs":[{"name":"","type":"uint256","internalType":"uint256"}],"stateMutability":"view"},{"type":"function","name":"PUBLIC_SALE_MINT_PRICE","inputs":[],"outputs":[{"name":"","type":"uint256","internalType":"uint256"}],"stateMutability":"view"},{"type":"function","name":"approve","inputs":[{"name":"to","type":"address","internalType":"address"},{"name":"tokenId","type":"uint256","internalType":"uint256"}],"outputs":[],"stateMutability":"nonpayable"},{"type":"function","name":"balanceOf","inputs":[{"name":"owner","type":"address","internalType":"address"}],"outputs":[{"name":"","type":"uint256","internalType":"uint256"}],"stateMutability":"view"},{"type":"function","name":"changeMerkleRoot","inputs":[{"name":"_newMerkleRoot","type":"bytes32","internalType":"bytes32"}],"outputs":[],"stateMutability":"nonpayable"},{"type":"function","name":"changePreSaleDate","inputs":[{"name":"_newPreSaleDate","type":"uint256","internalType":"uint256"}],"outputs":[],"stateMutability":"nonpayable"},{"type":"function","name":"changePublicSaleDate","inputs":[{"name":"_newPublicSaleDate","type":"uint256","internalType":"uint256"}],"outputs":[],"stateMutability":"nonpayable"},{"type":"function","name":"changeRevealDate","inputs":[{"name":"_newRevealDate","type":"uint256","internalType":"uint256"}],"outputs":[],"stateMutability":"nonpayable"},{"type":"function","name":"getApproved","inputs":[{"name":"tokenId","type":"uint256","internalType":"uint256"}],"outputs":[{"name":"","type":"address","internalType":"address"}],"stateMutability":"view"},{"type":"function","name":"getCurrentPhase","inputs":[],"outputs":[{"name":"","type":"uint8","internalType":"enum IZeroDay.PHASE"}],"stateMutability":"view"},{"type":"function","name":"getMerkleRoot","inputs":[],"outputs":[{"name":"","type":"bytes32","internalType":"bytes32"}],"stateMutability":"view"},{"type":"function","name":"getPreSaled","inputs":[],"outputs":[{"name":"","type":"bool","internalType":"bool"}],"stateMutability":"view"},{"type":"function","name":"getPublicSaled","inputs":[],"outputs":[{"name":"","type":"bool","internalType":"bool"}],"stateMutability":"view"},{"type":"function","name":"getRevealed","inputs":[],"outputs":[{"name":"","type":"bool","internalType":"bool"}],"stateMutability":"view"},{"type":"function","name":"getStartPreSaleDate","inputs":[],"outputs":[{"name":"","type":"uint256","internalType":"uint256"}],"stateMutability":"view"},{"type":"function","name":"getStartPublicSaleDate","inputs":[],"outputs":[{"name":"","type":"uint256","internalType":"uint256"}],"stateMutability":"view"},{"type":"function","name":"getStartRevealDate","inputs":[],"outputs":[{"name":"","type":"uint256","internalType":"uint256"}],"stateMutability":"view"},{"type":"function","name":"getWhiteListMinterStatus","inputs":[{"name":"_minter","type":"address","internalType":"address"}],"outputs":[{"name":"","type":"bool","internalType":"bool"}],"stateMutability":"view"},{"type":"function","name":"init_pre_sale_price","inputs":[],"outputs":[{"name":"","type":"uint256","internalType":"uint256"}],"stateMutability":"view"},{"type":"function","name":"isApprovedForAll","inputs":[{"name":"owner","type":"address","internalType":"address"},{"name":"operator","type":"address","internalType":"address"}],"outputs":[{"name":"","type":"bool","internalType":"bool"}],"stateMutability":"view"},{"type":"function","name":"mintNFT","inputs":[],"outputs":[],"stateMutability":"payable"},{"type":"function","name":"name","inputs":[],"outputs":[{"name":"","type":"string","internalType":"string"}],"stateMutability":"view"},{"type":"function","name":"owner","inputs":[],"outputs":[{"name":"","type":"address","internalType":"address"}],"stateMutability":"view"},{"type":"function","name":"ownerOf","inputs":[{"name":"tokenId","type":"uint256","internalType":"uint256"}],"outputs":[{"name":"","type":"address","internalType":"address"}],"stateMutability":"view"},{"type":"function","name":"renounceOwnership","inputs":[],"outputs":[],"stateMutability":"nonpayable"},{"type":"function","name":"royaltyInfo","inputs":[{"name":"tokenId","type":"uint256","internalType":"uint256"},{"name":"salePrice","type":"uint256","internalType":"uint256"}],"outputs":[{"name":"","type":"address","internalType":"address"},{"name":"","type":"uint256","internalType":"uint256"}],"stateMutability":"view"},{"type":"function","name":"safeTransferFrom","inputs":[{"name":"from","type":"address","internalType":"address"},{"name":"to","type":"address","internalType":"address"},{"name":"tokenId","type":"uint256","internalType":"uint256"}],"outputs":[],"stateMutability":"nonpayable"},{"type":"function","name":"safeTransferFrom","inputs":[{"name":"from","type":"address","internalType":"address"},{"name":"to","type":"address","internalType":"address"},{"name":"tokenId","type":"uint256","internalType":"uint256"},{"name":"data","type":"bytes","internalType":"bytes"}],"outputs":[],"stateMutability":"nonpayable"},{"type":"function","name":"setApprovalForAll","inputs":[{"name":"operator","type":"address","internalType":"address"},{"name":"approved","type":"bool","internalType":"bool"}],"outputs":[],"stateMutability":"nonpayable"},{"type":"function","name":"startPreSale","inputs":[],"outputs":[],"stateMutability":"nonpayable"},{"type":"function","name":"startPublicSale","inputs":[],"outputs":[],"stateMutability":"nonpayable"},{"type":"function","name":"startReveal","inputs":[],"outputs":[],"stateMutability":"nonpayable"},{"type":"function","name":"supportsInterface","inputs":[{"name":"interfaceId","type":"bytes4","internalType":"bytes4"}],"outputs":[{"name":"","type":"bool","internalType":"bool"}],"stateMutability":"view"},{"type":"function","name":"symbol","inputs":[],"outputs":[{"name":"","type":"string","internalType":"string"}],"stateMutability":"view"},{"type":"function","name":"tokenIdMinted","inputs":[{"name":"_tokenId","type":"uint256","internalType":"uint256"}],"outputs":[{"name":"","type":"bool","internalType":"bool"}],"stateMutability":"view"},{"type":"function","name":"tokenURI","inputs":[{"name":"_tokenId","type":"uint256","internalType":"uint256"}],"outputs":[{"name":"","type":"string","internalType":"string"}],"stateMutability":"view"},{"type":"function","name":"totalSupply","inputs":[],"outputs":[{"name":"","type":"uint256","internalType":"uint256"}],"stateMutability":"view"},{"type":"function","name":"transferFrom","inputs":[{"name":"from","type":"address","internalType":"address"},{"name":"to","type":"address","internalType":"address"},{"name":"tokenId","type":"uint256","internalType":"uint256"}],"outputs":[],"stateMutability":"nonpayable"},{"type":"function","name":"transferOwnership","inputs":[{"name":"newOwner","type":"address","internalType":"address"}],"outputs":[],"stateMutability":"nonpayable"},{"type":"function","name":"whiteListMint","inputs":[{"name":"_merkleProof","type":"bytes32[]","internalType":"bytes32[]"}],"outputs":[],"stateMutability":"payable"},{"type":"event","name":"Approval","inputs":[{"name":"owner","type":"address","indexed":true,"internalType":"address"},{"name":"approved","type":"address","indexed":true,"internalType":"address"},{"name":"tokenId","type":"uint256","indexed":true,"internalType":"uint256"}],"anonymous":false},{"type":"event","name":"ApprovalForAll","inputs":[{"name":"owner","type":"address","indexed":true,"internalType":"address"},{"name":"operator","type":"address","indexed":true,"internalType":"address"},{"name":"approved","type":"bool","indexed":false,"internalType":"bool"}],"anonymous":false},{"type":"event","name":"MintedInWhiteList","inputs":[{"name":"minter","type":"address","indexed":false,"internalType":"address"}],"anonymous":false},{"type":"event","name":"OwnershipTransferred","inputs":[{"name":"previousOwner","type":"address","indexed":true,"internalType":"address"},{"name":"newOwner","type":"address","indexed":true,"internalType":"address"}],"anonymous":false},{"type":"event","name":"Transfer","inputs":[{"name":"from","type":"address","indexed":true,"internalType":"address"},{"name":"to","type":"address","indexed":true,"internalType":"address"},{"name":"tokenId","type":"uint256","indexed":true,"internalType":"uint256"}],"anonymous":false},{"type":"event","name":"merkleRootChanged","inputs":[{"name":"newMerkleRoot","type":"bytes32","indexed":false,"internalType":"bytes32"}],"anonymous":false},{"type":"event","name":"phaseChanged","inputs":[{"name":"phase","type":"uint8","indexed":false,"internalType":"enum IZeroDay.PHASE"}],"anonymous":false},{"type":"error","name":"ERC2981InvalidDefaultRoyalty","inputs":[{"name":"numerator","type":"uint256","internalType":"uint256"},{"name":"denominator","type":"uint256","internalType":"uint256"}]},{"type":"error","name":"ERC2981InvalidDefaultRoyaltyReceiver","inputs":[{"name":"receiver","type":"address","internalType":"address"}]},{"type":"error","name":"ERC2981InvalidTokenRoyalty","inputs":[{"name":"tokenId","type":"uint256","internalType":"uint256"},{"name":"numerator","type":"uint256","internalType":"uint256"},{"name":"denominator","type":"uint256","internalType":"uint256"}]},{"type":"error","name":"ERC2981InvalidTokenRoyaltyReceiver","inputs":[{"name":"tokenId","type":"uint256","internalType":"uint256"},{"name":"receiver","type":"address","internalType":"address"}]},{"type":"error","name":"ERC721IncorrectOwner","inputs":[{"name":"sender","type":"address","internalType":"address"},{"name":"tokenId","type":"uint256","internalType":"uint256"},{"name":"owner","type":"address","internalType":"address"}]},{"type":"error","name":"ERC721InsufficientApproval","inputs":[{"name":"operator","type":"address","internalType":"address"},{"name":"tokenId","type":"uint256","internalType":"uint256"}]},{"type":"error","name":"ERC721InvalidApprover","inputs":[{"name":"approver","type":"address","internalType":"address"}]},{"type":"error","name":"ERC721InvalidOperator","inputs":[{"name":"operator","type":"address","internalType":"address"}]},{"type":"error","name":"ERC721InvalidOwner","inputs":[{"name":"owner","type":"address","internalType":"address"}]},{"type":"error","name":"ERC721InvalidReceiver","inputs":[{"name":"receiver","type":"address","internalType":"address"}]},{"type":"error","name":"ERC721InvalidSender","inputs":[{"name":"sender","type":"address","internalType":"address"}]},{"type":"error","name":"ERC721NonexistentToken","inputs":[{"name":"tokenId","type":"uint256","internalType":"uint256"}]},{"type":"error","name":"OwnableInvalidOwner","inputs":[{"name":"owner","type":"address","internalType":"address"}]},{"type":"error","name":"OwnableUnauthorizedAccount","inputs":[{"name":"account","type":"address","internalType":"address"}]},{"type":"error","name":"ReentrancyGuardReentrantCall","inputs":[]},{"type":"error","name":"ZeroDay__AlreadyMintedInWhiteList","inputs":[]},{"type":"error","name":"ZeroDay__ExceedsMaxSupply","inputs":[]},{"type":"error","name":"ZeroDay__MerkleProofHashesAreEmpty","inputs":[]},{"type":"error","name":"ZeroDay__NewMerkleRootHasSameNameWithOldMerkleRoot","inputs":[]},{"type":"error","name":"ZeroDay__NotSufficientBalanceToMint","inputs":[]},{"type":"error","name":"ZeroDay__PreSaleDateNotReached","inputs":[]},{"type":"error","name":"ZeroDay__PublicSaleDateNotReached","inputs":[]},{"type":"error","name":"ZeroDay__RevealDateNotReached","inputs":[]},{"type":"error","name":"ZeroDay__UserNotIncludedInWhiteList","inputs":[{"name":"user","type":"address","internalType":"address"}]},{"type":"error","name":"ZeroDay__WeAreNotInThisPhase","inputs":[]},{"type":"error","name":"ZeroDay__newDateIsAsSameAsOldOne","inputs":[]},{"type":"error","name":"ZeroDay__thisTokenIdHasNotMinted","inputs":[]}],"bytecode":{"object":"0x60a06040523480156200001157600080fd5b506040516200262638038062002626833981016040819052620000349162000157565b33604051806040016040528060078152602001665a65726f44617960c81b815250604051806040016040528060048152602001635a45524f60e01b81525081600290816200008391906200023d565b5060036200009282826200023d565b50506001600855506001600160a01b038116620000c957604051631e4fbdf760e01b81526000600482015260240160405180910390fd5b620000d48162000105565b50608094909452600a92909255600c91909155600b55600f55600d805460ff191660011790556000600e5562000309565b600980546001600160a01b038381166001600160a01b0319831681179093556040519116919082907f8be0079c531659141344cd1fd0a4f28419497f9722a3daafe3b4186f6b6457e090600090a35050565b600080600080600060a086880312156200017057600080fd5b5050835160208501516040860151606087015160809097015192989197509594509092509050565b634e487b7160e01b600052604160045260246000fd5b600181811c90821680620001c357607f821691505b602082108103620001e457634e487b7160e01b600052602260045260246000fd5b50919050565b601f8211156200023857600081815260208120601f850160051c81016020861015620002135750805b601f850160051c820191505b8181101562000234578281556001016200021f565b5050505b505050565b81516001600160401b0381111562000259576200025962000198565b62000271816200026a8454620001ae565b84620001ea565b602080601f831160018114620002a95760008415620002905750858301515b600019600386901b1c1916600185901b17855562000234565b600085815260208120601f198616915b82811015620002da57888601518255948401946001909101908401620002b9565b5085821015620002f95787850151600019600388901b60f8161c191681555b5050505050600190811b01905550565b6080516122fa6200032c6000396000818161035f0152610f6701526122fa6000f3fe60806040526004361061023b5760003560e01c80638da5cb5b1161012e578063be35057d116100ab578063e93e73bb1161006f578063e93e73bb1461068d578063e985e9c5146106ab578063ebcea3db146106cb578063f2fde38b146106eb578063f843ae411461070b57600080fd5b8063be35057d146105f0578063c1d4f2f914610610578063c87b56dd14610640578063d26a8b9514610660578063d71f41be1461067557600080fd5b8063a22cb465116100f2578063a22cb46514610565578063a3a40ea514610585578063ad72202b146105a5578063b1164e83146105ba578063b88d4fde146105d057600080fd5b80638da5cb5b146104e257806394cc41401461050057806394d2717d1461051d57806395d89b411461053d57806397254e551461055257600080fd5b806323b872dd116101bc57806355dd574c1161018057806355dd574c1461043f5780636352211e14610454578063692c4d721461047457806370a08231146104ad578063715018a6146104cd57600080fd5b806323b872dd146103965780632a55205a146103b65780633fd4f8a4146103f557806342842e0e1461040a578063495906571461042a57600080fd5b806314f710fe1161020357806314f710fe1461030657806318160ddd1461030e5780631c9738351461032d5780631d25d5831461034d5780632052d2e91461038157600080fd5b806301ffc9a71461024057806306fdde0314610275578063081812fc14610297578063095ea7b3146102cf5780630c1c972a146102f1575b600080fd5b34801561024c57600080fd5b5061026061025b366004611d88565b610727565b60405190151581526020015b60405180910390f35b34801561028157600080fd5b5061028a610738565b60405161026c9190611df5565b3480156102a357600080fd5b506102b76102b2366004611e08565b6107ca565b6040516001600160a01b03909116815260200161026c565b3480156102db57600080fd5b506102ef6102ea366004611e3d565b6107f3565b005b3480156102fd57600080fd5b506102ef610802565b6102ef61099f565b34801561031a57600080fd5b50600e545b60405190815260200161026c565b34801561033957600080fd5b506102ef610348366004611e08565b610af5565b34801561035957600080fd5b5061031f7f000000000000000000000000000000000000000000000000000000000000000081565b34801561038d57600080fd5b50600b5461031f565b3480156103a257600080fd5b506102ef6103b1366004611e67565b610b24565b3480156103c257600080fd5b506103d66103d1366004611ea3565b610baf565b604080516001600160a01b03909316835260208301919091520161026c565b34801561040157600080fd5b50600a5461031f565b34801561041657600080fd5b506102ef610425366004611e67565b610c5b565b34801561043657600080fd5b50600f5461031f565b34801561044b57600080fd5b506102ef610c7b565b34801561046057600080fd5b506102b761046f366004611e08565b610dea565b34801561048057600080fd5b5061026061048f366004611ec5565b6001600160a01b031660009081526011602052604090205460ff1690565b3480156104b957600080fd5b5061031f6104c8366004611ec5565b610df5565b3480156104d957600080fd5b506102ef610e3d565b3480156104ee57600080fd5b506009546001600160a01b03166102b7565b34801561050c57600080fd5b50601054610100900460ff16610260565b34801561052957600080fd5b506102ef610538366004611e08565b610e4f565b34801561054957600080fd5b5061028a610e7e565b6102ef610560366004611f27565b610e8d565b34801561057157600080fd5b506102ef610580366004611fcd565b61105f565b34801561059157600080fd5b50600d5460ff1660405161026c919061201f565b3480156105b157600080fd5b506102ef61106a565b3480156105c657600080fd5b5061031f6126ff81565b3480156105dc57600080fd5b506102ef6105eb366004612047565b6111ee565b3480156105fc57600080fd5b506102ef61060b366004611e08565b611205565b34801561061c57600080fd5b5061026061062b366004611e08565b60009081526012602052604090205460ff1690565b34801561064c57600080fd5b5061028a61065b366004611e08565b611234565b34801561066c57600080fd5b50600c5461031f565b34801561068157600080fd5b5060105460ff16610260565b34801561069957600080fd5b5060105462010000900460ff16610260565b3480156106b757600080fd5b506102606106c6366004612107565b61130b565b3480156106d757600080fd5b506102ef6106e6366004611e08565b611339565b3480156106f757600080fd5b506102ef610706366004611ec5565b611398565b34801561071757600080fd5b5061031f670de0b6b3a764000081565b6000610732826113ef565b92915050565b6060600280546107479061213a565b80601f01602080910402602001604051908101604052809291908181526020018280546107739061213a565b80156107c05780601f10610795576101008083540402835291602001916107c0565b820191906000526020600020905b8154815290600101906020018083116107a357829003601f168201915b5050505050905090565b60006107d58261142f565b506000828152600660205260409020546001600160a01b0316610732565b6107fe828233611468565b5050565b61080a611475565b600261083f6040518060400160405280601181526020017003a34b6b29034b71031b7b73a3930b1ba1607d1b815250426114a2565b80600381111561085157610851612009565b600d5460ff16600381111561086857610868612009565b146108bd576108a46040518060400160405280601581526020017403932bb32b93a32b21034b7103a34b6b29037b31d1605d1b815250426114a2565b6040516314f654af60e11b815260040160405180910390fd5b60105462010000900460ff161561091b5760405162461bcd60e51b815260206004820152601a60248201527f5a65726f4461795f5f7075626c696353616c65644265666f726500000000000060448201526064015b60405180910390fd5b600c544263ffffffff16101561094457604051632ed53c1b60e11b815260040160405180910390fd5b6010805462ff0000191662010000179055600d8054600360ff1990911681179091556040517f6e95ed764170cfef59dda5e1ac3807631b7a671104ce4df3bdc070de9cecf808916109949161201f565b60405180910390a150565b6109a76114e7565b60036109dc6040518060400160405280601181526020017003a34b6b29034b71031b7b73a3930b1ba1607d1b815250426114a2565b8060038111156109ee576109ee612009565b600d5460ff166003811115610a0557610a05612009565b14610a41576108a46040518060400160405280601581526020017403932bb32b93a32b21034b7103a34b6b29037b31d1605d1b815250426114a2565b6126ff610a4d600e5490565b610a5890600161218a565b1115610a775760405163610323c760e01b815260040160405180910390fd5b670de0b6b3a7640000341015610aa05760405163a95ff08160e01b815260040160405180910390fd5b6000610aab600e5490565b610ab690600161218a565b6000818152601260205260409020805460ff19166001908117909155600e805490910190559050610ae73382611511565b5050610af36001600855565b565b610afd611475565b80600a5403610b1f5760405163e408fb4960e01b815260040160405180910390fd5b600a55565b6001600160a01b038216610b4e57604051633250574960e11b815260006004820152602401610912565b6000610b5b83833361152b565b9050836001600160a01b0316816001600160a01b031614610ba9576040516364283d7b60e01b81526001600160a01b0380861660048301526024820184905282166044820152606401610912565b50505050565b60008281526001602090815260408083208151808301909252546001600160a01b038116808352600160a01b9091046001600160601b0316928201929092528291610c245750604080518082019091526000546001600160a01b0381168252600160a01b90046001600160601b031660208201525b602081015160009061271090610c43906001600160601b03168761219d565b610c4d91906121b4565b915196919550909350505050565b610c76838383604051806020016040528060008152506111ee565b505050565b610c83611475565b6001610cb86040518060400160405280601181526020017003a34b6b29034b71031b7b73a3930b1ba1607d1b815250426114a2565b806003811115610cca57610cca612009565b600d5460ff166003811115610ce157610ce1612009565b14610d1d576108a46040518060400160405280601581526020017403932bb32b93a32b21034b7103a34b6b29037b31d1605d1b815250426114a2565b60105460ff1615610d705760405162461bcd60e51b815260206004820152601760248201527f5a65726f4461795f5f70726553616c65644265666f72650000000000000000006044820152606401610912565b600a544263ffffffff1610158015610d8f5750600b544263ffffffff16105b610dac57604051635c700aa760e11b815260040160405180910390fd5b6010805460ff191660019081179091556040517f6e95ed764170cfef59dda5e1ac3807631b7a671104ce4df3bdc070de9cecf808916109949161201f565b60006107328261142f565b60006001600160a01b038216610e21576040516322718ad960e21b815260006004820152602401610912565b506001600160a01b031660009081526005602052604090205490565b610e45611475565b610af36000611624565b610e57611475565b80600b5403610e795760405163e408fb4960e01b815260040160405180910390fd5b600b55565b6060600380546107479061213a565b610e956114e7565b6001610eca6040518060400160405280601181526020017003a34b6b29034b71031b7b73a3930b1ba1607d1b815250426114a2565b806003811115610edc57610edc612009565b600d5460ff166003811115610ef357610ef3612009565b14610f2f576108a46040518060400160405280601581526020017403932bb32b93a32b21034b7103a34b6b29037b31d1605d1b815250426114a2565b6126ff610f3b600e5490565b610f4690600161218a565b1115610f655760405163610323c760e01b815260040160405180910390fd5b7f0000000000000000000000000000000000000000000000000000000000000000341015610fa65760405163a95ff08160e01b815260040160405180910390fd5b8151600003610fc8576040516301696f4160e11b815260040160405180910390fd5b3360009081526011602052604090205460ff1615610ff95760405163269727ef60e01b815260040160405180910390fd5b336000818152601160205260409020805460ff1916600117905561101e908390611676565b6040513381527f0f07877447a50a723845caebf5eda4c73988d5d4cd4392e276160d5959d7f9c09060200160405180910390a15061105c6001600855565b50565b6107fe33838361170b565b611072611475565b60016110a76040518060400160405280601181526020017003a34b6b29034b71031b7b73a3930b1ba1607d1b815250426114a2565b8060038111156110b9576110b9612009565b600d5460ff1660038111156110d0576110d0612009565b1461110c576108a46040518060400160405280601581526020017403932bb32b93a32b21034b7103a34b6b29037b31d1605d1b815250426114a2565b601054610100900460ff16156111645760405162461bcd60e51b815260206004820152601760248201527f5a65726f4461795f5f52656576616c65644265666f72650000000000000000006044820152606401610912565b600b544263ffffffff16101580156111835750600c544263ffffffff16105b6111a0576040516325a781f160e11b815260040160405180910390fd5b6010805461ff001916610100179055600d8054600260ff1990911681179091556040517f6e95ed764170cfef59dda5e1ac3807631b7a671104ce4df3bdc070de9cecf808916109949161201f565b6111f9848484610b24565b610ba9848484846117aa565b61120d611475565b80600c540361122f5760405163e408fb4960e01b815260040160405180910390fd5b600c55565b60008181526012602052604090205460609060ff16611266576040516306009da560e01b815260040160405180910390fd5b604080518082019091526005815264173539b7b760d91b602082015260006112b660408051808201909152601581527468747470733a2f2f697066732e696f2f697066732f60581b602082015290565b905060008151116112d65760405180602001604052806000815250611303565b806112e0856118d3565b836040516020016112f3939291906121d6565b6040516020818303038152906040525b949350505050565b6001600160a01b03918216600090815260076020908152604080832093909416825291909152205460ff1690565b611341611475565b600f54810361136357604051632546ab2360e21b815260040160405180910390fd5b600f8190556040518181527f72bc5e181bb490da5a7c279c8dbfb225cabd111f78ed2ffc2c1953ad9ce9875b90602001610994565b6113a0611475565b6001600160a01b0381161580156113c557506009546001600160a01b03828116911614155b156113e657604051631e4fbdf760e01b815260006004820152602401610912565b61105c81611624565b60006001600160e01b031982166380ac58cd60e01b148061142057506001600160e01b03198216635b5e139f60e01b145b80610732575061073282611966565b6000818152600460205260408120546001600160a01b03168061073257604051637e27328960e01b815260048101849052602401610912565b610c76838383600161199b565b6009546001600160a01b03163314610af35760405163118cdaa760e01b8152336004820152602401610912565b6107fe82826040516024016114b8929190612219565b60408051601f198184030181529190526020810180516001600160e01b03166309710a9d60e41b179052611aa1565b60026008540361150a57604051633ee5aeb560e01b815260040160405180910390fd5b6002600855565b6107fe828260405180602001604052806000815250611ac2565b6000828152600460205260408120546001600160a01b039081169083161561155857611558818486611ad9565b6001600160a01b038116156115965761157560008560008061199b565b6001600160a01b038116600090815260056020526040902080546000190190555b6001600160a01b038516156115c5576001600160a01b0385166000908152600560205260409020805460010190555b60008481526004602052604080822080546001600160a01b0319166001600160a01b0389811691821790925591518793918516917fddf252ad1be2c89b69c2b068fc378daa952ba7f163c4a11628f55a4df523b3ef91a4949350505050565b600980546001600160a01b038381166001600160a01b0319831681179093556040519116919082907f8be0079c531659141344cd1fd0a4f28419497f9722a3daafe3b4186f6b6457e090600090a35050565b6040516bffffffffffffffffffffffff19606083901b1660208201526000906034016040516020818303038152906040528051906020012090506116bd83600f5483611b3d565b6116e557604051632ef744ed60e01b81526001600160a01b0383166004820152602401610912565b600e80546001019055610c76826116fb600e5490565b61170690600161218a565b611511565b6001600160a01b03821661173d57604051630b61174360e31b81526001600160a01b0383166004820152602401610912565b6001600160a01b03838116600081815260076020908152604080832094871680845294825291829020805460ff191686151590811790915591519182527f17307eab39ab6107e8899845ad3d59bd9653f200f220920489ca2b5937696c31910160405180910390a3505050565b6001600160a01b0383163b15610ba957604051630a85bd0160e11b81526001600160a01b0384169063150b7a02906117ec90339088908790879060040161223b565b6020604051808303816000875af1925050508015611827575060408051601f3d908101601f1916820190925261182491810190612278565b60015b611890573d808015611855576040519150601f19603f3d011682016040523d82523d6000602084013e61185a565b606091505b50805160000361188857604051633250574960e11b81526001600160a01b0385166004820152602401610912565b805181602001fd5b6001600160e01b03198116630a85bd0160e11b146118cc57604051633250574960e11b81526001600160a01b0385166004820152602401610912565b5050505050565b606060006118e083611b53565b600101905060008167ffffffffffffffff81111561190057611900611ee0565b6040519080825280601f01601f19166020018201604052801561192a576020820181803683370190505b5090508181016020015b600019016f181899199a1a9b1b9c1cb0b131b232b360811b600a86061a8153600a850494508461193457509392505050565b60006001600160e01b0319821663152a902d60e11b148061073257506301ffc9a760e01b6001600160e01b0319831614610732565b80806119af57506001600160a01b03821615155b15611a715760006119bf8461142f565b90506001600160a01b038316158015906119eb5750826001600160a01b0316816001600160a01b031614155b80156119fe57506119fc818461130b565b155b15611a275760405163a9fbf51f60e01b81526001600160a01b0384166004820152602401610912565b8115611a6f5783856001600160a01b0316826001600160a01b03167f8c5be1e5ebec7d5bd14f71427d1e84f3dd0314c0f7b2291e5b200ac8c7c3b92560405160405180910390a45b505b5050600090815260066020526040902080546001600160a01b0319166001600160a01b0392909216919091179055565b80516a636f6e736f6c652e6c6f67602083016000808483855afa5050505050565b611acc8383611c2b565b610c7660008484846117aa565b611ae4838383611c90565b610c76576001600160a01b038316611b1257604051637e27328960e01b815260048101829052602401610912565b60405163177e802f60e01b81526001600160a01b038316600482015260248101829052604401610912565b600082611b4a8584611cf3565b14949350505050565b60008072184f03e93ff9f4daa797ed6e38ed64bf6a1f0160401b8310611b925772184f03e93ff9f4daa797ed6e38ed64bf6a1f0160401b830492506040015b6d04ee2d6d415b85acef81000000008310611bbe576d04ee2d6d415b85acef8100000000830492506020015b662386f26fc100008310611bdc57662386f26fc10000830492506010015b6305f5e1008310611bf4576305f5e100830492506008015b6127108310611c0857612710830492506004015b60648310611c1a576064830492506002015b600a83106107325760010192915050565b6001600160a01b038216611c5557604051633250574960e11b815260006004820152602401610912565b6000611c638383600061152b565b90506001600160a01b03811615610c76576040516339e3563760e11b815260006004820152602401610912565b60006001600160a01b038316158015906113035750826001600160a01b0316846001600160a01b03161480611cca5750611cca848461130b565b806113035750506000908152600660205260409020546001600160a01b03908116911614919050565b600081815b8451811015611d3857611d2482868381518110611d1757611d17612295565b6020026020010151611d40565b915080611d30816122ab565b915050611cf8565b509392505050565b6000818310611d5c576000828152602084905260409020611d6b565b60008381526020839052604090205b9392505050565b6001600160e01b03198116811461105c57600080fd5b600060208284031215611d9a57600080fd5b8135611d6b81611d72565b60005b83811015611dc0578181015183820152602001611da8565b50506000910152565b60008151808452611de1816020860160208601611da5565b601f01601f19169290920160200192915050565b602081526000611d6b6020830184611dc9565b600060208284031215611e1a57600080fd5b5035919050565b80356001600160a01b0381168114611e3857600080fd5b919050565b60008060408385031215611e5057600080fd5b611e5983611e21565b946020939093013593505050565b600080600060608486031215611e7c57600080fd5b611e8584611e21565b9250611e9360208501611e21565b9150604084013590509250925092565b60008060408385031215611eb657600080fd5b50508035926020909101359150565b600060208284031215611ed757600080fd5b611d6b82611e21565b634e487b7160e01b600052604160045260246000fd5b604051601f8201601f1916810167ffffffffffffffff81118282101715611f1f57611f1f611ee0565b604052919050565b60006020808385031215611f3a57600080fd5b823567ffffffffffffffff80821115611f5257600080fd5b818501915085601f830112611f6657600080fd5b813581811115611f7857611f78611ee0565b8060051b9150611f89848301611ef6565b8181529183018401918481019088841115611fa357600080fd5b938501935b83851015611fc157843582529385019390850190611fa8565b98975050505050505050565b60008060408385031215611fe057600080fd5b611fe983611e21565b915060208301358015158114611ffe57600080fd5b809150509250929050565b634e487b7160e01b600052602160045260246000fd5b602081016004831061204157634e487b7160e01b600052602160045260246000fd5b91905290565b6000806000806080858703121561205d57600080fd5b61206685611e21565b93506020612075818701611e21565b935060408601359250606086013567ffffffffffffffff8082111561209957600080fd5b818801915088601f8301126120ad57600080fd5b8135818111156120bf576120bf611ee0565b6120d1601f8201601f19168501611ef6565b915080825289848285010111156120e757600080fd5b808484018584013760008482840101525080935050505092959194509250565b6000806040838503121561211a57600080fd5b61212383611e21565b915061213160208401611e21565b90509250929050565b600181811c9082168061214e57607f821691505b60208210810361216e57634e487b7160e01b600052602260045260246000fd5b50919050565b634e487b7160e01b600052601160045260246000fd5b8082018082111561073257610732612174565b808202811582820484141761073257610732612174565b6000826121d157634e487b7160e01b600052601260045260246000fd5b500490565b600084516121e8818460208901611da5565b8451908301906121fc818360208901611da5565b845191019061220f818360208801611da5565b0195945050505050565b60408152600061222c6040830185611dc9565b90508260208301529392505050565b6001600160a01b038581168252841660208201526040810183905260806060820181905260009061226e90830184611dc9565b9695505050505050565b60006020828403121561228a57600080fd5b8151611d6b81611d72565b634e487b7160e01b600052603260045260246000fd5b6000600182016122bd576122bd612174565b506001019056fea26469706673582212205382d5c961f2c4f5260962c84359ebf2835eb0755a5cee92a8203fc93fa4589e64736f6c63430008140033","linkReferences":{}},"methodIdentifiers":{"COLLECTION_MAX_SUPPLY()":"b1164e83","PUBLIC_SALE_MINT_PRICE()":"f843ae41","approve(address,uint256)":"095ea7b3","balanceOf(address)":"70a08231","changeMerkleRoot(bytes32)":"ebcea3db","changePreSaleDate(uint256)":"1c973835","changePublicSaleDate(uint256)":"be35057d","changeRevealDate(uint256)":"94d2717d","getApproved(uint256)":"081812fc","getCurrentPhase()":"a3a40ea5","getMerkleRoot()":"49590657","getPreSaled()":"d71f41be","getPublicSaled()":"e93e73bb","getRevealed()":"94cc4140","getStartPreSaleDate()":"3fd4f8a4","getStartPublicSaleDate()":"d26a8b95","getStartRevealDate()":"2052d2e9","getWhiteListMinterStatus(address)":"692c4d72","init_pre_sale_price()":"1d25d583","isApprovedForAll(address,address)":"e985e9c5","mintNFT()":"14f710fe","name()":"06fdde03","owner()":"8da5cb5b","ownerOf(uint256)":"6352211e","renounceOwnership()":"715018a6","royaltyInfo(uint256,uint256)":"2a55205a","safeTransferFrom(address,address,uint256)":"42842e0e","safeTransferFrom(address,address,uint256,bytes)":"b88d4fde","setApprovalForAll(address,bool)":"a22cb465","startPreSale()":"55dd574c","startPublicSale()":"0c1c972a","startReveal()":"ad72202b","supportsInterface(bytes4)":"01ffc9a7","symbol()":"95d89b41","tokenIdMinted(uint256)":"c1d4f2f9","tokenURI(uint256)":"c87b56dd","totalSupply()":"18160ddd","transferFrom(address,address,uint256)":"23b872dd","transferOwnership(address)":"f2fde38b","whiteListMint(bytes32[])":"97254e55"},"id":46}